:100000000C9423030C944B030C944B030C944B0360
:100010000C944B030C944B030C944B030C944B0328
:100020000C944B030C944B030C944B030C944B0318
:100030000C944B030C944B030C944B030C944B0308
:100040000C94C80E0C944B030C94380F0C94120FA4
:100050000C944B030C944B030C944B030C944B03E8
:100060000C946A0F0C944B0308000000BE922449C4
:10007000123EABAAAA2ABECDCCCC4C3E00000080DA
:10008000BEABAAAAAA3E00000000BF000000803F4D
:100090000000000000084178D3BB4387D1133D190D
:1000A0000E3CC3BD4282AD2B3E68EC8276BED98F3A
:1000B000E1A93E4C80EFFFBE01C4FF7F3F0000007E
:1000C000000007634236B79BD8A71A39685618AEA6
:1000D000BAAB558C1D3CB7CC5763BD6DEDFD753E7D
:1000E000F6177231BF000000803F00000000003EA4
:1000F0005B4F5B3E3E6B4F6B3E1C3E7C3E1C183C98
:100100007E3C181C577D571C1C5E7F5E1C00183CF3
:100110001800FFE7C3E7FF0018241800FFE7DBE73C
:10012000FF30483A060E2629792926407F05050723
:10013000407F05253F5A3CE73C5A7F3E1C1C08087F
:100140001C1C3E7F14227F22145F5F005F5F060944
:100150007F017F006689956A606060606094A2FF9D
:10016000A29408047E040810207E201008082A1C8F
:1001700008081C2A08081E101010100C1E0C1E0C5B
:1001800030383E3830060E3E0E06000000000000FB
:10019000005F00000007000700147F147F14242A6A
:1001A0007F2A12231308646236495620500008073C
:1001B0000300001C2241000041221C002A1C7F1C5D
:1001C0002A08083E0808008070300008080808085F
:1001D000000060600020100804023E5149453E00C6
:1001E000427F400072494949462141494D33181424
:1001F000127F1027454545393C4A49493141211173
:1002000009073649494936464949291E0000140064
:100210000000403400000008142241141414141487
:10022000004122140802015909063E415D594E7CE5
:100230001211127C7F494949363E414141227F419A
:1002400041413E7F494949417F090909013E4141F8
:1002500051737F0808087F00417F41002040413FE3
:10026000017F081422417F404040407F021C027FF2
:100270007F0408107F3E4141413E7F090909063E47
:100280004151215E7F091929462649494932030116
:100290007F01033F4040403F1F2040201F3F403828
:1002A000403F631408146303047804036159494D03
:1002B00043007F4141410204081020004141417F39
:1002C00004020102044040404040000307080020AF
:1002D000545478407F2844443838444444283844AF
:1002E00044287F385454541800087E090218A4A4E6
:1002F0009C787F0804047800447D40002040403D05
:10030000007F1028440000417F40007C047804787E
:100310007C080404783844444438FC182424181811
:10032000242418FC7C08040408485454542404046D
:100330003F44243C4040207C1C2040201C3C40305A
:10034000403C44281028444C9090907C4464544C89
:1003500044000836410000007700000041360800E4
:1003600002010204023C2623263C1EA1A161123A8E
:100370004040207A385454555921555579412254DA
:10038000547842215554784020545579400C1E52DF
:100390007212395555555939545454593955545484
:1003A000580000457C410002457D420001457C40EB
:1003B0007D1211127DF0282528F07C54554500202F
:1003C00054547C547C0A097F4932494949323A44A1
:1003D00044443A324A4848303A4141217A3A42400C
:1003E0002078009DA0A07D3D4242423D3D404040DE
:1003F0003D3C24FF2424487E4943662B2FFC2F2BB1
:10040000FF0929F620C0887E090320545479410051
:1004100000447D413048484A32384040227A007AD0
:100420000A0A727D0D19317D2629292F28262929AE
:10043000292630484D4020380808080808080808D0
:10044000382F10C8ACBA2F102834FA00007B0000F7
:1004500008142A142222142A14085500550055AAFB
:1004600055AA55AAFF55FF55FF000000FF001010C8
:1004700010FF00141414FF001010FF00FF1010F004
:1004800010F0141414FC001414F700FF0000FF0017
:10049000FF1414F404FC141417101F10101F101F65
:1004A0001414141F00101010F0000000001F101092
:1004B00010101F10101010F010000000FF1010108E
:1004C000101010101010FF10000000FF140000FFAB
:1004D00000FF00001F10170000FC04F41414171094
:1004E000171414F404F40000FF00F7141414141487
:1004F0001414F700F7141414171410101F101F14FD
:100500001414F4141010F010F000001F101F00005D
:10051000001F14000000FC140000F010F01010FF89
:1005200010FF141414FF141010101F00000000F02E
:1005300010FFFFFFFFFFF0F0F0F0F0FFFFFF000003
:10054000000000FFFF0F0F0F0F0F3844443844FC2A
:100550004A4A4A347E02020606027E027E02635541
:100560004941633844443C04407E201E2006027EFC
:10057000020299A5E7A5991C2A492A1C4C7201720E
:100580004C304A4D4D303048784830BC625A463D78
:100590003E494949007E0101017E2A2A2A2A2A442D
:1005A000445F444440514A444040444A5140000062
:1005B000FF0103E080FF000008086B6B083612366D
:1005C0002436060F090F060000181800000010104E
:1005D000003040FF0101001F01011E00191D17120C
:1005E000003C3C3C3C0000000000000000002400F7
:1005F00027002A0000000008000201000003040791
:1006000000000000000000000000000023002600A1
:100610002900010204081020408001020408102073
:1006200001020408102000000000250028002B0013
:100630000404040404040404020202020202030388
:1006400003030303851011241FBECFEFD8E0DEBFE4
:10065000CDBF13E0A0E0B1E0E8E8FBE302C0059005
:100660000D92A438B107D9F725E0A4E8B3E001C0A2
:100670001D92AB31B207E1F713E0C3E2D3E004C04F
:100680002197FE010E94921CC232D107C9F70E9435
:10069000B1110C94C21D0C940000FC0120812EBDF0
:1006A0000DB407FEFDCF2EB5FC01208308958330E5
:1006B00081F028F4813099F08230A9F008958730D4
:1006C000A9F08830C9F08430B1F4809180008F7D2A
:1006D00003C0809180008F7780938000089584B557
:1006E0008F7784BD089584B58F7DFBCF8091B00056
:1006F0008F778093B00008958091B0008F7DF9CFFF
:100700001F93CF93DF93282F30E0F901EC50FA4F7D
:100710008491F901EE5EF94FD491F901E05DF94F52
:10072000C491CC23A9F0162F81110E945703EC2FFE
:10073000F0E0EE0FFF1FEA5DF94FA591B4918FB77E
:10074000F894EC91111108C0D095DE23DC938FBF93
:10075000DF91CF911F910895DE2BF8CFCF93DF93D8
:1007600090E0FC01EE5EF94F2491805D994FFC0111
:1007700084918823D1F090E0880F991FFC01E65105
:10078000FA4FA591B491FC01EA5DF94FC591D4915E
:1007900061110EC09FB7F8948C91E22FE0958E23E3
:1007A0008C932881E223E8839FBFDF91CF91089546
:1007B0008FB7F894EC91E22BEC938FBFF6CF8E506D
:1007C000806480937C0080917A00806480937A00BA
:1007D00080917A0086FDFCCF80917800909179001D
:1007E00008958230910538F0880F991F880F991F5E
:1007F00005970197F1F708959F92AF92BF92CF921C
:10080000DF92EF92FF920F931F93CF93DF93EC0150
:100810006B018885998511E0892B09F010E8F601B4
:10082000A0808A2D8123992493948111912C2C816D
:100830003D814E815F8160E271EA87E090E00E9435
:100840006F18022FB12CE22EF12C002319F0C701F2
:100850000E94F1038A85877F09F04FC08D858F3F05
:1008600089F09A2D912381E009F480E0891551F0F7
:10087000EF85F8898F899923D1F19081892B808325
:1008800099249394E989FA898081998D892B8083B1
:10089000002319F0C7010E94F1038E858F3F39F0C4
:1008A000EB89FC898081988D892309F0B12AE98937
:1008B000FA899081898D8095892380838E858F3FE9
:1008C00011F0F601B08288859985892B09F044C022
:1008D000110F1111BACFDF91CF911F910F91FF909E
:1008E000EF90DF90CF90BF90AF909F900895908150
:1008F000809589238083912CC5CFE989FA898081ED
:10090000998D892B8083002319F0C7010E94F10380
:100910008D858F3F49F0EF85F8898F899A2D912336
:10092000B9F09081892B8083E989FA899081898D3A
:100930008095892380838E858F3F09F4BFCFEB8913
:10094000FC898081988D892309F4B8CFB12AB6CF6C
:10095000908180958923E7CF1695BBCFAF92BF9248
:10096000CF92DF92EF92FF920F931F93CF93DF937B
:100970001F92CDB7DEB78C015B016A01DC018D915E
:100980009C911197892B39F01296ED91FC919081F1
:1009900081819CBD8DBDF80183858F3F19F060E09A
:1009A0000E9480037501CA0CDB1CCE14DF04A9F081
:1009B000D7018D917D018983F80180819181892BF7
:1009C00029F0CE0101960E944D03EFCFBE016F5F6B
:1009D0007F4FC8010E94FC03E8CFD8011B968C9181
:1009E0008F3F19F061E00E94800381E00F90DF915A
:1009F000CF911F910F91FF90EF90DF90CF90BF901C
:100A0000AF9008953FB7F894809103049091040447
:100A1000A0910504B091060426B5A89B05C02F3F00
:100A200019F00196A11DB11D3FBFBA2FA92F982F14
:100A30008827BC01CD01620F711D811D911D42E00F
:100A4000660F771F881F991F4A95D1F708958F92D7
:100A50009F92AF92BF92CF92DF92EF92FF924B01A3
:100A60005C010E9402056B017C010E9402056C1969
:100A70007D098E099F09683E734081059105A8F3A1
:100A800021E0821A9108A108B10888EEC80E83E01F
:100A9000D81EE11CF11C81149104A104B10429F7B2
:100AA000FF90EF90DF90CF90BF90AF909F908F908E
:100AB0000895AF92BF92CF92DF92EF92FF920F9381
:100AC0001F93CF93DF936C017B018B01040F151FE4
:100AD000EB015E01AE18BF08C017D10759F069914C
:100AE000D601ED91FC910190F081E02DC6010995B0
:100AF000892B79F7C501DF91CF911F910F91FF905D
:100B0000EF90DF90CF90BF90AF900895FC01538D90
:100B1000448D252F30E0842F90E0821B930B5417D7
:100B200010F0CF96089501970895FC01918D828D64
:100B3000981761F0A28DAE0FBF2FB11D5D968C91FD
:100B4000928D9F5F9F73928F90E008958FEF9FEF3C
:100B50000895FC01918D828D981731F0828DE80FF8
:100B6000F11D858D90E008958FEF9FEF0895FC01B2
:100B7000918D228D892F90E0805C9F4F821B91097F
:100B80008F739927089587E094E00E94B70521E0CC
:100B9000892B09F420E0822F089580E090E0892BD2
:100BA00029F00E94C30581110C9400000895FC01F6
:100BB000A48DA80FB92FB11DA35ABF4F2C91848DBE
:100BC00090E001968F739927848FA689B7892C931B
:100BD000A089B1898C91837080648C93938D848D6E
:100BE000981306C00288F389E02D80818F7D808371
:100BF0000895EF92FF920F931F93CF93DF93EC0131
:100C000081E0888F9B8D8C8D98131AC0E889F989B3
:100C1000808185FF15C09FB7F894EE89FF896083B6
:100C2000E889F98980818370806480839FBF81E037
:100C300090E0DF91CF911F910F91FF90EF90089579
:100C4000F62E0B8D10E00F5F1F4F0F731127E02E54
:100C50008C8D8E110CC00FB607FCFACFE889F9898C
:100C6000808185FFF5CFCE010E94D705F1CFEB8DB6
:100C7000EC0FFD2FF11DE35AFF4FF0829FB7F89460
:100C80000B8FEA89FB8980818062CFCFCF93DF937E
:100C9000EC01888D8823B9F0AA89BB89E889F98994
:100CA0008C9185FD03C0808186FD0DC00FB607FCC9
:100CB000F7CF8C9185FFF2CF808185FFEDCFCE01FC
:100CC0000E94D705E9CFDF91CF9108952091AB0322
:100CD000260F3327331F21323105ECF42091CF0347
:100CE000FC0190E080E0243069F082E00895A0915A
:100CF000AB032191AC0145575C4FA40FB52FB11D3B
:100D00002C930196861798F38091AB03680F60933C
:100D1000AB0380E0089581E0089508958FEF9FEF81
:100D200008958FEF9FEF08958091840390E091954F
:100D3000819591090895CF93DF93CB01EA01642F48
:100D40000E946606CE01DF91CF910895CF93DF9385
:100D50001F92CDB7DEB7698361E0CE0101960E9494
:100D6000660681E090E00F90DF91CF91089508959D
:100D7000FC016370668B84819581268137816130A7
:100D800039F0633029F0918780873387228708956F
:100D9000318720879387828708952F923F924F92C1
:100DA0005F926F927F928F929F92AF92BF92CF92FB
:100DB000DF92EF92FF920F931F93CF93DF93CDB704
:100DC000DEB76A970FB6F894DEBF0FBECDBF9A8F1D
:100DD000898F7A8369834A01D22E18870F8337015E
:100DE000BC2CDC0159962D913C915A972115310567
:100DF00009F015C118968D919C911997681779077C
:100E00000CF0D7C11A968D919C91481759070CF098
:100E1000D0C14C2C512CB6E0CB9E600D711D11241D
:100E20007C876B87161617060CF0C3C1EA2DF0E01D
:100E3000FA87E98793E0EE0FFF1F9A95E1F7F88BA9
:100E4000EF87CF01840F951F181619060CF0B1C15A
:100E5000A98DBA8D58968C91811104C0BFEABD1539
:100E600008F4D394A98DBA8DED91FC911197028469
:100E7000F385E02DCD010995B5E0DB9EC00111247D
:100E8000E981FA81FC83EB83312C212C9C012651D2
:100E90003F4F388F2F8B4A2D50E05E8B4D8BEF8963
:100EA000F88DE20DF31D44919E828D82D12CC12CD0
:100EB00069817A81620D731D7A8B698B842F90E032
:100EC0009C8B8B8BE98DFA8DA081B18140FF82C014
:100ED000F1E0BF126FC0AF126DC01C96ED91FC9196
:100EE0002F813885A4014C0D5D1D69897A89898D12
:100EF0009A8D0995EB89FC89F595E7954E2F5FEF63
:100F0000C51AD50A6D817E818D899E89680F791FEA
:100F10007E836D8398E0C916D10481F6AFEF2A1A5B
:100F20003A0AEB81FC81E40DF51DFC83EB83F5E0CF
:100F30002F16310409F0B3CF2F81388526153705D8
:100F4000B9F0A98DBA8DED91FC91B1E0BB1257C0FB
:100F5000AB1255C069817A816B5F7F4F0088F18940
:100F6000E02D830128E030E0A401898D9A8D099558
:100F7000A98DBA8DED91FC9111970688F789E02D26
:100F8000CD016A960FB6F894DEBF0FBECDBFDF91DC
:100F9000CF911F910F91FF90EF90DF90CF90BF9076
:100FA000AF909F908F907F906F905F904F903F9009
:100FB0002F9009941E96ED91FC91EF80F88409859D
:100FC0001A8592014D815E816B817C81898D9A8D1C
:100FD000099590CF2F8138852615370509F48ACFDA
:100FE00031E0B31207C0A31205C01C96ED91FC912D
:100FF000930178CF1E96ED91FC917301E0CF6B8544
:101000007C85641975090684F785E02D73010F85C9
:1010100018899201A401898D9A8D0995A9CFF901AA
:1010200034969491329745915491D91AB7E0DB9E4A
:10103000400D511D1124F901259134913C8B2B8BCE
:10104000FA0125903490FA013296749031963491D9
:10105000398B329664903196449041E04C1518F0EB
:101060004A1508F07FC0662D062C000C770B7C8398
:101070006B83842D042C000C990B9E838D83A98D8A
:10108000BA8DED91FC9111970284F385E02DCD018D
:101090000995512CD12CC12CEA2DF0E0FA87E98773
:1010A0002B2D30E03C872B87A401440D511D47FCBC
:1010B0005A95588F4F8B69817A81660D711D67FC37
:1010C0007A957E876D877989C71608F051CF2C2DC8
:1010D00030E04D815E81420F531FA985BA854A9F3A
:1010E000C0014B9F900D5A9F900D1124FC01E80DFB
:1010F000F91DF88BEF87852D612C4F89588D420F94
:10110000531F5E8B4D8B671408F050C044244394EA
:10111000480E877041F4C1010196EB89FC89E20D0C
:10112000F31DD4901C01D7FE19C0A98DBA8DED9185
:10113000FC91662D70E0B1E0BB1219C0AB1217C074
:101140002D853E85620F731F0484F585E02D2F8168
:1011500038854D895E89898D9A8D0995DD0C63945A
:10116000842DD1CF1E821D821C821B8288CF4B8191
:101170005C81640F751FAB85BC856A9FC0016B9F46
:10118000900D7A9F900D112469817A81680F791FE3
:101190000684F785E02DEF80F88409851A859D0186
:1011A0004F855889898D9A8D0995D8CF570CC3944E
:1011B0008ACF6A960FB6F894DEBF0FBECDBFDF911F
:1011C000CF911F910F91FF90EF90DF90CF90BF9044
:1011D000AF909F908F907F906F905F904F903F90D7
:1011E0002F9008958F929F92AF92CF92EF92FF929D
:1011F0000F931F93CF93DF93EC01262F898D9A8D48
:10120000009709F051C06A30D1F41D861C868D8983
:1012100048E0849F900111248E859F85820F931F43
:101220009F878E8781E090E0DF91CF911F910F9192
:10123000FF90EF90CF90AF909F908F9008956D307A
:1012400089F3CC88AD888F898823C1F08C859D85F2
:1012500036E0C39E800D911D11244885598548179D
:10126000590764F44E855F851D861C8638E0A39E71
:10127000C0011124840F951F9F878E87EA88FB8801
:10128000088919894E855F856C857D85CE010E9410
:10129000CD062C898C859D8546E0249F800D911D6F
:1012A00011249D878C87BECF6A3069F41D861C8609
:1012B000FC013896E4912D898E859F85E29F800DF3
:1012C000911D1124ADCF6D3009F4ACCFFC013496E3
:1012D0003491631708F4A6CF3296E491E61708F428
:1012E000A1CFFC01329685909490462F431B342F5A
:1012F00047E0349F800C911C1124F4013296349104
:101300003196E4913323A9F1EE2399F1CC88F401CD
:101310003596E491AD884F89442301F10E2E000CDF
:10132000FF0BE30FF11DCE9EA001CF9E500D1124A7
:101330006C857D85460F571F68857985641775070D
:101340006CF44E855F851D861C86FC013896E49101
:10135000AE9E400D511D11245F874E87EA88FB88A1
:10136000088919894E855F856C857D85CE010E942F
:10137000CD06F4013496E4912C898C859D85E29FFD
:10138000800D911D11248DCF6F927F928F929F922D
:10139000AF92BF92CF92DF92EF92FF920F931F9383
:1013A000CF93DF93EC016B015A0139014801E881C9
:1013B000F9810284F385E02D0995E881F98102889D
:1013C000F389E02D87019301A501B601CE010995AE
:1013D000A501480D591D41505109E881F981028844
:1013E000F389E02D9301B601CE010995E881F981D9
:1013F0000088F189E02D9401A501B601CE0109957F
:10140000C60CD71CB60161507109E881F9810088CA
:10141000F189E02D9401A501CE010995E881F981BA
:101420000688F789E02DCE01DF91CF911F910F91B2
:10143000FF90EF90DF90CF90BF90AF909F908F90F4
:101440007F906F9009946F927F928F929F92AF924C
:10145000BF92CF92DF92EF92FF920F931F93CF93A1
:10146000DF935C01EB016A01490138018701DC016E
:10147000ED91FC916217730719F5641675062CF04F
:10148000962D872D3A01C92ED82E96012619370997
:101490002F5F3F4F048CF58DE02DA301BE01C501E8
:1014A0000995DF91CF911F910F91FF90EF90DF9001
:1014B000CF90BF90AF909F908F907F906F90089546
:1014C0004615570591F42617370724F0892D4B014F
:1014D000C22FD82F9E01281939092F5F3F4F068C44
:1014E000F78DE02DA601B401DACF0284F385E02D5B
:1014F0000995D501ED91FC910488F589E02D8301D2
:101500009401A601BE01C5010995D501ED91FC919B
:101510000688F789E02DC501DF91CF911F910F91CA
:10152000FF90EF90DF90CF90BF90AF909F908F9003
:101530007F906F900994EF92FF920F931F93DC01BD
:101540001A960D911C911B9718962D913C91199705
:10155000ED91FC9100A0F1A1E02D7B0150E040E075
:1015600070E060E009951F910F91FF90EF90089552
:101570004F925F926F927F928F929F92AF92BF92A3
:10158000CF92DF92EF92FF920F931F93CF93DF934F
:101590006C012B015A0139014801DC01ED91FC91EC
:1015A0000284F385E02D0995E201640C751CD601D7
:1015B000ED91FC91C615D7055CF40088F189E02D0A
:1015C00087019401A501BE01C60109952196EFCFBF
:1015D0000688F789E02DC601DF91CF911F910F9109
:1015E000FF90EF90DF90CF90BF90AF909F908F9043
:1015F0007F906F905F904F9009948F929F92AF92DF
:10160000BF92CF92DF92EF92FF920F931F93CF93EF
:10161000DF93EC015B014A016901E881F9810284F1
:10162000F385E02D099595012C0D3D1D21503109C3
:10163000E881F9810488F589E02D78018401A4010D
:10164000B501CE010995E881F9810688F789E02D79
:10165000CE01DF91CF911F910F91FF90EF90DF901E
:10166000CF90BF90AF909F908F9009948F929F9250
:10167000AF92BF92CF92DF92EF92FF920F931F93A0
:10168000CF93DF93EC015B014A0169017801E881A6
:10169000F9810284F385E02D0995C80CD91C8601D7
:1016A00001501109E881F9810488F589E02D95013F
:1016B000A401B501CE010995E881F9810688F78971
:1016C000E02DCE01DF91CF911F910F91FF90EF9010
:1016D000DF90CF90BF90AF909F908F900994EF9242
:1016E000FF920F931F93DC01ED91FC9100A0F1A1FB
:1016F000E02D09951F910F91FF90EF9008950F93A2
:101700001F93DC01ED91FC91068CF78DE02D09957E
:101710001F910F9108950F931F93DC01ED91FC91A0
:10172000048CF58DE02D09951F910F910895DC0132
:10173000ED91FC910084F185E02D09942F923F9268
:101740004F925F926F927F928F929F92AF92BF92D1
:10175000CF92DF92EF92FF920F931F93CF93DF937D
:1017600000D000D000D0CDB7DEB73C016A013E8387
:101770002D83FC82EB825801A41AB50AB7FE03C080
:10178000B194A194B1088D809E80861A970A97FE25
:1017900003C09194819491088A149B045CF0902F6B
:1017A000812F0D811E819D838E839C2D8D2D6B013C
:1017B000692F782F0C151D055CF09D818E817E832D
:1017C0006D83692F782F902F812F8601C92ED82EF7
:1017D0001601201A310A2B012D813E81421A530A2B
:1017E00057FE03C0519441945108710137FE03C064
:1017F0003FEFE31AF30AF594E7948D819E818617F3
:1018000097075CF5A1E0B0E0BA83A983C016D106C2
:101810004CF1D301ED91FC910484F585E02D2B81F1
:101820003C81A8016D817E818A149B041CF04D814E
:101830005E81B801C3010995E418F508F7FE0AC0F6
:101840002D813E8189819A81280F391F3E832D8306
:10185000E20CF31C0F5F1F4FD9CF2FEF3FEF3A83FE
:101860002983D4CF26960FB6F894DEBF0FBECDBF26
:10187000DF91CF911F910F91FF90EF90DF90CF906C
:10188000BF90AF909F908F907F906F905F904F90A0
:101890003F902F9008950F931F93CF93DF931F9244
:1018A000CDB7DEB78C01698360E0FC01868D0E94B4
:1018B000800341E050E0BE016F5F7F4FF801838DF0
:1018C000948D0E94AE040F90DF91CF911F910F91E4
:1018D0000895CF938091C50487FD13C061E00E94F5
:1018E000AE0360E08091C5040E94800361E070E077
:1018F00080E090E00E94270561E08091C5040E948D
:101900008003C091C804C83008F0C7E0C093C80481
:1019100061E288EA94E00E944B0C6C2F606188EAD7
:1019200094E00E944B0C60E288EA94E00E944B0C29
:10193000C091C704C7FDCFE7C093C70461E288EA3E
:1019400094E00E944B0C6C2F606888EA94E00E943F
:101950004B0C60E288EA94E00E944B0C60E288EA5B
:1019600094E00E944B0C6CE088EA94E0CF910C94D8
:101970004B0CFF920F931F93CF93DF939091C90469
:10198000992339F08091CA048F5F8917E8F5809315
:10199000CA04D091CD04D695D695D69584E5D89F26
:1019A000800111248091CE048695869586958D17A9
:1019B00080F16D2F606488EA94E00E944B0CC09126
:1019C000CB04F090CC046C2F606888EA94E00E940D
:1019D0004B0C61E08091C6040E9480034F2D50E0C3
:1019E0006C2F70E0461B570B4F5F5F4F600F711FEE
:1019F00060507F4F8091C3049091C4040E94AE0454
:101A0000DF5F0C5A1F4FCECF1092CA040E94690CA0
:101A1000C0CF60E488EA94E00E944B0C83E5809399
:101A2000CB041092CC048FE28093CD041092CE04AC
:101A3000DF91CF911F910F91FF9008951F93CF9346
:101A4000DF93EC01162F60E20E944B0C6CE0111149
:101A50006DE0CE01DF91CF911F910C944B0CFC01F6
:101A600077FD55C080859185681779070CF04FC0C8
:101A700057FD4DC082859385481759070CF047C024
:101A80008689823009F444C0833009F44EC0813025
:101A900031F48FE290E0861B970BBA01AC01842FE2
:101AA000A62F93A1691708F4962F93A394A19A17D0
:101AB00008F49A2F94A395A1891708F4982F95A359
:101AC00096A1981708F4982F96A3CA0157FD079678
:101AD000E3E095958795EA95E1F7A4E5A89FF001E5
:101AE000A99FF00D1124E60FF71FE050FF4FCA0128
:101AF00068E070E00E94631C41E050E001C0440FC8
:101B00008A95EAF78081232BB9F0842B808308958E
:101B100083E590E0DC01A61BB70BBD018FE290E0EE
:101B2000DC01A41BB50BAD01BACF83E590E0841BAB
:101B3000950BAB01BC01B3CF40958423E7CF08954B
:101B400090E080E008950E94BD1DFB0101900020FF
:101B5000E9F73197AF01461B570BDC01ED91FC9182
:101B60000280F381E02D09948F929F92AF92BF92F1
:101B7000EF92FF920F931F93CF93DF93CDB7DEB712
:101B8000A1970FB6F894DEBF0FBECDBF7C01FA015E
:101B9000CB0119A2223008F42AE08E010F5D1F4FFD
:101BA000822E912CB12CA12CBF01A50194010E9481
:101BB0006F18F901CA016A300CF5605DD8016E93A7
:101BC0008D01232B242B252B79F790E080E01097B3
:101BD00021F0BD01C7010E94A50DA1960FB6F89492
:101BE000DEBF0FBECDBFDF91CF911F910F91FF9050
:101BF000EF90BF90AF909F908F900895695CDECF7B
:101C0000CF92DF92EF92FF920F931F93CF93DF93C8
:101C1000EC016A017B01E881F9810190F081E02DFE
:101C20006DE209958C0144275527BA014C195D09CD
:101C30006E097F092AE0CE010E94B40D800F911F2A
:101C4000DF91CF911F910F91FF90EF90DF90CF9098
:101C500008950F931F93CF93DF93EC01AB01770FA0
:101C6000660B770B77FF0FC00E94000E8C016CE3B0
:101C700073E0CE010E94A50D800F911FDF91CF91DF
:101C80001F910F9108952AE00E94B40DEFCFAB0190
:101C9000770F660B770B77FD0C94000E2AE00C94FF
:101CA000B40D0C94A50D1F93CF93DF9385ED809316
:101CB000BC008091870390918803A0918903B09123
:101CC0008A030796A11DB11D23E0B695A7959795A8
:101CD00087952A95D1F72091BC0024FD03C010926E
:101CE000CF0352C0409187035091880360918903CC
:101CF00070918A03452B462B472B69F30097A1056A
:101D0000B10541F02AE22A95F1F700C00197A10937
:101D1000B109E1CF80918603C1E0C0938503882398
:101D200099F1D091B8001091BA008091BC008A7BE3
:101D30008093BC0060E082E10E94800360E083E168
:101D40000E9480031092CF03C093D1031092D0035E
:101D500061E082E10E94800361E083E10E948003F0
:101D60008091B9008E7F8093B9008091B9008D7FFA
:101D70008093B90088E48093B80085E48093BC0028
:101D80001093BA00D093B800DF91CF911F910895BE
:101D90001F920F920FB60F9211242F933F938F93A0
:101DA0009F93AF93BF938091A4049091A504A091B9
:101DB000A604B091A7043091020423E0230F2D372D
:101DC00058F50196A11DB11D209302048093A4042F
:101DD0009093A504A093A604B093A7048091030454
:101DE00090910404A0910504B09106040196A11DF0
:101DF000B11D8093030490930404A0930504B09351
:101E00000604BF91AF919F918F913F912F910F90B9
:101E10000FBE0F901F90189526E8230F0296A11D64
:101E2000B11DD2CF1F920F920FB60F9211242F9394
:101E30003F934F935F936F937F938F939F93AF9352
:101E4000BF93EF93FF9387E094E00E94D705FF9143
:101E5000EF91BF91AF919F918F917F916F915F9122
:101E60004F913F912F910F900FBE0F901F9018959B
:101E70001F920F920FB60F9211242F938F939F935F
:101E8000EF93FF93E0911704F09118048081E091A3
:101E90001D04F0911E0482FD1BC0908180912004DE
:101EA0008F5F8F7320912104821741F0E09120040D
:101EB000F0E0E95FFB4F958F80932004FF91EF9155
:101EC0009F918F912F910F900FBE0F901F9018959B
:101ED0008081F4CF1F920F920FB60F9211242F938F
:101EE0003F934F935F936F937F938F939F93AF93A2
:101EF000BF93EF93FF938091B900887F803609F4F8
:101F00004AC0F0F5883209F4A5C018F5803109F40B
:101F100099C0B8F4882309F4F5C0883009F492C058
:101F2000FF91EF91BF91AF919F918F917F916F91B1
:101F30005F914F913F912F910F900FBE0F901F9087
:101F40001895883109F486C0803251F78093CE030A
:101F500014C0803409F49BC040F48033B9F3883353
:101F6000F9F68093CE0385ECAEC0803509F483C0CA
:101F7000883509F494C0883499F60E94530ED0CF66
:101F8000883909F48AC038F5883729F050F4883642
:101F900011F0803729F683E08093CF031092CD03B0
:101FA00055C0883809F479C0803919F0803809F0B3
:101FB000B7CF8091CD03803208F06FC0E091CD03A0
:101FC00081E08E0F8093CD038091BB00F0E0E3555C
:101FD000FC4F80833BC0803B39F0D0F4803A09F459
:101FE00077C0883A09F09CCF84E08093CF031092A9
:101FF000AC031092AB03F0E0E0E009958091AB03F5
:1020000081110FC081E08093AB0310928B0309C054
:10201000803C09F4A8CF883C09F4A5CF883B09F09F
:102020007FCFE091AC0381E08E0F8093AC03F0E0B2
:10203000E557FC4F80818093BB009091AC03809169
:10204000AB0329C08091F4038093BB0085EC80939F
:10205000BC0066CF9091F3038091F203981758F576
:10206000E091F30381E08E0F8093F303F0E0EE52F2
:10207000FC4F8081E9CFE091F30381E08E0F8093E4
:10208000F3038091BB00F0E0EE52FC4F808390910F
:10209000F3038091F2039817C8F285E8D8CFE09156
:1020A000F30381E08E0F8093F3038091BB00F0E097
:1020B000EE52FC4F80838091D10381115ECF81E08D
:1020C0008093D00384EA8093BC001092CF0328CF82
:1020D00085EC8093BC001092CF038091CD038032B9
:1020E00030F4E091CD03F0E0E355FC4F10826091B5
:1020F000CD0370E08DEA93E0F0E0E0E00995109206
:10210000CD030ECF1092CE0338CFEF92FF920F93F4
:102110001F93CF93DF93E7E0F4E01382128288EEFF
:1021200093E0A0E0B0E084839583A683B78382E048
:1021300093E09183808385EC90E09587848784EC9D
:1021400090E09787868780EC90E0918B808B81EC84
:1021500090E0938B828B82EC90E0958B848B86EC65
:1021600090E0978B868B118E128E138E148EEBED72
:10217000F4E083ED94E0978F868F87ED94E0958F60
:10218000848F8FEC94E091A380A312AE12AA13AABD
:1021900014AA15AA80E090E0AFE7B3E486AB97AB52
:1021A000A0AFB1AF84E690E0A0E0B0E086A797A72B
:1021B000A0ABB1AB118E108EEE24E394F12CF38E14
:1021C000E28E81E083AF40E050E060E570E4408360
:1021D000518362837383148215821682178210865C
:1021E0001186128613864487558766877787108AFB
:1021F000118A128A138A148A158A168A178A9FB737
:10220000F8944091A4045091A5046091A6047091A3
:10221000A7049FBF06A517A520A931A9401B510BF4
:10222000620B730B42A353A364A375A3C8EAD4E063
:102230001B821A8244E550E05D834C8320E330E04A
:102240003F832E83598748873B872A871E8A1D86AE
:102250001C861F861E868D8B8C8B2FEF3FEF3B8B52
:102260002A8B398B288B8F8B188E1A8E198E84E1CE
:1022700093E0998388838CE190E00E94981C8C0104
:1022800085E0D8011B968C931B9782E01C968C935B
:102290001C978FEF1E968C931E9783E01D968C9350
:1022A0001D97E5E3F6E0E491F0E0EE0FFF1FEA5D35
:1022B000F94F85919491F801968B858BE7E1F6E0D3
:1022C000E4915A96EC935A97E3E3F6E0E491F0E058
:1022D000EE0FFF1FEA5DF94F85919491F801908B05
:1022E0008787E5E1F6E0E4915796EC935797E2E3B0
:1022F000F6E0E491F0E0EE0FFF1FEA5DF94F859103
:102300009491F801928B818BE4E1F6E0E491599687
:10231000EC9380E099E0ADE3B0E0F801848395832D
:10232000A683B783F186E0861286138E82E090E062
:102330000E94981C20E5DC012C9311961C92F80158
:1023400093838283118210821C8F0B8F84E08E8F87
:1023500086E08D8FDF91CF911F910F91FF90EF90CD
:102360000895CF93DF93CDB7DEB72E970FB6F894CD
:10237000DEBF0FBECDBF789484B5826084BD84B5C6
:10238000816084BD85B5826085BD85B5816085BD70
:1023900080916E00816080936E0010928100809128
:1023A00081008260809381008091810081608093B0
:1023B0008100809180008160809380008091B100D5
:1023C00084608093B1008091B00081608093B00000
:1023D00080917A00846080937A0080917A00826094
:1023E00080937A0080917A00816080937A00809156
:1023F0007A00806880937A001092C100E0911704FF
:10240000F091180482E08083E0911304F0911404A9
:102410001082E0911504F09116048FEC80831092E5
:102420001F04E0911B04F0911C0486E08083E0917E
:102430001904F0911A04808180618083E09119046D
:10244000F0911A04808188608083E0911904F091F2
:102450001A04808180688083E0911904F0911A0445
:1024600080818F7D808361E08CE00E94AE0361E01B
:102470008DE00E94AE0360E089E00E94AE032091EF
:10248000C3043091C4043A832983D9011B968C91EB
:102490008F3F49F061E00E94AE0361E0E981FA817B
:1024A00083850E948003A981BA818D919C91892B9B
:1024B00009F454C11FB7F8948091F503811127C026
:1024C000EAE3F6E08491ECE1F6E09491E82FF0E0A5
:1024D000EE0FFF1FE651FA4FA591B491EC91E9235D
:1024E00021F461E08AE00E94800361E08AE00E94BA
:1024F000AE038CB580618CBD8CB580648CBD61E011
:102500008DE00E94AE0361E08BE00E94AE038091FB
:10251000F5038F5F8093F5031FBF81E0E981FA81A6
:10252000838F61E08091C6040E94AE038091C50450
:1025300087FD03C061E00E94AE0384E08093C8047D
:1025400088E28093C7041092C9041092CA040E94C2
:10255000690C1092CB048091CC04833508F483E598
:102560008093CC041092CD048091CE048F3208F475
:102570008FE28093CE040E94B90C81E10E94DF03B8
:1025800024E630E0DC010E94771C2FEF33E040E0CE
:1025900050E00E944518CA01B9010E94BC1960931D
:1025A000FE037093FF03809300049093010480E185
:1025B0000E94DF03BC01990F880B990B0E94BC1984
:1025C00020E030E040EA50E40E94C11A20E030EC04
:1025D0004FE754E40E9412196B017C01AC019B018E
:1025E00060E070E080EA90E40E94A01820E030E40F
:1025F0004CE156E40E9412199B01AC01C701B601DF
:102600000E9412190E94791A6B017C0120E030E0CF
:1026100040E450E40E942E1B4B015C0126E039EBA4
:102620004BE859E3C701B6010E94C11A2FEB3AE308
:1026300048E55AE30E94A1186B017C0121EF37E6BF
:1026400046EC53E3C501B4010E94C11A9B01AC01E1
:10265000C701B6010E94A1189B01AC0160E070E0C7
:1026600080E89FE30E94121923E333E948E853E42A
:102670000E94A0186093D7047093D8048093D90463
:102680009093DA0482E10E94DF039A838983BC017C
:10269000990F880B990B0E94BC196093FA037093F1
:1026A000FB038093FC039093FD032CE030E0A981B1
:1026B000BA810E94771C24EF33E040E050E00E9492
:1026C0004518CA01B901625E7F4F8F4F9F4F0E942C
:1026D000BC196093CF047093D0048093D10490937D
:1026E000D2048091150581117AC0E091F904F0912E
:1026F000FA04C080D180E280F380C0920105D092BC
:102700000205E0920305F0920405E091F704F091D0
:10271000F80480819181A281B38180930505909313
:102720000605A0930705B0930805809011059090C9
:102730001205A0901305B0901405A5019401C701DE
:10274000B6010E946C1A1816D4F580920105909279
:102750000205A0920305B092040541C061E0E98141
:10276000FA8184850E94AE03A981BA811A968C9160
:102770001A978B7FF9F460E01C968C910E9480037D
:10278000A981BA811D968C918F3F49F061E00E942A
:10279000AE0361E0E981FA8185850E948003A98109
:1027A000BA811E968C918F3F09F4B7CE60E00E94EB
:1027B000AE03B3CE61E0E981FA818485DFCF8090FA
:1027C0000D0590900E05A0900F05B0901005A50185
:1027D0009401C701B6010E940D1987FDB6CF81E0B3
:1027E000809315052091F5043091F60421303105D0
:1027F00009F080E080931605812C912C90E5A92E9C
:1028000090E4B92E8092DB049092DC04A092DD0467
:10281000B092DE041092DF041092E0041092E10402
:102820001092E2041092E3041092E4041092E50482
:102830001092E6046091090570910A0580910B05DC
:1028400090910C050E94BA1920E030E04AE754E468
:102850000E9412196B017C018092E7049092E804B7
:10286000A092E904B092EA0420E030E0A9010E94BD
:10287000C11A4B015C018092EB049092EC04A0928F
:10288000ED04B092EE04A701960160E070E0CB0188
:102890000E9412196B017C01C092EF04D092F004E7
:1028A000E092F104F092F2048091F3049091F40428
:1028B000019751F580E090E0A0E5B0EC8093E7044B
:1028C0009093E804A093E904B093EA04A50194016D
:1028D00060E070E0CB010E94A0186093EB0470935D
:1028E000EC048093ED049093EE04A701960160E060
:1028F00070E0CB010E94A0186093EF047093F00485
:102900008093F1049093F20481E10E94DF0324E6B6
:1029100030E0DC010E94771C2FEF33E040E050E014
:102920000E944518CA01B9010E94BC196093FE03B8
:102930007093FF03809300049093010480E10E9450
:10294000DF03BC01990F880B990B0E94BC1920E092
:1029500030E040EA50E40E94C11A20E030EC4FE73A
:1029600054E40E9412196B017C01AC019B0160E0F0
:1029700070E080EA90E40E94A01820E030E44CE18E
:1029800056E40E9412199B01AC01C701B6010E94D6
:1029900012190E94791A6B017C0120E030E040E4BA
:1029A00050E40E942E1B4B015C0126E039EB4BE802
:1029B00059E3C701B6010E94C11A2FEB3AE348E57B
:1029C0005AE30E94A1186B017C0121EF37E646EC27
:1029D00053E3C501B4010E94C11A9B01AC01C701B8
:1029E000B6010E94A1189B01AC0160E070E080E894
:1029F0009FE30E94121923E333E948E853E40E945D
:102A0000A0186093D7047093D8048093D90490934E
:102A1000DA0482E10E94DF039A838983BC01990F63
:102A2000880B990B0E94BC196093FA037093FB0307
:102A30008093FC039093FD032CE030E0A981BA81E0
:102A40000E94771C24EF33E040E050E00E944518DC
:102A5000CA01B901625E7F4F8F4F9F4F0E94BC1920
:102A60006093CF047093D0048093D1049093D204E8
:102A700064E670E080E090E00E94270580911505F3
:102A8000882309F42FC18FB7F8942091A4043091C2
:102A9000A5044091A6045091A70429873A874B8743
:102AA0005C878FBF8091FD049091FE04A091FF048C
:102AB000B091000549855A856B857C85481B590B6B
:102AC0006A0B7B0B8091090590910A05A0910B057B
:102AD000B0910C05481759076A077B0708F402C133
:102AE000E091F704F091F804408051806280738097
:102AF000E091FB04F091FC04A301920160817181DB
:102B0000828193810E94A0186B017C0120910505B0
:102B1000309106054091070550910805C301B201A7
:102B20000E94A01869837A838B839C832091EB0495
:102B30003091EC044091ED045091EE04C701B601D0
:102B40000E94C11A209101053091020540910305B0
:102B5000509104050E94A1184B015C01809201056F
:102B600090920205A0920305B092040530901605DC
:102B700031101CC02091E7043091E8044091E90431
:102B80005091EA0469817A818B819C810E94C11AEB
:102B90009B01AC01C501B4010E94A018609301051E
:102BA00070930205809303059093040580910105BD
:102BB00090910205A0910305B09104058D839E8339
:102BC000AF83B887009111051091120590911305FC
:102BD0009E87A0911405AD879801492F5A2F6D81CA
:102BE0007E818F8198850E946C1A18160CF0D4C0D3
:102BF000C801AE85BD858093010590930205A09321
:102C00000305B0930405332009F4E1C02091E704E3
:102C10003091E8044091E9045091EA04C701B601FB
:102C20000E94C11A6B017C012091EF043091F004E5
:102C30004091F1045091F20469817A818B819C81E9
:102C40000E94C11A9B01AC016091010570910205BF
:102C500080910305909104050E94A018A701960198
:102C60000E94A1186B017C019B01AC01B8018E850B
:102C70009D850E940D1987FD16C000910D051091CC
:102C80000E05B0910F05BE87E0911005ED87980104
:102C90004B2F5E2FB601C7010E940D1987FD03C09F
:102CA0008601EE86FD86E091F904F091FA04C801F0
:102CB000AE85BD8580839183A283B3834092050551
:102CC00050920605609207057092080529853A859D
:102CD0004B855C852093FD043093FE044093FF04F4
:102CE00050930005C090D304D090D404E090D50454
:102CF000F090D604C701B6010E9484199B01AC0173
:102D0000A0E5B0E00E9464182FEF30E040E050E012
:102D10000E944518CA01B9010E94BC196093F603CC
:102D20007093F7038093F8039093F903C701B601FA
:102D30000E9484196B017A83698361E08AE00E94B2
:102D4000AE0349815A81452B09F045C060E08AE015
:102D50000E9480036091D7047091D8048091D904B7
:102D60009091DA040E9484196B016091F6037091CE
:102D7000F7038091F8039091F9030E9484196C0D78
:102D80007D1D6E3171050CF071C061E08CE00E9418
:102D9000800360E08DE074C080900D0590900E057A
:102DA000A0900F05B0901005A50194016D817E8162
:102DB0008F8198850E940D1987FF25CF809201058C
:102DC00090920205A0920305B09204051CCFC12C7D
:102DD000D12C760129CF89819A818F3F910511F4F9
:102DE00061E0B5CFEEEFF5E08491833029F150F446
:102DF0008130C1F08230D9F029813A812038310503
:102E00007CF7A4CF873011F1883041F18430A1F7ED
:102E100080918000806280938000D0928B00C0926D
:102E20008A0098CF84B5806884BDC7BC93CF84B531
:102E3000806284BDC8BC8ECF809180008068809302
:102E40008000D0928900C092880084CF8091B00029
:102E500080688093B000C092B3007CCF8091B000B6
:102E600080628093B000C092B40074CF6B32710561
:102E70000CF409C161E08DE00E94800360E08CE009
:102E80000E948003A0E0B1E0E8EFF1E01D923197ED
:102E9000E9F71092CB048091CC04833508F483E5E4
:102EA0008093CC041092CD048091CE048F3208F42C
:102EB0008FE28093CE041092B5041092B404109265
:102EC000B7041092B6046FE373E088EA94E00E94BE
:102ED000510E6DE373E088EA94E00E94510E6DE4B8
:102EE00073E088EA94E00E94510E6DE373E088EA93
:102EF00094E00E94510E6CE573E088EA94E00E9431
:102F0000510E6091FE037091FF0380910004909137
:102F100001040E94841988EA94E00E94290E68E660
:102F200073E088EA94E00E94510E6091F60370917C
:102F3000F7038091F8039091F9030E94841988EABD
:102F400094E00E94290E61E773E088EA94E00E9411
:102F5000510E6091D7047091D8048091D90490915A
:102F6000DA040E94841988EA94E00E94290E69E735
:102F700073E088EA94E00E94510E6091CF04709152
:102F8000D0048091D1049091D2040E94841988EADF
:102F900094E00E94290E0E94B90CEDEFF5E08491B7
:102FA000EBE1F6E0F491F983E9E3F6E0F491FD83D7
:102FB000FF2309F45BC081110E9457032D81E22F8A
:102FC000F0E0EE0FFF1FE85FF94FA591B4918C91EF
:102FD0003981382309F44AC06091FE037091FF03E0
:102FE00080910004909101040E94841987E094E08C
:102FF0000E94470E62E873E087E094E00E94510E61
:103000006091F6037091F7038091F8039091F903B2
:103010000E94841987E094E00E94470E62E873E002
:1030200087E094E00E94510E6091D7047091D8041B
:103030008091D9049091DA040E94841987E094E089
:103040000E94470E62E873E087E094E00E94510E10
:103050006091CF047091D0048091D1049091D204FA
:103060000E94841987E094E00E94290E40E050E01D
:10307000452B09F449CC0E94C305882309F444CCAC
:103080000E94000041CC60E081CE052E97FB1EF42B
:1030900000940E945C1857FD07D00E946F1807FC2F
:1030A00003D04EF40C945C185095409530952195C2
:1030B0003F4F4F4F5F4F0895909580957095619564
:1030C0007F4F8F4F9F4F08950E949118A59F900D9D
:1030D000B49F900DA49F800D911D11240895A1E22D
:1030E0001A2EAA1BBB1BFD010DC0AA1FBB1FEE1F82
:1030F000FF1FA217B307E407F50720F0A21BB30BCD
:10310000E40BF50B661F771F881F991F1A9469F748
:1031100060957095809590959B01AC01BD01CF01A4
:103120000895A29FB001B39FC001A39F700D811DA0
:103130001124911DB29F700D811D1124911D0895C0
:103140005058BB27AA270E94B8180C94321A0E9424
:10315000241A38F00E942B1A20F039F49F3F19F4FA
:1031600026F40C94211A0EF4E095E7FB0C941B1A3C
:10317000E92F0E94431A58F3BA17620773078407AE
:10318000950720F079F4A6F50C94651A0EF4E095F5
:103190000B2EBA2FA02D0B01B90190010C01CA0111
:1031A000A0011124FF27591B99F0593F50F4503EBC
:1031B00068F11A16F040A22F232F342F4427585FAE
:1031C000F3CF469537952795A795F0405395C9F7C6
:1031D0007EF41F16BA0B620B730B840BBAF091507E
:1031E000A1F0FF0FBB1F661F771F881FC2F70EC01D
:1031F000BA0F621F731F841F48F4879577956795F0
:10320000B795F7959E3F08F0B0CF9395880F08F0DB
:103210009927EE0F9795879508950E94F71908F45E
:1032200081E008950E9426190C94321A0E942B1AEC
:1032300058F00E94241A40F029F45F3F29F00C94C2
:103240001B1A51110C94661A0C94211A0E94431AED
:1032500068F39923B1F3552391F3951B550BBB27C5
:10326000AA2762177307840738F09F5F5F4F220F0A
:10327000331F441FAA1FA9F335D00E2E3AF0E0E801
:1032800032D091505040E695001CCAF72BD0FE2F4B
:1032900029D0660F771F881FBB1F261737074807DF
:1032A000AB07B0E809F0BB0B802DBF01FF27935897
:1032B0005F4F3AF09E3F510578F00C941B1A0C9426
:1032C000661A5F3FE4F3983ED4F386957795679549
:1032D000B795F7959F5FC9F7880F911D96958795CC
:1032E00097F90895E1E0660F771F881FBB1F6217EB
:1032F00073078407BA0720F0621B730B840BBA0BA9
:10330000EE1F88F7E09508950E948B196894B1111B
:103310000C94661A08950E944B1A88F09F5798F0F3
:10332000B92F9927B751B0F0E1F0660F771F881FCA
:10333000991F1AF0BA95C9F714C0B13091F00E94E4
:10334000651AB1E008950C94651A672F782F8827C5
:10335000B85F39F0B93FCCF3869577956795B3950B
:10336000D9F73EF490958095709561957F4F8F4F7A
:103370009F4F0895E89409C097FB3EF4909580957F
:10338000709561957F4F8F4F9F4F9923A9F0F92F2B
:1033900096E9BB279395F695879577956795B795A9
:1033A000F111F8CFFAF4BB0F11F460FF1BC06F5F8F
:1033B0007F4F8F4F9F4F16C0882311F096E911C0A1
:1033C000772321F09EE8872F762F05C0662371F0C2
:1033D00096E8862F70E060E02AF09A95660F771FD6
:1033E000881FDAF7880F9695879597F90895990FB2
:1033F0000008550FAA0BE0E8FEEF16161706E807BF
:10340000F907C0F012161306E407F50798F0621BDF
:10341000730B840B950B39F40A2661F0232B242BB4
:10342000252B21F408950A2609F4A140A6958FEFD3
:10343000811D811D089597F99F6780E870E060E025
:1034400008959FEF80EC089500240A94161617063D
:1034500018060906089500240A9412161306140685
:1034600005060895092E0394000C11F4882352F0E8
:10347000BB0F40F4BF2B11F460FF04C06F5F7F4FA0
:103480008F4F9F4F089557FD9058440F551F59F087
:103490005F3F71F04795880F97FB991F61F09F3F41
:1034A00079F087950895121613061406551FF2CF6A
:1034B0004695F1DF08C0161617061806991FF1CFBA
:1034C00086957105610508940895E894BB276627E1
:1034D0007727CB0197F908950E94F71908F48FEF29
:1034E000089516F00C94B81B0C94211A68940C944F
:1034F0001B1A0E944B1AA8F39923C1F3AEF3DF9372
:10350000CF931F930F93FF92C92FDD2788232AF0B3
:103510002197660F771F881FDAF720E030E040E838
:103520005FEB9FE3883920F0803E38F021968F775B
:103530000E94A118E8E6F0E004C00E94A118E5E9A5
:10354000F0E00E94C61B8B01BE01EC01FB2E6F5701
:1035500071097595771F880B990B0E94BC1928E19A
:1035600032E741E35FE30E94D41AAF2D9801AE0128
:10357000FF900F911F91CF91DF910E94B8180C948A
:10358000321A0E94D41A0C94321A0E94241A38F06B
:103590000E942B1A20F0952311F00C941B1A0C9406
:1035A000211A11240C94661A0E94431A70F3959FF5
:1035B000C1F3950F50E0551F629FF001729FBB272A
:1035C000F00DB11D639FAA27F00DB11DAA1F649FC6
:1035D0006627B00DA11D661F829F2227B00DA11D79
:1035E000621F739FB00DA11D621F839FA00D611DFF
:1035F000221F749F3327A00D611D231F849F600D20
:10360000211D822F762F6A2F11249F5750409AF048
:10361000F1F088234AF0EE0FFF1FBB1F661F771FD4
:10362000881F91505040A9F79E3F510580F00C949F
:103630001B1A0C94661A5F3FE4F3983ED4F3869508
:1036400077956795B795F795E7959F5FC1F7FE2B3F
:10365000880F911D9695879597F90895FA01EE0FB9
:10366000FF1F309621053105A1F16115710561F447
:103670008038BFE39B0749F168949038810561F079
:103680008038BFEF9B0741F099234AF5FF3FE105E2
:103690003105210519F1E8940894E795D901AA2389
:1036A00029F4AB2FBE2FF85FD0F310C0FF5F70F48A
:1036B000A695E0F7F73950F019F0FF3A38F49F7704
:1036C0009F930DD00F9007FC9058089546F00C94EE
:1036D000211A60E070E080E89FE308954FE79F774C
:1036E0005F934F933F932F930E94791A2F913F91AD
:1036F0004F915F910E94C11A0C94861B29F416F019
:103700000C941B1A0C94651A0C94211A0E944B1AE3
:10371000A8F39638A0F707F80F92E8942BE33AEA5B
:1037200048EB5FE70E94D71A0F920F920F924DB7A6
:103730005EB70F920E942F1CE2ECF0E00E94C61BC5
:103740004F915F91EF91FF91E595EE1FFF1F49F0BB
:10375000FE57E0684427EE0F441FFA95E1F74195C4
:10376000550B0E94F91B0F9007FE0C94ED1B08955A
:103770009F3F31F0915020F4879577956795B795E5
:10378000880F911D9695879597F90895DF93CF93AC
:103790001F930F93FF92EF92DF927B018C0168944D
:1037A00006C0DA2EEF010E94D41AFE01E894A5911A
:1037B0002591359145915591A6F3EF010E94B818D6
:1037C000FE019701A801DA9469F7DF90EF90FF906E
:1037D0000F911F91CF91DF9108959B01AC0160E0A3
:1037E00070E080E89FE30C9412190C941B1A0C945F
:1037F000B81B0E944B1AD8F39923C9F3940F511D9B
:10380000A3F39150504094F059F0882332F0660FA2
:10381000771F881F91505040C1F79E3F51052CF7EC
:10382000880F911D9695879597F908955F3FACF0A5
:10383000983E9CF0BB27869577956795B79508F4D9
:10384000B1609395C1F7BB0F58F711F460FFE8CF53
:103850006F5F7F4F8F4F9F4FE3CF0C94661AFA0133
:10386000DC01AA0FBB1F9B01AC01BF5728F4222724
:1038700033274427507820C0B75190F4AB2F002451
:10388000469537952795011CA395D2F3002071F03A
:10389000220F331F441FB395DAF30ED00C94A018F7
:1038A00061307105A0E88A07B94630F49B01AC018C
:1038B0006627772788279078309621F020833183F8
:1038C00042835383089597FB072E16F4009407D084
:1038D00077FD09D00E947E1C07FC05D03EF4909530
:1038E00081959F4F0895709561957F4F08950E942F
:1038F0009118B7FF0895821B930B0895AA1BBB1B59
:1039000051E107C0AA1FBB1FA617B70710F0A61BDF
:10391000B70B881F991F5A95A9F780959095BC0100
:10392000CD010895EE0FFF1F0590F491E02D09944D
:103930000F931F93CF93DF938230910510F482E0B1
:1039400090E0E0911905F0911A0530E020E0B0E038
:10395000A0E0309799F42115310509F44AC0281BDD
:10396000390B24303105D8F58A819B8161157105A9
:1039700089F1FB0193838283FE0111C04081518153
:103980000281138148175907E0F04817590799F445
:10399000109761F012960C93129713961C9332961F
:1039A000CF01DF91CF911F910F91089500931905D9
:1039B00010931A05F4CF2115310551F04217530722
:1039C00038F0A901DB019A01BD01DF01F801C1CF87
:1039D000EF01F9CF90931A0580931905CDCFFE0121
:1039E000E20FF31F81939193225031093983288389
:1039F000D7CF2091170530911805232B41F4209142
:103A0000FA023091FB02309318052093170520919C
:103A1000F8023091F9022115310541F42DB73EB776
:103A20004091FC025091FD02241B350BE0911705DB
:103A3000F0911805E217F307A0F42E1B3F0B28178F
:103A4000390778F0AC014E5F5F4F2417350748F017
:103A50004E0F5F1F50931805409317058193919364
:103A60009FCFF0E0E0E09CCFCF93DF930097E9F0A9
:103A7000FC01329713821282A0911905B0911A05A8
:103A8000ED0130E020E01097A1F420813181820F18
:103A9000931F20911705309118052817390709F051
:103AA00061C0F0931805E0931705DF91CF91089559
:103AB000EA01CE17DF07E8F54A815B819E014115D7
:103AC0005105B1F7E901FB83EA8349915991C40F8C
:103AD000D51FEC17FD0761F4808191810296840F58
:103AE000951FE90199838883828193819B838A83CF
:103AF000F0E0E0E012968D919C9113970097B9F554
:103B00002D913C911197CD010296820F931F209128
:103B10001705309118052817390739F6309751F5F0
:103B200010921A0510921905B0931805A093170565
:103B3000BCCFD383C28340815181840F951FC817A6
:103B4000D90761F44E5F5F4F88819981480F591FF3
:103B5000518340838A819B81938382832115310520
:103B600009F0B0CFF0931A05E09319059ECFFD013F
:103B7000DC01C0CF13821282D7CF81E090E0F894AD
:083B80000C94C21DF894FFCF64
:103B8800000000000000000000000000000000002D
:103B9800000000000000000000000000000000001D
:103BA800000000000000C0E0F0F8FCFCFEFFFCE0B4
:103BB80000000000000000000000000000000000FD
:103BC80000000000000000000000000000000000ED
:103BD80000000000000000000000000000000000DD
:103BE8000000000000F8F8F8F8F8F8F8F8F8F8F825
:103BF800F8F0F0E0E0C080C0FCFFFFFFFF7F3F7FF0
:103C0800FFFFFFFFFF0000000000000000000000B1
:103C1800000000000000000000000000000000009C
:103C2800000000000000000000000000000000008C
:103C3800000000000000000000000F1F3F7FFFFF92
:103C4800FFFFFFFFFFFFE7C7C7878F9F9FFFFFFFAC
:103C5800C1C0E0FCFFFFFFFFFFFCFCFCFCFEFEFE1A
:103C6800FCFCF8F8F0E0C0C0000000000000000014
:103C7800000000000000000000000000000000003C
:103C8800000000000000000000000000000000002C
:103C98000080C0E0F1FBFFFFFFFFFF7F1F0F0F87D2
:103CA800E7FFFFFF1F1F3FF9F8F8F8F8F8F8FDFFE6
:103CB800FFFFFFFFFFFFFFFF7F3F0F07010000002F
:103CC80000000000000000000000000000000000EC
:103CD80000000000000000000000000000000000DC
:103CE800000000F0FEFFFFFFFFFFFFFFFFFFFFFEEA
:103CF8007E3F3F0F1FFFFFFFFCF0E0F1FFFFFFFFDC
:103D0800FFFCF001010101010101010000000000B8
:103D1800000000000000000000000000000000009B
:103D2800000000000000000000000000000000008B
:103D38000000000000000003030303030303030162
:103D480001010100000000000000030F1F3F7F7FFA
:103D5800FFFFFFFF7F7F1F0300000000000000003F
:103D6800000000000000000000000000000000004B
:103D7800000000000000000000001B05800000009B
:103D88000000F905590586054606B7059505A905F4
:103D980000000000F2085905A00D9F0D2F0D8D069B
:103DA800970B6F0B8B0B7F0B9E0B8D06B8061E0DAA
:103DB800360BFD0AB80A9B0A230AC4090D0A0044F7
:103DC80061746F73206D656469646F73002D2D2DA8
:103DD8002D2D2D2D2D2D2D2D2D2D2D0048756D655D
:103DE8006461642825293A00436F6E74726F6C3AD7
:103DF8000054656D705F733A0054656D705F6F7045
:043E08003A002C0050
:00000001FF
