:020000040000FA
:100000000C9423030C944B030C944B030C944B0360
:100010000C944B030C944B030C944B030C944B0328
:100020000C944B030C944B030C944B030C944B0318
:100030000C944B030C944B030C944B030C944B0308
:100040000C94C80E0C944B030C94380F0C94120FA4
:100050000C944B030C944B030C944B030C944B03E8
:100060000C946A0F0C944B0308000000BE922449C4
:10007000123EABAAAA2ABECDCCCC4C3E00000080DA
:10008000BEABAAAAAA3E00000000BF000000803F4D
:100090000000000000084178D3BB4387D1133D190D
:1000A0000E3CC3BD4282AD2B3E68EC8276BED98F3A
:1000B000E1A93E4C80EFFFBE01C4FF7F3F0000007E
:1000C000000007634236B79BD8A71A39685618AEA6
:1000D000BAAB558C1D3CB7CC5763BD6DEDFD753E7D
:1000E000F6177231BF000000803F00000000003EA4
:1000F0005B4F5B3E3E6B4F6B3E1C3E7C3E1C183C98
:100100007E3C181C577D571C1C5E7F5E1C00183CF3
:100110001800FFE7C3E7FF0018241800FFE7DBE73C
:10012000FF30483A060E2629792926407F05050723
:10013000407F05253F5A3CE73C5A7F3E1C1C08087F
:100140001C1C3E7F14227F22145F5F005F5F060944
:100150007F017F006689956A606060606094A2FF9D
:10016000A29408047E040810207E201008082A1C8F
:1001700008081C2A08081E101010100C1E0C1E0C5B
:1001800030383E3830060E3E0E06000000000000FB
:10019000005F00000007000700147F147F14242A6A
:1001A0007F2A12231308646236495620500008073C
:1001B0000300001C2241000041221C002A1C7F1C5D
:1001C0002A08083E0808008070300008080808085F
:1001D000000060600020100804023E5149453E00C6
:1001E000427F400072494949462141494D33181424
:1001F000127F1027454545393C4A49493141211173
:1002000009073649494936464949291E0000140064
:100210000000403400000008142241141414141487
:10022000004122140802015909063E415D594E7CE5
:100230001211127C7F494949363E414141227F419A
:1002400041413E7F494949417F090909013E4141F8
:1002500051737F0808087F00417F41002040413FE3
:10026000017F081422417F404040407F021C027FF2
:100270007F0408107F3E4141413E7F090909063E47
:100280004151215E7F091929462649494932030116
:100290007F01033F4040403F1F2040201F3F403828
:1002A000403F631408146303047804036159494D03
:1002B00043007F4141410204081020004141417F39
:1002C00004020102044040404040000307080020AF
:1002D000545478407F2844443838444444283844AF
:1002E00044287F385454541800087E090218A4A4E6
:1002F0009C787F0804047800447D40002040403D05
:10030000007F1028440000417F40007C047804787E
:100310007C080404783844444438FC182424181811
:10032000242418FC7C08040408485454542404046D
:100330003F44243C4040207C1C2040201C3C40305A
:10034000403C44281028444C9090907C4464544C89
:1003500044000836410000007700000041360800E4
:1003600002010204023C2623263C1EA1A161123A8E
:100370004040207A385454555921555579412254DA
:10038000547842215554784020545579400C1E52DF
:100390007212395555555939545454593955545484
:1003A000580000457C410002457D420001457C40EB
:1003B0007D1211127DF0282528F07C54554500202F
:1003C00054547C547C0A097F4932494949323A44A1
:1003D00044443A324A4848303A4141217A3A42400C
:1003E0002078009DA0A07D3D4242423D3D404040DE
:1003F0003D3C24FF2424487E4943662B2FFC2F2BB1
:10040000FF0929F620C0887E090320545479410051
:1004100000447D413048484A32384040227A007AD0
:100420000A0A727D0D19317D2629292F28262929AE
:10043000292630484D4020380808080808080808D0
:10044000382F10C8ACBA2F102834FA00007B0000F7
:1004500008142A142222142A14085500550055AAFB
:1004600055AA55AAFF55FF55FF000000FF001010C8
:1004700010FF00141414FF001010FF00FF1010F004
:1004800010F0141414FC001414F700FF0000FF0017
:10049000FF1414F404FC141417101F10101F101F65
:1004A0001414141F00101010F0000000001F101092
:1004B00010101F10101010F010000000FF1010108E
:1004C000101010101010FF10000000FF140000FFAB
:1004D00000FF00001F10170000FC04F41414171094
:1004E000171414F404F40000FF00F7141414141487
:1004F0001414F700F7141414171410101F101F14FD
:100500001414F4141010F010F000001F101F00005D
:10051000001F14000000FC140000F010F01010FF89
:1005200010FF141414FF141010101F00000000F02E
:1005300010FFFFFFFFFFF0F0F0F0F0FFFFFF000003
:10054000000000FFFF0F0F0F0F0F3844443844FC2A
:100550004A4A4A347E02020606027E027E02635541
:100560004941633844443C04407E201E2006027EFC
:10057000020299A5E7A5991C2A492A1C4C7201720E
:100580004C304A4D4D303048784830BC625A463D78
:100590003E494949007E0101017E2A2A2A2A2A442D
:1005A000445F444440514A444040444A5140000062
:1005B000FF0103E080FF000008086B6B083612366D
:1005C0002436060F090F060000181800000010104E
:1005D000003040FF0101001F01011E00191D17120C
:1005E000003C3C3C3C0000000000000000002400F7
:1005F00027002A0000000008000201000003040791
:1006000000000000000000000000000023002600A1
:100610002900010204081020408001020408102073
:1006200001020408102000000000250028002B0013
:100630000404040404040404020202020202030388
:1006400003030303851011241FBECFEFD8E0DEBFE4
:10065000CDBF13E0A0E0B1E0E8E5FBE302C0059008
:100660000D92A438B107D9F725E0A4E8B3E001C0A2
:100670001D92A731B207E1F713E0C3E2D3E004C053
:100680002197FE010E947A1CC232D107C9F70E944D
:10069000B1110C94AA1D0C940000FC0120812EBD08
:1006A0000DB407FEFDCF2EB5FC01208308958330E5
:1006B00081F028F4813099F08230A9F008958730D4
:1006C000A9F08830C9F08430B1F4809180008F7D2A
:1006D00003C0809180008F7780938000089584B557
:1006E0008F7784BD089584B58F7DFBCF8091B00056
:1006F0008F778093B00008958091B0008F7DF9CFFF
:100700001F93CF93DF93282F30E0F901EC50FA4F7D
:100710008491F901EE5EF94FD491F901E05DF94F52
:10072000C491CC23A9F0162F81110E945703EC2FFE
:10073000F0E0EE0FFF1FEA5DF94FA591B4918FB77E
:10074000F894EC91111108C0D095DE23DC938FBF93
:10075000DF91CF911F910895DE2BF8CFCF93DF93D8
:1007600090E0FC01EE5EF94F2491805D994FFC0111
:1007700084918823D1F090E0880F991FFC01E65105
:10078000FA4FA591B491FC01EA5DF94FC591D4915E
:1007900061110EC09FB7F8948C91E22FE0958E23E3
:1007A0008C932881E223E8839FBFDF91CF91089546
:1007B0008FB7F894EC91E22BEC938FBFF6CF8E506D
:1007C000806480937C0080917A00806480937A00BA
:1007D00080917A0086FDFCCF80917800909179001D
:1007E00008958230910538F0880F991F880F991F5E
:1007F00005970197F1F708959F92AF92BF92CF921C
:10080000DF92EF92FF920F931F93CF93DF93EC0150
:100810006B018885998511E0892B09F010E8F601B4
:10082000A0808A2D8123992493948111912C2C816D
:100830003D814E815F8160E271EA87E090E00E9435
:100840005718022FB12CE22EF12C002319F0C7010A
:100850000E94F1038A85877F09F04FC08D858F3F05
:1008600089F09A2D912381E009F480E0891551F0F7
:10087000EF85F8898F899923D1F19081892B808325
:1008800099249394E989FA898081998D892B8083B1
:10089000002319F0C7010E94F1038E858F3F39F0C4
:1008A000EB89FC898081988D892309F0B12AE98937
:1008B000FA899081898D8095892380838E858F3FE9
:1008C00011F0F601B08288859985892B09F044C022
:1008D000110F1111BACFDF91CF911F910F91FF909E
:1008E000EF90DF90CF90BF90AF909F900895908150
:1008F000809589238083912CC5CFE989FA898081ED
:10090000998D892B8083002319F0C7010E94F10380
:100910008D858F3F49F0EF85F8898F899A2D912336
:10092000B9F09081892B8083E989FA899081898D3A
:100930008095892380838E858F3F09F4BFCFEB8913
:10094000FC898081988D892309F4B8CFB12AB6CF6C
:10095000908180958923E7CF1695BBCFAF92BF9248
:10096000CF92DF92EF92FF920F931F93CF93DF937B
:100970001F92CDB7DEB78C015B016A01DC018D915E
:100980009C911197892B39F01296ED91FC919081F1
:1009900081819CBD8DBDF80183858F3F19F060E09A
:1009A0000E9480037501CA0CDB1CCE14DF04A9F081
:1009B000D7018D917D018983F80180819181892BF7
:1009C00029F0CE0101960E944D03EFCFBE016F5F6B
:1009D0007F4FC8010E94FC03E8CFD8011B968C9181
:1009E0008F3F19F061E00E94800381E00F90DF915A
:1009F000CF911F910F91FF90EF90DF90CF90BF901C
:100A0000AF9008953FB7F8948091FF039091000450
:100A1000A0910104B091020426B5A89B05C02F3F08
:100A200019F00196A11DB11D3FBFBA2FA92F982F14
:100A30008827BC01CD01620F711D811D911D42E00F
:100A4000660F771F881F991F4A95D1F708958F92D7
:100A50009F92AF92BF92CF92DF92EF92FF924B01A3
:100A60005C010E9402056B017C010E9402056C1969
:100A70007D098E099F09683E734081059105A8F3A1
:100A800021E0821A9108A108B10888EEC80E83E01F
:100A9000D81EE11CF11C81149104A104B10429F7B2
:100AA000FF90EF90DF90CF90BF90AF909F908F908E
:100AB0000895AF92BF92CF92DF92EF92FF920F9381
:100AC0001F93CF93DF936C017B018B01040F151FE4
:100AD000EB015E01AE18BF08C017D10759F069914C
:100AE000D601ED91FC910190F081E02DC6010995B0
:100AF000892B79F7C501DF91CF911F910F91FF905D
:100B0000EF90DF90CF90BF90AF900895FC01538D90
:100B1000448D252F30E0842F90E0821B930B5417D7
:100B200010F0CF96089501970895FC01918D828D64
:100B3000981761F0A28DAE0FBF2FB11D5D968C91FD
:100B4000928D9F5F9F73928F90E008958FEF9FEF3C
:100B50000895FC01918D828D981731F0828DE80FF8
:100B6000F11D858D90E008958FEF9FEF0895FC01B2
:100B7000918D228D892F90E0805C9F4F821B91097F
:100B80008F739927089583E094E00E94B70521E0D0
:100B9000892B09F420E0822F089580E090E0892BD2
:100BA00029F00E94C30581110C9400000895FC01F6
:100BB000A48DA80FB92FB11DA35ABF4F2C91848DBE
:100BC00090E001968F739927848FA689B7892C931B
:100BD000A089B1898C91837080648C93938D848D6E
:100BE000981306C00288F389E02D80818F7D808371
:100BF0000895EF92FF920F931F93CF93DF93EC0131
:100C000081E0888F9B8D8C8D98131AC0E889F989B3
:100C1000808185FF15C09FB7F894EE89FF896083B6
:100C2000E889F98980818370806480839FBF81E037
:100C300090E0DF91CF911F910F91FF90EF90089579
:100C4000F62E0B8D10E00F5F1F4F0F731127E02E54
:100C50008C8D8E110CC00FB607FCFACFE889F9898C
:100C6000808185FFF5CFCE010E94D705F1CFEB8DB6
:100C7000EC0FFD2FF11DE35AFF4FF0829FB7F89460
:100C80000B8FEA89FB8980818062CFCFCF93DF937E
:100C9000EC01888D8823B9F0AA89BB89E889F98994
:100CA0008C9185FD03C0808186FD0DC00FB607FCC9
:100CB000F7CF8C9185FFF2CF808185FFEDCFCE01FC
:100CC0000E94D705E9CFDF91CF9108952091AB0322
:100CD000260F3327331F21323105ECF42091CF0347
:100CE000FC0190E080E0243069F082E00895A0915A
:100CF000AB032191AC0145575C4FA40FB52FB11D3B
:100D00002C930196861798F38091AB03680F60933C
:100D1000AB0380E0089581E0089508958FEF9FEF81
:100D200008958FEF9FEF08958091840390E091954F
:100D3000819591090895CF93DF93CB01EA01642F48
:100D40000E946606CE01DF91CF910895CF93DF9385
:100D50001F92CDB7DEB7698361E0CE0101960E9494
:100D6000660681E090E00F90DF91CF91089508959D
:100D7000FC016370668B84819581268137816130A7
:100D800039F0633029F0918780873387228708956F
:100D9000318720879387828708952F923F924F92C1
:100DA0005F926F927F928F929F92AF92BF92CF92FB
:100DB000DF92EF92FF920F931F93CF93DF93CDB704
:100DC000DEB76A970FB6F894DEBF0FBECDBF9A8F1D
:100DD000898F7A8369834A01D22E18870F8337015E
:100DE000BC2CDC0159962D913C915A972115310567
:100DF00009F015C118968D919C911997681779077C
:100E00000CF0D7C11A968D919C91481759070CF098
:100E1000D0C14C2C512CB6E0CB9E600D711D11241D
:100E20007C876B87161617060CF0C3C1EA2DF0E01D
:100E3000FA87E98793E0EE0FFF1F9A95E1F7F88BA9
:100E4000EF87CF01840F951F181619060CF0B1C15A
:100E5000A98DBA8D58968C91811104C0BFEABD1539
:100E600008F4D394A98DBA8DED91FC911197028469
:100E7000F385E02DCD010995B5E0DB9EC00111247D
:100E8000E981FA81FC83EB83312C212C9C012651D2
:100E90003F4F388F2F8B4A2D50E05E8B4D8BEF8963
:100EA000F88DE20DF31D44919E828D82D12CC12CD0
:100EB00069817A81620D731D7A8B698B842F90E032
:100EC0009C8B8B8BE98DFA8DA081B18140FF82C014
:100ED000F1E0BF126FC0AF126DC01C96ED91FC9196
:100EE0002F813885A4014C0D5D1D69897A89898D12
:100EF0009A8D0995EB89FC89F595E7954E2F5FEF63
:100F0000C51AD50A6D817E818D899E89680F791FEA
:100F10007E836D8398E0C916D10481F6AFEF2A1A5B
:100F20003A0AEB81FC81E40DF51DFC83EB83F5E0CF
:100F30002F16310409F0B3CF2F81388526153705D8
:100F4000B9F0A98DBA8DED91FC91B1E0BB1257C0FB
:100F5000AB1255C069817A816B5F7F4F0088F18940
:100F6000E02D830128E030E0A401898D9A8D099558
:100F7000A98DBA8DED91FC9111970688F789E02D26
:100F8000CD016A960FB6F894DEBF0FBECDBFDF91DC
:100F9000CF911F910F91FF90EF90DF90CF90BF9076
:100FA000AF909F908F907F906F905F904F903F9009
:100FB0002F9009941E96ED91FC91EF80F88409859D
:100FC0001A8592014D815E816B817C81898D9A8D1C
:100FD000099590CF2F8138852615370509F48ACFDA
:100FE00031E0B31207C0A31205C01C96ED91FC912D
:100FF000930178CF1E96ED91FC917301E0CF6B8544
:101000007C85641975090684F785E02D73010F85C9
:1010100018899201A401898D9A8D0995A9CFF901AA
:1010200034969491329745915491D91AB7E0DB9E4A
:10103000400D511D1124F901259134913C8B2B8BCE
:10104000FA0125903490FA013296749031963491D9
:10105000398B329664903196449041E04C1518F0EB
:101060004A1508F07FC0662D062C000C770B7C8398
:101070006B83842D042C000C990B9E838D83A98D8A
:10108000BA8DED91FC9111970284F385E02DCD018D
:101090000995512CD12CC12CEA2DF0E0FA87E98773
:1010A0002B2D30E03C872B87A401440D511D47FCBC
:1010B0005A95588F4F8B69817A81660D711D67FC37
:1010C0007A957E876D877989C71608F051CF2C2DC8
:1010D00030E04D815E81420F531FA985BA854A9F3A
:1010E000C0014B9F900D5A9F900D1124FC01E80DFB
:1010F000F91DF88BEF87852D612C4F89588D420F94
:10110000531F5E8B4D8B671408F050C044244394EA
:10111000480E877041F4C1010196EB89FC89E20D0C
:10112000F31DD4901C01D7FE19C0A98DBA8DED9185
:10113000FC91662D70E0B1E0BB1219C0AB1217C074
:101140002D853E85620F731F0484F585E02D2F8168
:1011500038854D895E89898D9A8D0995DD0C63945A
:10116000842DD1CF1E821D821C821B8288CF4B8191
:101170005C81640F751FAB85BC856A9FC0016B9F46
:10118000900D7A9F900D112469817A81680F791FE3
:101190000684F785E02DEF80F88409851A859D0186
:1011A0004F855889898D9A8D0995D8CF570CC3944E
:1011B0008ACF6A960FB6F894DEBF0FBECDBFDF911F
:1011C000CF911F910F91FF90EF90DF90CF90BF9044
:1011D000AF909F908F907F906F905F904F903F90D7
:1011E0002F9008958F929F92AF92CF92EF92FF929D
:1011F0000F931F93CF93DF93EC01262F898D9A8D48
:10120000009709F051C06A30D1F41D861C868D8983
:1012100048E0849F900111248E859F85820F931F43
:101220009F878E8781E090E0DF91CF911F910F9192
:10123000FF90EF90CF90AF909F908F9008956D307A
:1012400089F3CC88AD888F898823C1F08C859D85F2
:1012500036E0C39E800D911D11244885598548179D
:10126000590764F44E855F851D861C8638E0A39E71
:10127000C0011124840F951F9F878E87EA88FB8801
:10128000088919894E855F856C857D85CE010E9410
:10129000CD062C898C859D8546E0249F800D911D6F
:1012A00011249D878C87BECF6A3069F41D861C8609
:1012B000FC013896E4912D898E859F85E29F800DF3
:1012C000911D1124ADCF6D3009F4ACCFFC013496E3
:1012D0003491631708F4A6CF3296E491E61708F428
:1012E000A1CFFC01329685909490462F431B342F5A
:1012F00047E0349F800C911C1124F4013296349104
:101300003196E4913323A9F1EE2399F1CC88F401CD
:101310003596E491AD884F89442301F10E2E000CDF
:10132000FF0BE30FF11DCE9EA001CF9E500D1124A7
:101330006C857D85460F571F68857985641775070D
:101340006CF44E855F851D861C86FC013896E49101
:10135000AE9E400D511D11245F874E87EA88FB88A1
:10136000088919894E855F856C857D85CE010E942F
:10137000CD06F4013496E4912C898C859D85E29FFD
:10138000800D911D11248DCF6F927F928F929F922D
:10139000AF92BF92CF92DF92EF92FF920F931F9383
:1013A000CF93DF93EC016B015A0139014801E881C9
:1013B000F9810284F385E02D0995E881F98102889D
:1013C000F389E02D87019301A501B601CE010995AE
:1013D000A501480D591D41505109E881F981028844
:1013E000F389E02D9301B601CE010995E881F981D9
:1013F0000088F189E02D9401A501B601CE0109957F
:10140000C60CD71CB60161507109E881F9810088CA
:10141000F189E02D9401A501CE010995E881F981BA
:101420000688F789E02DCE01DF91CF911F910F91B2
:10143000FF90EF90DF90CF90BF90AF909F908F90F4
:101440007F906F9009946F927F928F929F92AF924C
:10145000BF92CF92DF92EF92FF920F931F93CF93A1
:10146000DF935C01EB016A01490138018701DC016E
:10147000ED91FC916217730719F5641675062CF04F
:10148000962D872D3A01C92ED82E96012619370997
:101490002F5F3F4F048CF58DE02DA301BE01C501E8
:1014A0000995DF91CF911F910F91FF90EF90DF9001
:1014B000CF90BF90AF909F908F907F906F90089546
:1014C0004615570591F42617370724F0892D4B014F
:1014D000C22FD82F9E01281939092F5F3F4F068C44
:1014E000F78DE02DA601B401DACF0284F385E02D5B
:1014F0000995D501ED91FC910488F589E02D8301D2
:101500009401A601BE01C5010995D501ED91FC919B
:101510000688F789E02DC501DF91CF911F910F91CA
:10152000FF90EF90DF90CF90BF90AF909F908F9003
:101530007F906F900994EF92FF920F931F93DC01BD
:101540001A960D911C911B9718962D913C91199705
:10155000ED91FC9100A0F1A1E02D7B0150E040E075
:1015600070E060E009951F910F91FF90EF90089552
:101570004F925F926F927F928F929F92AF92BF92A3
:10158000CF92DF92EF92FF920F931F93CF93DF934F
:101590006C012B015A0139014801DC01ED91FC91EC
:1015A0000284F385E02D0995E201640C751CD601D7
:1015B000ED91FC91C615D7055CF40088F189E02D0A
:1015C00087019401A501BE01C60109952196EFCFBF
:1015D0000688F789E02DC601DF91CF911F910F9109
:1015E000FF90EF90DF90CF90BF90AF909F908F9043
:1015F0007F906F905F904F9009948F929F92AF92DF
:10160000BF92CF92DF92EF92FF920F931F93CF93EF
:10161000DF93EC015B014A016901E881F9810284F1
:10162000F385E02D099595012C0D3D1D21503109C3
:10163000E881F9810488F589E02D78018401A4010D
:10164000B501CE010995E881F9810688F789E02D79
:10165000CE01DF91CF911F910F91FF90EF90DF901E
:10166000CF90BF90AF909F908F9009948F929F9250
:10167000AF92BF92CF92DF92EF92FF920F931F93A0
:10168000CF93DF93EC015B014A0169017801E881A6
:10169000F9810284F385E02D0995C80CD91C8601D7
:1016A00001501109E881F9810488F589E02D95013F
:1016B000A401B501CE010995E881F9810688F78971
:1016C000E02DCE01DF91CF911F910F91FF90EF9010
:1016D000DF90CF90BF90AF909F908F900994EF9242
:1016E000FF920F931F93DC01ED91FC9100A0F1A1FB
:1016F000E02D09951F910F91FF90EF9008950F93A2
:101700001F93DC01ED91FC91068CF78DE02D09957E
:101710001F910F9108950F931F93DC01ED91FC91A0
:10172000048CF58DE02D09951F910F910895DC0132
:10173000ED91FC910084F185E02D09942F923F9268
:101740004F925F926F927F928F929F92AF92BF92D1
:10175000CF92DF92EF92FF920F931F93CF93DF937D
:1017600000D000D000D0CDB7DEB73C016A013E8387
:101770002D83FC82EB825801A41AB50AB7FE03C080
:10178000B194A194B1088D809E80861A970A97FE25
:1017900003C09194819491088A149B045CF0902F6B
:1017A000812F0D811E819D838E839C2D8D2D6B013C
:1017B000692F782F0C151D055CF09D818E817E832D
:1017C0006D83692F782F902F812F8601C92ED82EF7
:1017D0001601201A310A2B012D813E81421A530A2B
:1017E00057FE03C0519441945108710137FE03C064
:1017F0003FEFE31AF30AF594E7948D819E818617F3
:1018000097075CF5A1E0B0E0BA83A983C016D106C2
:101810004CF1D301ED91FC910484F585E02D2B81F1
:101820003C81A8016D817E818A149B041CF04D814E
:101830005E81B801C3010995E418F508F7FE0AC0F6
:101840002D813E8189819A81280F391F3E832D8306
:10185000E20CF31C0F5F1F4FD9CF2FEF3FEF3A83FE
:101860002983D4CF26960FB6F894DEBF0FBECDBF26
:10187000DF91CF911F910F91FF90EF90DF90CF906C
:10188000BF90AF909F908F907F906F905F904F90A0
:101890003F902F9008950F931F93CF93DF931F9244
:1018A000CDB7DEB78C01698360E0FC01868D0E94B4
:1018B000800341E050E0BE016F5F7F4FF801838DF0
:1018C000948D0E94AE040F90DF91CF911F910F91E4
:1018D0000895CF938091C10487FD13C061E00E94F9
:1018E000AE0360E08091C1040E94800361E070E07B
:1018F00080E090E00E94270561E08091C1040E9491
:101900008003C091C404C83008F0C7E0C093C40489
:1019100061E284EA94E00E944B0C6C2F606184EADF
:1019200094E00E944B0C60E284EA94E00E944B0C2D
:10193000C091C304C7FDCFE7C093C30461E284EA4A
:1019400094E00E944B0C6C2F606884EA94E00E9443
:101950004B0C60E284EA94E00E944B0C60E284EA63
:1019600094E00E944B0C6CE084EA94E0CF910C94DC
:101970004B0CFF920F931F93CF93DF939091C5046D
:10198000992339F08091C6048F5F8917E8F5809319
:10199000C604D091C904D695D695D69584E5D89F2E
:1019A000800111248091CA048695869586958D17AD
:1019B00080F16D2F606484EA94E00E944B0CC0912A
:1019C000C704F090C8046C2F606884EA94E00E9419
:1019D0004B0C61E08091C2040E9480034F2D50E0C7
:1019E0006C2F70E0461B570B4F5F5F4F600F711FEE
:1019F00060507F4F8091BF049091C0040E94AE045C
:101A0000DF5F0C5A1F4FCECF1092C6040E94690CA4
:101A1000C0CF60E484EA94E00E944B0C83E580939D
:101A2000C7041092C8048FE28093C9041092CA04BC
:101A3000DF91CF911F910F91FF9008951F93CF9346
:101A4000DF93EC01162F60E20E944B0C6CE0111149
:101A50006DE0CE01DF91CF911F910C944B0CFC01F6
:101A600077FD55C080859185681779070CF04FC0C8
:101A700057FD4DC082859385481759070CF047C024
:101A80008689823009F444C0833009F44EC0813025
:101A900031F48FE290E0861B970BBA01AC01842FE2
:101AA000A62F93A1691708F4962F93A394A19A17D0
:101AB00008F49A2F94A395A1891708F4982F95A359
:101AC00096A1981708F4982F96A3CA0157FD079678
:101AD000E3E095958795EA95E1F7A4E5A89FF001E5
:101AE000A99FF00D1124E60FF71FE050FF4FCA0128
:101AF00068E070E00E944B1C41E050E001C0440FE0
:101B00008A95EAF78081232BB9F0842B808308958E
:101B100083E590E0DC01A61BB70BBD018FE290E0EE
:101B2000DC01A41BB50BAD01BACF83E590E0841BAB
:101B3000950BAB01BC01B3CF40958423E7CF08954B
:101B400090E080E008950E94A51DFB010190002017
:101B5000E9F73197AF01461B570BDC01ED91FC9182
:101B60000280F381E02D09948F929F92AF92BF92F1
:101B7000EF92FF920F931F93CF93DF93CDB7DEB712
:101B8000A1970FB6F894DEBF0FBECDBF7C01FA015E
:101B9000CB0119A2223008F42AE08E010F5D1F4FFD
:101BA000822E912CB12CA12CBF01A50194010E9481
:101BB0005718F901CA016A300CF5605DD8016E93BF
:101BC0008D01232B242B252B79F790E080E01097B3
:101BD00021F0BD01C7010E94A50DA1960FB6F89492
:101BE000DEBF0FBECDBFDF91CF911F910F91FF9050
:101BF000EF90BF90AF909F908F900895695CDECF7B
:101C0000CF92DF92EF92FF920F931F93CF93DF93C8
:101C1000EC016A017B01E881F9810190F081E02DFE
:101C20006DE209958C0144275527BA014C195D09CD
:101C30006E097F092AE0CE010E94B40D800F911F2A
:101C4000DF91CF911F910F91FF90EF90DF90CF9098
:101C500008950F931F93CF93DF93EC01AB01770FA0
:101C6000660B770B77FF0FC00E94000E8C016CE3B0
:101C700073E0CE010E94A50D800F911FDF91CF91DF
:101C80001F910F9108952AE00E94B40DEFCFAB0190
:101C9000770F660B770B77FD0C94000E2AE00C94FF
:101CA000B40D0C94A50D1F93CF93DF9385ED809316
:101CB000BC008091870390918803A0918903B09123
:101CC0008A030796A11DB11D23E0B695A7959795A8
:101CD00087952A95D1F72091BC0024FD03C010926E
:101CE000CF0352C0409187035091880360918903CC
:101CF00070918A03452B462B472B69F30097A1056A
:101D0000B10541F02AE22A95F1F700C00197A10937
:101D1000B109E1CF80918603C1E0C0938503882398
:101D200099F1D091B8001091BA008091BC008A7BE3
:101D30008093BC0060E082E10E94800360E083E168
:101D40000E9480031092CF03C093D1031092D0035E
:101D500061E082E10E94800361E083E10E948003F0
:101D60008091B9008E7F8093B9008091B9008D7FFA
:101D70008093B90088E48093B80085E48093BC0028
:101D80001093BA00D093B800DF91CF911F910895BE
:101D90001F920F920FB60F9211242F933F938F93A0
:101DA0009F93AF93BF938091A0049091A104A091C1
:101DB000A204B091A3043091FE0323E0230F2D373A
:101DC00058F50196A11DB11D2093FE038093A00438
:101DD0009093A104A093A204B093A3048091FF0365
:101DE00090910004A0910104B09102040196A11DFC
:101DF000B11D8093FF0390930004A0930104B0935E
:101E00000204BF91AF919F918F913F912F910F90BD
:101E10000FBE0F901F90189526E8230F0296A11D64
:101E2000B11DD2CF1F920F920FB60F9211242F9394
:101E30003F934F935F936F937F938F939F93AF9352
:101E4000BF93EF93FF9383E094E00E94D705FF9147
:101E5000EF91BF91AF919F918F917F916F915F9122
:101E60004F913F912F910F900FBE0F901F9018959B
:101E70001F920F920FB60F9211242F938F939F935F
:101E8000EF93FF93E0911304F09114048081E091AB
:101E90001904F0911A0482FD1BC0908180911C04EA
:101EA0008F5F8F7320911D04821741F0E0911C0415
:101EB000F0E0ED5FFB4F958F80931C04FF91EF9155
:101EC0009F918F912F910F900FBE0F901F9018959B
:101ED0008081F4CF1F920F920FB60F9211242F938F
:101EE0003F934F935F936F937F938F939F93AF93A2
:101EF000BF93EF93FF938091B900887F803609F4F8
:101F00004AC0F0F5883209F4A5C018F5803109F40B
:101F100099C0B8F4882309F4F5C0883009F492C058
:101F2000FF91EF91BF91AF919F918F917F916F91B1
:101F30005F914F913F912F910F900FBE0F901F9087
:101F40001895883109F486C0803251F78093CE030A
:101F500014C0803409F49BC040F48033B9F3883353
:101F6000F9F68093CE0385ECAEC0803509F483C0CA
:101F7000883509F494C0883499F60E94530ED0CF66
:101F8000883909F48AC038F5883729F050F4883642
:101F900011F0803729F683E08093CF031092CD03B0
:101FA00055C0883809F479C0803919F0803809F0B3
:101FB000B7CF8091CD03803208F06FC0E091CD03A0
:101FC00081E08E0F8093CD038091BB00F0E0E3555C
:101FD000FC4F80833BC0803B39F0D0F4803A09F459
:101FE00077C0883A09F09CCF84E08093CF031092A9
:101FF000AC031092AB03F0E0E0E009958091AB03F5
:1020000081110FC081E08093AB0310928B0309C054
:10201000803C09F4A8CF883C09F4A5CF883B09F09F
:102020007FCFE091AC0381E08E0F8093AC03F0E0B2
:10203000E557FC4F80818093BB009091AC03809169
:10204000AB0329C08091F4038093BB0085EC80939F
:10205000BC0066CF9091F3038091F203981758F576
:10206000E091F30381E08E0F8093F303F0E0EE52F2
:10207000FC4F8081E9CFE091F30381E08E0F8093E4
:10208000F3038091BB00F0E0EE52FC4F808390910F
:10209000F3038091F2039817C8F285E8D8CFE09156
:1020A000F30381E08E0F8093F3038091BB00F0E097
:1020B000EE52FC4F80838091D10381115ECF81E08D
:1020C0008093D00384EA8093BC001092CF0328CF82
:1020D00085EC8093BC001092CF038091CD038032B9
:1020E00030F4E091CD03F0E0E355FC4F10826091B5
:1020F000CD0370E08DEA93E0F0E0E0E00995109206
:10210000CD030ECF1092CE0338CFEF92FF920F93F4
:102110001F93CF93DF93E3E0F4E01382128288EE03
:1021200093E0A0E0B0E084839583A683B78382E048
:1021300093E09183808385EC90E09587848784EC9D
:1021400090E09787868780EC90E0918B808B81EC84
:1021500090E0938B828B82EC90E0958B848B86EC65
:1021600090E0978B868B118E128E138E148EE7ED76
:10217000F4E08FEC94E0978F868F83ED94E0958F59
:10218000848F8BEC94E091A380A312AE12AA13AAC1
:1021900014AA15AA80E090E0AFE7B3E486AB97AB52
:1021A000A0AFB1AF84E690E0A0E0B0E086A797A72B
:1021B000A0ABB1AB118E108EEE24E394F12CF38E14
:1021C000E28E81E083AF40E050E060E570E4408360
:1021D000518362837383148215821682178210865C
:1021E0001186128613864487558766877787108AFB
:1021F000118A128A138A148A158A168A178A9FB737
:10220000F8944091A0045091A1046091A2047091AF
:10221000A3049FBF06A517A520A931A9401B510BF8
:10222000620B730B42A353A364A375A3C4EAD4E067
:102230001B821A8244E550E05D834C8320E330E04A
:102240003F832E83598748873B872A871E8A1D86AE
:102250001C861F861E868D8B8C8B2FEF3FEF3B8B52
:102260002A8B398B288B8F8B188E1A8E198E84E1CE
:1022700093E0998388838CE190E00E94801C8C011C
:1022800085E0D8011B968C931B9782E01C968C935B
:102290001C978FEF1E968C931E9783E01D968C9350
:1022A0001D97E5E3F6E0E491F0E0EE0FFF1FEA5D35
:1022B000F94F85919491F801968B858BE7E1F6E0D3
:1022C000E4915A96EC935A97E3E3F6E0E491F0E058
:1022D000EE0FFF1FEA5DF94F85919491F801908B05
:1022E0008787E5E1F6E0E4915796EC935797E2E3B0
:1022F000F6E0E491F0E0EE0FFF1FEA5DF94F859103
:102300009491F801928B818BE4E1F6E0E491599687
:10231000EC9380E099E0ADE3B0E0F801848395832D
:10232000A683B783F186E0861286138E82E090E062
:102330000E94801C20E5DC012C9311961C92F80170
:1023400093838283118210821C8F0B8F84E08E8F87
:1023500086E08D8FDF91CF911F910F91FF90EF90CD
:102360000895CF93DF93CDB7DEB72E970FB6F894CD
:10237000DEBF0FBECDBF789484B5826084BD84B5C6
:10238000816084BD85B5826085BD85B5816085BD70
:1023900080916E00816080936E0010928100809128
:1023A00081008260809381008091810081608093B0
:1023B0008100809180008160809380008091B100D5
:1023C00084608093B1008091B00081608093B00000
:1023D00080917A00846080937A0080917A00826094
:1023E00080937A0080917A00816080937A00809156
:1023F0007A00806880937A001092C100E091130403
:10240000F091140482E08083E0910F04F0911004B5
:102410001082E0911104F09112048FEC80831092ED
:102420001B04E0911704F091180486E08083E0918A
:102430001504F0911604808180618083E091150479
:10244000F0911604808188608083E0911504F091FA
:102450001604808180688083E0911504F091160451
:1024600080818F7D808361E08CE00E94AE0361E01B
:102470008DE00E94AE0360E089E00E94AE032091EF
:10248000BF043091C0043A832983D9011B968C91F3
:102490008F3F49F061E00E94AE0361E0E981FA817B
:1024A00083850E948003A981BA818D919C91892B9B
:1024B00009F443C11FB7F8948091F503811127C037
:1024C000EAE3F6E08491ECE1F6E09491E82FF0E0A5
:1024D000EE0FFF1FE651FA4FA591B491EC91E9235D
:1024E00021F461E08AE00E94800361E08AE00E94BA
:1024F000AE038CB580618CBD8CB580648CBD61E011
:102500008DE00E94AE0361E08BE00E94AE038091FB
:10251000F5038F5F8093F5031FBF81E0E981FA81A6
:10252000838F61E08091C2040E94AE038091C10458
:1025300087FD03C061E00E94AE0384E08093C40481
:1025400088E28093C3041092C5041092C6040E94CE
:10255000690C1092C7048091C804833508F483E5A0
:102560008093C8041092C9048091CA048F3208F481
:102570008FE28093CA040E94B90C81E10E94DF03BC
:1025800024E630E0DC010E945F1C2FEF33E040E0E6
:1025900050E00E942D18CA01B9010E94A41960934D
:1025A000FA037093FB038093FC039093FD0380E197
:1025B0000E94DF03BC01990F880B990B0E94A4199C
:1025C00020E030E040EA50E40E94A91A20E030EC1C
:1025D0004FE754E40E94FA186B017C01AC019B01A7
:1025E00060E070E080EA90E40E94881820E030E427
:1025F0004CE156E40E94FA189B01AC01C701B601F8
:102600000E94FA180E94611A6B017C0120E030E000
:1026100040E450E40E94161B4B015C0126E039EBBC
:102620004BE859E3C701B6010E94A91A2FEB3AE320
:1026300048E55AE30E9489186B017C0121EF37E6D7
:1026400046EC53E3C501B4010E94A91A9B01AC01F9
:10265000C701B6010E9489189B01AC0160E070E0DF
:1026600080E89FE30E94FA1823E333E948E853E443
:102670000E9488186093D3047093D4048093D50487
:102680009093D60482E10E94DF032CE030E0DC016D
:102690000E945F1C24EF33E040E050E00E942D18C0
:1026A000CA01B901625E7F4F8F4F9F4F0E94A419EC
:1026B0006093CB047093CC048093CD049093CE04AC
:1026C0008091110581117AC0E091F504F091F60432
:1026D000C080D180E280F380C092FD04D092FE04DD
:1026E000E092FF04F0920005E091F304F091F4040D
:1026F00080819181A281B38180930105909302052D
:10270000A0930305B093040580900D0590900E05ED
:10271000A0900F05B0901005A5019401C701B60166
:102720000E94541A1816D4F58092FD049092FE046B
:10273000A092FF04B092000541C061E0E981FA81F6
:1027400084850E94AE03A981BA811A968C911A974A
:102750008B7FF9F460E01C968C910E948003A98124
:10276000BA811D968C918F3F49F061E00E94AE03C3
:1027700061E0E981FA8185850E948003A981BA819F
:102780001E968C918F3F09F4C8CE60E00E94AE0384
:10279000C4CE61E0E981FA818485DFCF80900905AC
:1027A00090900A05A0900B05B0900C05A50194012E
:1027B000C701B6010E94F51887FDB6CF81E080936E
:1027C00011052091F1043091F2042130310509F016
:1027D00080E080931205812C912C90E5A92E90E445
:1027E000B92E8092D7049092D804A092D904B092C6
:1027F000DA041092DB041092DC041092DD041092D3
:10280000DE041092DF041092E0041092E1041092B2
:10281000E20460910505709106058091070590918D
:1028200008050E94A21920E030E04AE754E40E9423
:10283000FA186B017C018092E3049092E404A09268
:10284000E504B092E60420E030E0A9010E94A91A54
:102850004B015C018092E7049092E804A092E904A5
:10286000B092EA04A701960160E070E0CB010E94FB
:10287000FA186B017C01C092EB04D092EC04E09258
:10288000ED04F092EE048091EF049091F004019732
:1028900051F580E090E0A0E5B0EC8093E3049093E4
:1028A000E404A093E504B093E604A501940160E07C
:1028B00070E0CB010E9488186093E7047093E804ED
:1028C0008093E9049093EA04A701960160E070E028
:1028D000CB010E9488186093EB047093EC04809302
:1028E000ED049093EE0481E10E94DF0324E630E0E2
:1028F000DC010E945F1C2FEF33E040E050E00E94BB
:102900002D18CA01B9010E94A4196093FA037093AB
:10291000FB038093FC039093FD0380E10E94DF039F
:10292000BC01990F880B990B0E94A41920E030E09C
:1029300040EA50E40E94A91A20E030EC4FE754E44A
:102940000E94FA186B017C01AC019B0160E070E011
:1029500080EA90E40E94881820E030E44CE156E4DC
:102960000E94FA189B01AC01C701B6010E94FA1837
:102970000E94611A6B017C0120E030E040E450E4E9
:102980000E94161B4B015C0126E039EB4BE859E332
:10299000C701B6010E94A91A2FEB3AE348E55AE3B2
:1029A0000E9489186B017C0121EF37E646EC53E366
:1029B000C501B4010E94A91A9B01AC01C701B6016F
:1029C0000E9489189B01AC0160E070E080E89FE301
:1029D0000E94FA1823E333E948E853E40E94881878
:1029E0006093D3047093D4048093D5049093D60459
:1029F00082E10E94DF032CE030E0DC010E945F1CDA
:102A000024EF33E040E050E00E942D18CA01B901E4
:102A1000625E7F4F8F4F9F4F0E94A4196093CB043B
:102A20007093CC048093CD049093CE0464E670E060
:102A300080E090E00E94270580911105882309F429
:102A40002FC18FB7F8942091A0043091A104409138
:102A5000A2045091A30429873A874B875C878FBFD4
:102A60008091F9049091FA04A091FB04B091FC04C8
:102A700049855A856B857C85481B590B6A0B7B0BF6
:102A80008091050590910605A0910705B091080574
:102A9000481759076A077B0708F402C1E091F3045D
:102AA000F091F4044080518062807380E091F704DB
:102AB000F091F804A3019201608171818281938178
:102AC0000E9488186B017C0120910105309102055C
:102AD0004091030550910405C301B2010E9488187A
:102AE00069837A838B839C832091E7043091E80487
:102AF0004091E9045091EA04C701B6010E94A91A65
:102B00002091FD043091FE044091FF045091000596
:102B10000E9489184B015C018092FD049092FE0492
:102B2000A092FF04B09200053090120531101CC035
:102B30002091E3043091E4044091E5045091E604CF
:102B400069817A818B819C810E94A91A9B01AC01C9
:102B5000C501B4010E9488186093FD047093FE04BF
:102B60008093FF04909300058091FD049091FE04F2
:102B7000A091FF04B09100058D839E83AF83B88739
:102B800000910D0510910E0590910F059E87A09163
:102B90001005AD879801492F5A2F6D817E818F8155
:102BA00098850E94541A18160CF0DEC0C801AE8534
:102BB000BD858093FD049093FE04A093FF04B09321
:102BC0000005332009F4EBC02091E3043091E404C4
:102BD0004091E5045091E604C701B6010E94A91A8C
:102BE0006B017C012091EB043091EC044091ED04E9
:102BF0005091EE0469817A818B819C810E94A91A8F
:102C00009B01AC016091FD047091FE048091FF0472
:102C1000909100050E948818A70196010E948918CA
:102C20006B017C019B01AC01B8018E859D850E94E2
:102C3000F51887FD16C00091090510910A05B0919D
:102C40000B05BE87E0910C05ED8798014B2F5E2F99
:102C5000B601C7010E94F51887FD03C08601EE8604
:102C6000FD86E091F504F091F604C801AE85BD85BE
:102C700080839183A283B383409201055092020521
:102C8000609203057092040529853A854B855C8521
:102C90002093F9043093FA044093FB045093FC040E
:102CA000C090CF04D090D004E090D104F090D20432
:102CB000C701B6010E946C199B01AC01A0E5B0E010
:102CC0000E944C182FEF30E040E050E00E942D1899
:102CD000CA01B9010E94A4196093F6037093F70327
:102CE0008093F8039093F903C701B6010E946C1911
:102CF0006B017A83698361E08AE00E94AE034981B7
:102D00005A81452B09F04FC060E08AE00E948003A1
:102D10006091F6037091F7038091F8039091F903A5
:102D20000E946C196B01672B41F461E08AE00E94FC
:102D3000AE0360E08AE00E9480036091D30470914A
:102D4000D4048091D5049091D6040E946C196C0D26
:102D50007D1D6E3171050CF071C061E08CE00E9448
:102D6000800360E08DE074C08090090590900A05B2
:102D7000A0900B05B0900C05A50194016D817E819A
:102D80008F8198850E94F51887FF1BCF8092FD04E4
:102D90009092FE04A092FF04B092000512CFC12CC5
:102DA000D12C76011FCF89819A818F3F910511F433
:102DB00061E0ABCFEEEFF5E08491833029F150F480
:102DC0008130C1F08230D9F029813A812038310533
:102DD0007CF79ACF873011F1883041F18430A1F728
:102DE00080918000806280938000D0928B00C0929E
:102DF0008A008ECF84B5806884BDC7BC89CF84B576
:102E0000806284BDC8BC84CF80918000806880933C
:102E10008000D0928900C09288007ACF8091B00063
:102E200080688093B000C092B30072CF8091B000F0
:102E300080628093B000C092B4006ACF6B3271059B
:102E40000CF409C161E08DE00E94800360E08CE039
:102E50000E948003A0E0B1E0E8EFF1E01D9231971D
:102E6000E9F71092C7048091C804833508F483E51C
:102E70008093C8041092C9048091CA048F3208F468
:102E80008FE28093CA041092B1041092B0041092A1
:102E9000B3041092B2046FE373E084EA94E00E94FA
:102EA000510E6DE373E084EA94E00E94510E6DE4EC
:102EB00073E084EA94E00E94510E6DE373E084EACB
:102EC00094E00E94510E6CE573E084EA94E00E9465
:102ED000510E6091FA037091FB038091FC03909175
:102EE000FD030E946C1984EA94E00E94290E68E6B2
:102EF00073E084EA94E00E94510E6091F6037091B1
:102F0000F7038091F8039091F9030E946C1984EA09
:102F100094E00E94290E61E773E084EA94E00E9445
:102F2000510E6091D3047091D4048091D504909196
:102F3000D6040E946C1984EA94E00E94290E69E785
:102F400073E084EA94E00E94510E6091CB0470918A
:102F5000CC048091CD049091CE040E946C1984EA37
:102F600094E00E94290E0E94B90CEDEFF5E08491E7
:102F7000EBE1F6E0F491F983E9E3F6E0F491FD8307
:102F8000FF2309F45BC081110E9457032D81E22FBA
:102F9000F0E0EE0FFF1FE85FF94FA591B4918C911F
:102FA0003981382309F44AC06091FA037091FB0318
:102FB0008091FC039091FD030E946C1983E094E0E2
:102FC0000E94470E62E873E083E094E00E94510E95
:102FD0006091F6037091F7038091F8039091F903E3
:102FE0000E946C1983E094E00E94470E62E873E04F
:102FF00083E094E00E94510E6091D3047091D40458
:103000008091D5049091D6040E946C1983E094E0DD
:103010000E94470E62E873E083E094E00E94510E44
:103020006091CB047091CC048091CD049091CE043A
:103030000E946C1983E094E00E94290E40E050E069
:10304000452B09F450CC0E94C305882309F44BCCCE
:103050000E94000048CC60E081CE052E97FB1EF454
:1030600000940E94441857FD07D00E94571807FC8F
:1030700003D04EF40C94441850954095309521950A
:103080003F4F4F4F5F4F0895909580957095619594
:103090007F4F8F4F9F4F08950E947918A59F900DE5
:1030A000B49F900DA49F800D911D11240895A1E25D
:1030B0001A2EAA1BBB1BFD010DC0AA1FBB1FEE1FB2
:1030C000FF1FA217B307E407F50720F0A21BB30BFD
:1030D000E40BF50B661F771F881F991F1A9469F779
:1030E00060957095809590959B01AC01BD01CF01D5
:1030F0000895A29FB001B39FC001A39F700D811DD1
:103100001124911DB29F700D811D1124911D0895F0
:103110005058BB27AA270E94A0180C941A1A0E9484
:103120000C1A38F00E94131A20F039F49F3F19F45A
:1031300026F40C94091A0EF4E095E7FB0C94031A9C
:10314000E92F0E942B1A58F3BA17620773078407F6
:10315000950720F079F4A6F50C944D1A0EF4E0953D
:103160000B2EBA2FA02D0B01B90190010C01CA0141
:10317000A0011124FF27591B99F0593F50F4503EEC
:1031800068F11A16F040A22F232F342F4427585FDE
:10319000F3CF469537952795A795F0405395C9F7F6
:1031A0007EF41F16BA0B620B730B840BBAF09150AE
:1031B000A1F0FF0FBB1F661F771F881FC2F70EC04D
:1031C000BA0F621F731F841F48F487957795679520
:1031D000B795F7959E3F08F0B0CF9395880F08F00C
:1031E0009927EE0F9795879508950E94DF1908F4A7
:1031F00081E008950E940E190C941A1A0E94131A65
:1032000058F00E940C1A40F029F45F3F29F00C940A
:10321000031A51110C944E1A0C94091A0E942B1A7D
:1032200068F39923B1F3552391F3951B550BBB27F5
:10323000AA2762177307840738F09F5F5F4F220F3A
:10324000331F441FAA1FA9F335D00E2E3AF0E0E831
:1032500032D091505040E695001CCAF72BD0FE2F7B
:1032600029D0660F771F881FBB1F2617370748070F
:10327000AB07B0E809F0BB0B802DBF01FF279358C7
:103280005F4F3AF09E3F510578F00C94031A0C946E
:103290004E1A5F3FE4F3983ED4F386957795679591
:1032A000B795F7959F5FC9F7880F911D96958795FC
:1032B00097F90895E1E0660F771F881FBB1F62171B
:1032C00073078407BA0720F0621B730B840BBA0BD9
:1032D000EE1F88F7E09508950E9473196894B11164
:1032E0000C944E1A08950E94331A88F09F5798F054
:1032F000B92F9927B751B0F0E1F0660F771F881FFB
:10330000991F1AF0BA95C9F714C0B13091F00E9414
:103310004D1AB1E008950C944D1A672F782F882725
:10332000B85F39F0B93FCCF3869577956795B3953B
:10333000D9F73EF490958095709561957F4F8F4FAA
:103340009F4F0895E89409C097FB3EF490958095AF
:10335000709561957F4F8F4F9F4F9923A9F0F92F5B
:1033600096E9BB279395F695879577956795B795D9
:10337000F111F8CFFAF4BB0F11F460FF1BC06F5FBF
:103380007F4F8F4F9F4F16C0882311F096E911C0D1
:10339000772321F09EE8872F762F05C0662371F0F2
:1033A00096E8862F70E060E02AF09A95660F771F06
:1033B000881FDAF7880F9695879597F90895990FE2
:1033C0000008550FAA0BE0E8FEEF16161706E807EF
:1033D000F907C0F012161306E407F50798F0621B10
:1033E000730B840B950B39F40A2661F0232B242BE5
:1033F000252B21F408950A2609F4A140A6958FEF04
:10340000811D811D089597F99F6780E870E060E055
:1034100008959FEF80EC089500240A94161617066D
:1034200018060906089500240A94121613061406B5
:1034300005060895092E0394000C11F4882352F018
:10344000BB0F40F4BF2B11F460FF04C06F5F7F4FD0
:103450008F4F9F4F089557FD9058440F551F59F0B7
:103460005F3F71F04795880F97FB991F61F09F3F71
:1034700079F087950895121613061406551FF2CF9A
:103480004695F1DF08C0161617061806991FF1CFEA
:1034900086957105610508940895E894BB27662711
:1034A0007727CB0197F908950E94DF1908F48FEF71
:1034B000089516F00C94A01B0C94091A68940C94AF
:1034C000031A0E94331AA8F39923C1F3AEF3DF93D2
:1034D000CF931F930F93FF92C92FDD2788232AF0E4
:1034E0002197660F771F881FDAF720E030E040E869
:1034F0005FEB9FE3883920F0803E38F021968F778C
:103500000E948918E8E6F0E004C00E948918E5E905
:10351000F0E00E94AE1B8B01BE01EC01FB2E6F5749
:1035200071097595771F880B990B0E94A41928E1E2
:1035300032E741E35FE30E94BC1AAF2D9801AE0170
:10354000FF900F911F91CF91DF910E94A0180C94D2
:103550001A1A0E94BC1A0C941A1A0E940C1A38F0FB
:103560000E94131A20F0952311F00C94031A0C9466
:10357000091A11240C944E1A0E942B1A70F3959F6D
:10358000C1F3950F50E0551F629FF001729FBB275A
:10359000F00DB11D639FAA27F00DB11DAA1F649FF6
:1035A0006627B00DA11D661F829F2227B00DA11DA9
:1035B000621F739FB00DA11D621F839FA00D611D2F
:1035C000221F749F3327A00D611D231F849F600D50
:1035D000211D822F762F6A2F11249F5750409AF079
:1035E000F1F088234AF0EE0FFF1FBB1F661F771F05
:1035F000881F91505040A9F79E3F510580F00C94D0
:10360000031A0C944E1A5F3FE4F3983ED4F3869568
:1036100077956795B795F795E7959F5FC1F7FE2B6F
:10362000880F911D9695879597F90895FA01EE0FE9
:10363000FF1F309621053105A1F16115710561F477
:103640008038BFE39B0749F168949038810561F0A9
:103650008038BFEF9B0741F099234AF5FF3FE10512
:103660003105210519F1E8940894E795D901AA23B9
:1036700029F4AB2FBE2FF85FD0F310C0FF5F70F4BA
:10368000A695E0F7F73950F019F0FF3A38F49F7734
:103690009F930DD00F9007FC9058089546F00C941E
:1036A000091A60E070E080E89FE308954FE79F7794
:1036B0005F934F933F932F930E94611A2F913F91F5
:1036C0004F915F910E94A91A0C946E1B29F416F079
:1036D0000C94031A0C944D1A0C94091A0E94331A74
:1036E000A8F39638A0F707F80F92E8942BE33AEA8C
:1036F00048EB5FE70E94BF1A0F920F920F924DB7EF
:103700005EB70F920E94171CE2ECF0E00E94AE1B25
:103710004F915F91EF91FF91E595EE1FFF1F49F0EB
:10372000FE57E0684427EE0F441FFA95E1F74195F4
:10373000550B0E94E11B0F9007FE0C94D51B0895BA
:103740009F3F31F0915020F4879577956795B79515
:10375000880F911D9695879597F90895DF93CF93DC
:103760001F930F93FF92EF92DF927B018C0168947D
:1037700006C0DA2EEF010E94BC1AFE01E894A59162
:103780002591359145915591A6F3EF010E94A0181E
:10379000FE019701A801DA9469F7DF90EF90FF909E
:1037A0000F911F91CF91DF9108959B01AC0160E0D3
:1037B00070E080E89FE30C94FA180C94031A0C94C0
:1037C000A01B0E94331AD8F39923C9F3940F511DFB
:1037D000A3F39150504094F059F0882332F0660FD3
:1037E000771F881F91505040C1F79E3F51052CF71D
:1037F000880F911D9695879597F908955F3FACF0D6
:10380000983E9CF0BB27869577956795B79508F409
:10381000B1609395C1F7BB0F58F711F460FFE8CF83
:103820006F5F7F4F8F4F9F4FE3CF0C944E1AFA017B
:10383000DC01AA0FBB1F9B01AC01BF5728F4222754
:1038400033274427507820C0B75190F4AB2F002481
:10385000469537952795011CA395D2F3002071F06A
:10386000220F331F441FB395DAF30ED00C9488183F
:1038700061307105A0E88A07B94630F49B01AC01BC
:103880006627772788279078309621F02083318328
:1038900042835383089597FB072E16F4009407D0B4
:1038A00077FD09D00E94661C07FC05D03EF4909578
:1038B00081959F4F0895709561957F4F08950E945F
:1038C0007918B7FF0895821B930B0895AA1BBB1BA1
:1038D00051E107C0AA1FBB1FA617B70710F0A61B10
:1038E000B70B881F991F5A95A9F780959095BC0131
:1038F000CD010895EE0FFF1F0590F491E02D09947E
:103900000F931F93CF93DF938230910510F482E0E1
:1039100090E0E0911505F091160530E020E0B0E070
:10392000A0E0309799F42115310509F44AC0281B0D
:10393000390B24303105D8F58A819B8161157105D9
:1039400089F1FB0193838283FE0111C04081518183
:103950000281138148175907E0F04817590799F475
:10396000109761F012960C93129713961C9332964F
:10397000CF01DF91CF911F910F910895009315050D
:1039800010931605F4CF2115310551F04217530756
:1039900038F0A901DB019A01BD01DF01F801C1CFB7
:1039A000EF01F9CF9093160580931505CDCFFE0159
:1039B000E20FF31F819391932250310939832883B9
:1039C000D7CF2091130530911405232B41F420917A
:1039D000FA023091FB0230931405209313052091D5
:1039E000F8023091F9022115310541F42DB73EB7A7
:1039F0004091FC025091FD02241B350BE091130510
:103A0000F0911405E217F307A0F42E1B3F0B2817C3
:103A1000390778F0AC014E5F5F4F2417350748F047
:103A20004E0F5F1F5093140540931305819391939C
:103A30009FCFF0E0E0E09CCFCF93DF930097E9F0D9
:103A4000FC01329713821282A0911505B0911605E0
:103A5000ED0130E020E01097A1F420813181820F48
:103A6000931F20911305309114052817390709F089
:103A700061C0F0931405E0931305DF91CF91089591
:103A8000EA01CE17DF07E8F54A815B819E01411507
:103A90005105B1F7E901FB83EA8349915991C40FBC
:103AA000D51FEC17FD0761F4808191810296840F88
:103AB000951FE90199838883828193819B838A83FF
:103AC000F0E0E0E012968D919C9113970097B9F584
:103AD0002D913C911197CD010296820F931F209159
:103AE0001305309114052817390739F6309751F529
:103AF0001092160510921505B0931405A0931305A6
:103B0000BCCFD383C28340815181840F951FC817D6
:103B1000D90761F44E5F5F4F88819981480F591F23
:103B2000518340838A819B81938382832115310550
:103B300009F0B0CFF0931605E09315059ECFFD0177
:103B4000DC01C0CF13821282D7CF81E090E0F894DD
:103B50000C94AA1DF894FFCF0000000000000000A4
:103B60000000000000000000000000000000000055
:103B70000000000000000000000000000000C0E0A5
:103B8000F0F8FCFCFEFFFCE000000000000000007C
:103B90000000000000000000000000000000000025
:103BA0000000000000000000000000000000000015
:103BB00000000000000000000000000000F8F8F81D
:103BC000F8F8F8F8F8F8F8F8F8F0F0E0E0C080C09D
:103BD000FCFFFFFFFF7F3F7FFFFFFFFFFF000000B5
:103BE00000000000000000000000000000000000D5
:103BF00000000000000000000000000000000000C5
:103C000000000000000000000000000000000000B4
:103C100000000F1F3F7FFFFFFFFFFFFFFFFFE7C712
:103C2000C7878F9F9FFFFFFFC1C0E0FCFFFFFFFF23
:103C3000FFFCFCFCFCFEFEFEFCFCF8F8F0E0C0C063
:103C40000000000000000000000000000000000074
:103C50000000000000000000000000000000000064
:103C600000000000000000000080C0E0F1FBFFFF4A
:103C7000FFFFFF7F1F0F0F87E7FFFFFF1F1F3FF9AA
:103C8000F8F8F8F8F8F8FDFFFFFFFFFFFFFFFFFF70
:103C90007F3F0F070100000000000000000000004F
:103CA0000000000000000000000000000000000014
:103CB0000000000000000000000000F0FEFFFFFF19
:103CC000FFFFFFFFFFFFFFFE7E3F3F0F1FFFFFFFD6
:103CD000FCF0E0F1FFFFFFFFFFFCF001010101013B
:103CE00001010100000000000000000000000000D1
:103CF00000000000000000000000000000000000C4
:103D000000000000000000000000000000000003B0
:103D1000030303030303030101010100000000008A
:103D20000000030F1F3F7F7FFFFFFFFF7F7F1F0309
:103D30000000000000000000000000000000000083
:103D40000000000000000000000000000000000073
:103D500000001705800000000000F90559058605E0
:103D60004606B7059505A90500000000F2085905AB
:103D7000A00D9F0D2F0D8D06970B6F0B8B0B7F0BDF
:103D80009E0B8D06B8061E0D360BFD0AB80A9B0A5F
:103D9000230AC4090D0A004461746F73206D6564C1
:103DA00069646F73002D2D2D2D2D2D2D2D2D2D2D75
:103DB0002D2D2D0048756D656461642825293A0014
:103DC000436F6E74726F6C3A0054656D705F733A36
:0C3DD0000054656D705F6F703A002C00AD
:107E0000112484B714BE81FFF0D085E080938100F7
:107E100082E08093C00088E18093C10086E0809377
:107E2000C20080E18093C4008EE0C9D0259A86E02C
:107E300020E33CEF91E0309385002093840096BBD3
:107E4000B09BFECF1D9AA8958150A9F7CC24DD24C4
:107E500088248394B5E0AB2EA1E19A2EF3E0BF2EE7
:107E6000A2D0813461F49FD0082FAFD0023811F036
:107E7000013811F484E001C083E08DD089C08234E0
:107E800011F484E103C0853419F485E0A6D080C0E4
:107E9000853579F488D0E82EFF2485D0082F10E0AE
:107EA000102F00270E291F29000F111F8ED06801E7
:107EB0006FC0863521F484E090D080E0DECF843638
:107EC00009F040C070D06FD0082F6DD080E0C81688
:107ED00080E7D80618F4F601B7BEE895C0E0D1E017
:107EE00062D089930C17E1F7F0E0CF16F0E7DF06D8
:107EF00018F0F601B7BEE89568D007B600FCFDCFD4
:107F0000A601A0E0B1E02C9130E011968C91119780
:107F100090E0982F8827822B932B1296FA010C0160
:107F200087BEE89511244E5F5F4FF1E0A038BF0790
:107F300051F7F601A7BEE89507B600FCFDCF97BE46
:107F4000E89526C08437B1F42ED02DD0F82E2BD052
:107F50003CD0F601EF2C8F010F5F1F4F84911BD097
:107F6000EA94F801C1F70894C11CD11CFA94CF0C13
:107F7000D11C0EC0853739F428D08EE10CD085E9AC
:107F80000AD08FE07ACF813511F488E018D01DD067
:107F900080E101D065CF982F8091C00085FFFCCF94
:107FA0009093C60008958091C00087FFFCCF809118
:107FB000C00084FD01C0A8958091C6000895E0E648
:107FC000F0E098E1908380830895EDDF803219F02E
:107FD00088E0F5DFFFCF84E1DECF1F93182FE3DFCA
:107FE0001150E9F7F2DF1F91089580E0E8DFEE27F6
:047FF000FF270994CA
:027FFE00040479
:00000001FF
