:020000040000FA
:100000000C94E3020C940B030C940B030C940B0361
:100010000C940B030C940B030C940B030C940B0328
:100020000C940B030C940B030C940B030C940B0318
:100030000C940B030C940B030C940B030C940B0308
:100040000C94910E0C940B030C94010F0C94DB0E8A
:100050000C940B030C940B030C940B030C940B03E8
:100060000C94330F0C940B0300000000003E5B4F18
:100070005B3E3E6B4F6B3E1C3E7C3E1C183C7E3C08
:10008000181C577D571C1C5E7F5E1C00183C180016
:10009000FFE7C3E7FF0018241800FFE7DBE7FF30A6
:1000A000483A060E2629792926407F050507407F14
:1000B00005253F5A3CE73C5A7F3E1C1C08081C1C87
:1000C0003E7F14227F22145F5F005F5F06097F017D
:1000D0007F006689956A606060606094A2FFA29468
:1000E00008047E040810207E201008082A1C080836
:1000F0001C2A08081E101010100C1E0C1E0C303884
:100100003E3830060E3E0E06000000000000005F84
:1001100000000007000700147F147F14242A7F2AA0
:100120001223130864623649562050000807030062
:10013000001C2241000041221C002A1C7F1C2A08AE
:10014000083E080800807030000808080808000011
:1001500060600020100804023E5149453E00427F85
:10016000400072494949462141494D331814127FD4
:100170001027454545393C4A494931412111090774
:100180003649494936464949291E000014000000F5
:1001900040340000000814224114141414140041C7
:1001A00022140802015909063E415D594E7C121184
:1001B000127C7F494949363E414141227F414141BC
:1001C0003E7F494949417F090909013E4141517337
:1001D0007F0808087F00417F41002040413F017FA8
:1001E000081422417F404040407F021C027F7F0470
:1001F00008107F3E4141413E7F090909063E4151B9
:10020000215E7F09192946264949493203017F01A8
:10021000033F4040403F1F2040201F3F4038403FA9
:10022000631408146303047804036159494D4300BF
:100230007F4141410204081020004141417F0402F6
:10024000010204404040404000030708002054548D
:1002500078407F284444383844444428384444286B
:100260007F385454541800087E090218A4A49C78BE
:100270007F0804047800447D40002040403D007F1A
:100280001028440000417F40007C047804787C08FA
:100290000404783844444438FC18242418182424CE
:1002A00018FC7C08040408485454542404043F44B3
:1002B000243C4040207C1C2040201C3C4030403CE2
:1002C00044281028444C9090907C4464544C440042
:1002D00008364100000077000000413608000201A6
:1002E0000204023C2623263C1EA1A161123A404092
:1002F000207A38545455592155557941225454780F
:1003000042215554784020545579400C1E527212A7
:100310003955555559395454545939555454580030
:1003200000457C410002457D420001457C407D1234
:1003300011127DF0282528F07C5455450020545496
:100340007C547C0A097F4932494949323A44444441
:100350003A324A4848303A4141217A3A424020787C
:10036000009DA0A07D3D4242423D3D4040403D3C7D
:1003700024FF2424487E4943662B2FFC2F2BFF09A2
:1003800029F620C0887E0903205454794100004496
:100390007D413048484A32384040227A007A0A0A81
:1003A000727D0D19317D2629292F282629292926F4
:1003B00030484D4020380808080808080808382F39
:1003C00010C8ACBA2F102834FA00007B00000814C3
:1003D0002A142222142A14085500550055AA55AA99
:1003E00055AAFF55FF55FF000000FF00101010FF39
:1003F00000141414FF001010FF00FF1010F010F094
:10040000141414FC001414F700FF0000FF00FF1484
:1004100014F404FC141417101F10101F101F1414D0
:10042000141F00101010F0000000001F101010101A
:100430001F10101010F010000000FF10101010100E
:1004400010101010FF10000000FF140000FF00FF4C
:1004500000001F10170000FC04F4141417101714E8
:1004600014F404F40000FF00F7141414141414140A
:10047000F700F7141414171410101F101F1414147D
:10048000F4141010F010F000001F101F0000001FE7
:1004900014000000FC140000F010F01010FF10FF1A
:1004A000141414FF141010101F00000000F010FFAF
:1004B000FFFFFFFFF0F0F0F0F0FFFFFF0000000093
:1004C00000FFFF0F0F0F0F0F3844443844FC4A4A17
:1004D0004A347E02020606027E027E0263554941CC
:1004E000633844443C04407E201E2006027E020203
:1004F00099A5E7A5991C2A492A1C4C7201724C3017
:100500004A4D4D303048784830BC625A463D3E49ED
:100510004949007E0101017E2A2A2A2A2A44445F91
:10052000444440514A444040444A51400000FF0185
:1005300003E080FF000008086B6B08361236243693
:10054000060F090F060000181800000010100030F8
:1005500040FF0101001F01011E00191D1712003C80
:100560003C3C3C000000000000000000240027008C
:100570002A00000000080002010000030407000038
:1005800000000000000000000000230026002900F9
:10059000010204081020408001020408102001021A
:1005A0000408102000000000250028002B0004048F
:1005B000040404040404020202020202030303030B
:1005C0000303AF10561011241FBECFEFD8E0DEBFDB
:1005D000CDBF13E0A0E0B1E0E2ECFAE302C0059089
:1005E0000D92A43AB107D9F725E0A4EAB3E001C01F
:1005F0001D92A735B207E1F712E0C2EED2E004C0C7
:100600002197FE010E94571BC13ED107C9F70E94E6
:10061000F6110C94541D0C940000FC0120812EBD99
:100620000DB407FEFDCF2EB5FC0120830895833065
:1006300081F028F4813099F08230A9F00895873054
:10064000A9F08830C9F08430B1F4809180008F7DAA
:1006500003C0809180008F7780938000089584B5D7
:100660008F7784BD089584B58F7DFBCF8091B000D6
:100670008F778093B00008958091B0008F7DF9CF7F
:100680001F93CF93DF93282F30E0F901EE58FA4FF4
:100690008491F901E057FA4FD491F901E255FA4FEC
:1006A000C491CC23A9F0162F81110E941703EC2FBF
:1006B000F0E0EE0FFF1FEC55FA4FA591B4918FB704
:1006C000F894EC91111108C0D095DE23DC938FBF14
:1006D000DF91CF911F910895DE2BF8CFCF93DF9359
:1006E00090E0FC01E057FA4F249182559A4FFC01AB
:1006F00084918823D1F090E0880F991FFC01E8597C
:10070000FA4FA591B491FC01EC55FA4FC591D491E3
:1007100061110EC09FB7F8948C91E22FE0958E2363
:100720008C932881E223E8839FBFDF91CF910895C6
:100730008FB7F894EC91E22BEC938FBFF6CF8E50ED
:10074000806480937C0080917A00806480937A003A
:1007500080917A0086FDFCCF80917800909179009D
:1007600008958230910538F0880F991F880F991FDE
:1007700005970197F1F708959F92AF92BF92CF929C
:10078000DF92EF92FF920F931F93CF93DF93EC01D1
:100790006B018885998511E0892B09F010E8F60135
:1007A000A0808A2D8123992493948111912C2C81EE
:1007B0003D814E815F8160E271EA87E090E00E94B6
:1007C000DD19022FB12CE22EF12C002319F0C70104
:1007D0000E94B1038A85877F09F04FC08D858F3FC6
:1007E00089F09A2D912381E009F480E0891551F078
:1007F000EF85F8898F899923D1F19081892B8083A6
:1008000099249394E989FA898081998D892B808331
:10081000002319F0C7010E94B1038E858F3F39F084
:10082000EB89FC898081988D892309F0B12AE989B7
:10083000FA899081898D8095892380838E858F3F69
:1008400011F0F601B08288859985892B09F044C0A2
:10085000110F1111BACFDF91CF911F910F91FF901E
:10086000EF90DF90CF90BF90AF909F9008959081D0
:10087000809589238083912CC5CFE989FA8980816D
:10088000998D892B8083002319F0C7010E94B10341
:100890008D858F3F49F0EF85F8898F899A2D9123B7
:1008A000B9F09081892B8083E989FA899081898DBB
:1008B0008095892380838E858F3F09F4BFCFEB8994
:1008C000FC898081988D892309F4B8CFB12AB6CFED
:1008D000908180958923E7CF1695BBCFAF92BF92C9
:1008E000CF92DF92EF92FF920F931F93CF93DF93FC
:1008F0001F92CDB7DEB78C015B016A01DC018D91DF
:100900009C911197892B39F01296ED91FC91908171
:1009100081819CBD8DBDF80183858F3F19F060E01A
:100920000E9440037501CA0CDB1CCE14DF04A9F041
:10093000D7018D917D018983F80180819181892B77
:1009400029F0CE0101960E940D03EFCFBE016F5F2B
:100950007F4FC8010E94BC03E8CFD8011B968C9141
:100960008F3F19F061E00E94400381E00F90DF911A
:10097000CF911F910F91FF90EF90DF90CF90BF909C
:10098000AF9008953FB7F894809127049091280480
:10099000A0912904B0912A0426B5A89B05C02F3F39
:1009A00019F00196A11DB11D3FBFBA2FA92F982F95
:1009B0008827BC01CD01620F711D811D911D42E090
:1009C000660F771F881F991F4A95D1F708958F9258
:1009D0009F92AF92BF92CF92DF92EF92FF924B0124
:1009E0005C010E94C2046B017C010E94C2046C196C
:1009F0007D098E099F09683E734081059105A8F322
:100A000021E0821A9108A108B10888EEC80E83E09F
:100A1000D81EE11CF11C81149104A104B10429F732
:100A2000FF90EF90DF90CF90BF90AF909F908F900E
:100A30000895AF92BF92CF92DF92EF92FF920F9301
:100A40001F93CF93DF936C017B018B01040F151F64
:100A5000EB015E01AE18BF08C017D10759F06991CC
:100A6000D601ED91FC910190F081E02DC601099530
:100A7000892B79F7C501DF91CF911F910F91FF90DD
:100A8000EF90DF90CF90BF90AF900895FC0144812C
:100A90005581608171818BE294E00C941905FC0111
:100AA000538D448D252F30E0842F90E0821B930BD3
:100AB000541710F0CF96089501970895FC01918D79
:100AC000828D981761F0A28DAE0FBF2FB11D5D967C
:100AD0008C91928D9F5F9F73928F90E008958FEF1E
:100AE0009FEF0895FC01918D828D981731F0828DD2
:100AF000E80FF11D858D90E008958FEF9FEF089529
:100B0000FC01918D228D892F90E0805C9F4F821B8C
:100B100091098F73992708958BE294E00E948005D4
:100B200021E0892B09F420E0822F089580E090E0F5
:100B3000892B29F00E948C0581110C9400000895E6
:100B4000FC01A48DA80FB92FB11DA35ABF4F2C9142
:100B5000848D90E001968F739927848FA689B78939
:100B60002C93A089B1898C91837080648C93938D30
:100B7000848D981306C00288F389E02D80818F7DD3
:100B800080830895EF92FF920F931F93CF93DF938B
:100B9000EC0181E0888F9B8D8C8D98131AC0E889B9
:100BA000F989808185FF15C09FB7F894EE89FF8988
:100BB0006083E889F98980818370806480839FBF26
:100BC00081E090E0DF91CF911F910F91FF90EF9026
:100BD0000895F62E0B8D10E00F5F1F4F0F73112736
:100BE000E02E8C8D8E110CC00FB607FCFACFE88971
:100BF000F989808185FFF5CFCE010E94A005F1CF54
:100C0000EB8DEC0FFD2FF11DE35AFF4FF0829FB7E4
:100C1000F8940B8FEA89FB8980818062CFCFCF93D4
:100C2000DF93EC01888D8823B9F0AA89BB89E88914
:100C3000F9898C9185FD03C0808186FD0DC00FB6BA
:100C400007FCF7CF8C9185FFF2CF808185FFEDCF38
:100C5000CE010E94A005E9CFDF91CF9108952091A8
:100C6000CB03260F3327331F21323105ECF42091BB
:100C7000EF03FC0190E080E0243069F082E0089509
:100C8000A091CB032191AC0145555C4FA40FB52F2A
:100C9000B11D2C930196861798F38091CB03680FB2
:100CA0006093CB0380E0089581E0089508958FEF6D
:100CB0009FEF08958FEF9FEF08958091A40390E038
:100CC0009195819591090895CF93DF93CB01EA0126
:100CD000642F0E942F06CE01DF91CF910895CF930C
:100CE000DF931F92CDB7DEB7698361E0CE01019635
:100CF0000E942F0681E090E00F90DF91CF91089540
:100D00000895FC016370668B84819581268137810B
:100D1000613039F0633029F09187808733872287EB
:100D20000895318720879387828708952F923F9275
:100D30004F925F926F927F928F929F92AF92BF92EB
:100D4000CF92DF92EF92FF920F931F93CF93DF9397
:100D5000CDB7DEB76A970FB6F894DEBF0FBECDBF32
:100D60009A8F898F7A8369834A01D22E18870F83DD
:100D70003701BC2CDC0159962D913C915A972115D5
:100D8000310509F015C118968D919C911997681736
:100D900079070CF0D7C11A968D919C914817590785
:100DA0000CF0D0C14C2C512CB6E0CB9E600D711DC7
:100DB00011247C876B87161617060CF0C3C1EA2D29
:100DC000F0E0FA87E98793E0EE0FFF1F9A95E1F7CD
:100DD000F88BEF87CF01840F951F181619060CF0BA
:100DE000B1C1A98DBA8D58968C91811104C0BFEA0A
:100DF000BD1508F4D394A98DBA8DED91FC9111978E
:100E00000284F385E02DCD010995B5E0DB9EC0019C
:100E10001124E981FA81FC83EB83312C212C9C0184
:100E200028593F4F388F2F8B4A2D50E05E8B4D8BCA
:100E3000EF89F88DE20DF31D44919E828D82D12CB5
:100E4000C12C69817A81620D731D7A8B698B842F25
:100E500090E09C8B8B8BE98DFA8DA081B18140FF56
:100E600082C0F1E0BF126FC0AF126DC01C96ED9151
:100E7000FC912F813885A4014C0D5D1D69897A890B
:100E8000898D9A8D0995EB89FC89F595E7954E2F0B
:100E90005FEFC51AD50A6D817E818D899E89680FA5
:100EA000791F7E836D8398E0C916D10481F6AFEF78
:100EB0002A1A3A0AEB81FC81E40DF51DFC83EB83D1
:100EC000F5E02F16310409F0B3CF2F8138852615B0
:100ED0003705B9F0A98DBA8DED91FC91B1E0BB1247
:100EE00057C0AB1255C069817A816B5F7F4F008814
:100EF000F189E02D830128E030E0A401898D9A8DED
:100F00000995A98DBA8DED91FC9111970688F78905
:100F1000E02DCD016A960FB6F894DEBF0FBECDBFAF
:100F2000DF91CF911F910F91FF90EF90DF90CF90C5
:100F3000BF90AF909F908F907F906F905F904F90F9
:100F40003F902F9009941E96ED91FC91EF80F884CC
:100F500009851A8592014D815E816B817C81898D25
:100F60009A8D099590CF2F8138852615370509F47C
:100F70008ACF31E0B31207C0A31205C01C96ED91D1
:100F8000FC91930178CF1E96ED91FC917301E0CF17
:100F90006B857C85641975090684F785E02D7301DE
:100FA0000F8518899201A401898D9A8D0995A9CF81
:100FB000F90134969491329745915491D91AB7E03A
:100FC000DB9E400D511D1124F901259134913C8B7C
:100FD0002B8BFA0125903490FA0132967490319659
:100FE0003491398B329664903196449041E04C159F
:100FF00018F04A1508F07FC0662D062C000C770B00
:101000007C836B83842D042C000C990B9E838D8331
:10101000A98DBA8DED91FC9111970284F385E02D95
:10102000CD010995512CD12CC12CEA2DF0E0FA8785
:10103000E9872B2D30E03C872B87A401440D511DFF
:1010400047FC5A95588F4F8B69817A81660D711DC7
:1010500067FC7A957E876D877989C71608F051CF2E
:101060002C2D30E04D815E81420F531FA985BA853A
:101070004A9FC0014B9F900D5A9F900D1124FC0177
:10108000E80DF91DF88BEF87852D612C4F89588D60
:10109000420F531F5E8B4D8B671408F050C04424E1
:1010A0004394480E877041F4C1010196EB89FC8995
:1010B000E20DF31DD4901C01D7FE19C0A98DBA8D85
:1010C000ED91FC91662D70E0B1E0BB1219C0AB123E
:1010D00017C02D853E85620F731F0484F585E02DB2
:1010E0002F8138854D895E89898D9A8D0995DD0C12
:1010F0006394842DD1CF1E821D821C821B8288CFD7
:101100004B815C81640F751FAB85BC856A9FC001F4
:101110006B9F900D7A9F900D112469817A81680FE1
:10112000791F0684F785E02DEF80F88409851A85FC
:101130009D014F855889898D9A8D0995D8CF570C77
:10114000C3948ACF6A960FB6F894DEBF0FBECDBFA8
:10115000DF91CF911F910F91FF90EF90DF90CF9093
:10116000BF90AF909F908F907F906F905F904F90C7
:101170003F902F9008958F929F92AF92CF92EF92CF
:10118000FF920F931F93CF93DF93EC01262F898D4E
:101190009A8D009709F051C06A30D1F41D861C86E3
:1011A0008D8948E0849F900111248E859F85820F50
:1011B000931F9F878E8781E090E0DF91CF911F91F1
:1011C0000F91FF90EF90CF90AF909F908F900895E8
:1011D0006D3089F3CC88AD888F898823C1F08C85E8
:1011E0009D8536E0C39E800D911D1124488559854B
:1011F0004817590764F44E855F851D861C8638E0C4
:10120000A39EC0011124840F951F9F878E87EA88B3
:10121000FB88088919894E855F856C857D85CE019F
:101220000E9496062C898C859D8546E0249F800D22
:10123000911D11249D878C87BECF6A3069F41D866D
:101240001C86FC013896E4912D898E859F85E29F4E
:10125000800D911D1124ADCF6D3009F4ACCFFC0190
:1012600034963491631708F4A6CF3296E491E617CA
:1012700008F4A1CFFC01329685909490462F431B31
:10128000342F47E0349F800C911C1124F4013296D6
:1012900034913196E4913323A9F1EE2399F1CC886E
:1012A000F4013596E491AD884F89442301F10E2E67
:1012B000000CFF0BE30FF11DCE9EA001CF9E500D41
:1012C00011246C857D85460F571F688579856417C5
:1012D00075076CF44E855F851D861C86FC0138966B
:1012E000E491AE9E400D511D11245F874E87EA8820
:1012F000FB88088919894E855F856C857D85CE01BF
:101300000E949606F4013496E4912C898C859D8583
:10131000E29F800D911D11248DCF6F927F928F924D
:101320009F92AF92BF92CF92DF92EF92FF920F9374
:101330001F93CF93DF93EC016B015A0139014801F0
:10134000E881F9810284F385E02D0995E881F9812E
:101350000288F389E02D87019301A501B601CE0132
:101360000995A501480D591D41505109E881F981A0
:101370000288F389E02D9301B601CE010995E88139
:10138000F9810088F189E02D9401A501B601CE0113
:101390000995C60CD71CB60161507109E881F98125
:1013A0000088F189E02D9401A501CE010995E8811D
:1013B000F9810688F789E02DCE01DF91CF911F9149
:1013C0000F91FF90EF90DF90CF90BF90AF909F90E4
:1013D0008F907F906F9009946F927F928F929F92DF
:1013E000AF92BF92CF92DF92EF92FF920F931F9333
:1013F000CF93DF935C01EB016A014901380187015A
:10140000DC01ED91FC916217730719F564167506FE
:101410002CF0962D872D3A01C92ED82E960126192B
:1014200037092F5F3F4F048CF58DE02DA301BE01DE
:10143000C5010995DF91CF911F910F91FF90EF901A
:10144000DF90CF90BF90AF909F908F907F906F90E4
:1014500008954615570591F42617370724F0892D6E
:101460004B01C22FD82F9E01281939092F5F3F4FFA
:10147000068CF78DE02DA601B401DACF0284F38546
:10148000E02D0995D501ED91FC910488F589E02DB9
:1014900083019401A601BE01C5010995D501ED9115
:1014A000FC910688F789E02DC501DF91CF911F914E
:1014B0000F91FF90EF90DF90CF90BF90AF909F90F3
:1014C0008F907F906F900994EF92FF920F931F93EC
:1014D000DC011A960D911C911B9718962D913C9149
:1014E0001997ED91FC9100A0F1A1E02D7B0150E056
:1014F00040E070E060E009951F910F91FF90EF9040
:1015000008954F925F926F927F928F929F92AF92C7
:10151000BF92CF92DF92EF92FF920F931F93CF93E0
:10152000DF936C012B015A0139014801DC01ED9177
:10153000FC910284F385E02D0995E201640C751C91
:10154000D601ED91FC91C615D7055CF40088F189B0
:10155000E02D87019401A501BE01C60109952196E0
:10156000EFCF0688F789E02DC601DF91CF911F915B
:101570000F91FF90EF90DF90CF90BF90AF909F9032
:101580008F907F906F905F904F9009948F929F9271
:10159000AF92BF92CF92DF92EF92FF920F931F9381
:1015A000CF93DF93EC015B014A016901E881F98186
:1015B0000284F385E02D099595012C0D3D1D2150E8
:1015C0003109E881F9810488F589E02D78018401E9
:1015D000A401B501CE010995E881F9810688F78952
:1015E000E02DCE01DF91CF911F910F91FF90EF90F1
:1015F000DF90CF90BF90AF909F908F9009948F9283
:101600009F92AF92BF92CF92DF92EF92FF920F9391
:101610001F93CF93DF93EC015B014A0169017801CD
:10162000E881F9810284F385E02D0995C80CD91C65
:10163000860101501109E881F9810488F589E02DBE
:101640009501A401B501CE010995E881F9810688CB
:10165000F789E02DCE01DF91CF911F910F91FF907F
:10166000EF90DF90CF90BF90AF909F908F900994B4
:10167000EF92FF920F931F93DC01ED91FC9100A07C
:10168000F1A1E02D09951F910F91FF90EF90089522
:101690000F931F93DC01ED91FC91068CF78DE02DEB
:1016A00009951F910F9108950F931F93DC01ED9100
:1016B000FC91048CF58DE02D09951F910F910895F3
:1016C000DC01ED91FC910084F185E02D09942F92CD
:1016D0003F924F925F926F927F928F929F92AF92C2
:1016E000BF92CF92DF92EF92FF920F931F93CF930F
:1016F000DF9300D000D000D0CDB7DEB73C016A0147
:101700003E832D83FC82EB825801A41AB50AB7FEF2
:1017100003C0B194A194B1088D809E80861A970A67
:1017200097FE03C09194819491088A149B045CF005
:10173000902F812F0D811E819D838E839C2D8D2D59
:101740006B01692F782F0C151D055CF09D818E8132
:101750007E836D83692F782F902F812F8601C92E6C
:10176000D82E1601201A310A2B012D813E81421AF2
:10177000530A57FE03C0519441945108710137FE3A
:1017800003C03FEFE31AF30AF594E7948D819E813D
:10179000861797075CF5A1E0B0E0BA83A983C0166D
:1017A000D1064CF1D301ED91FC910484F585E02D37
:1017B0002B813C81A8016D817E818A149B041CF0E1
:1017C0004D815E81B801C3010995E418F508F7FE63
:1017D0000AC02D813E8189819A81280F391F3E835D
:1017E0002D83E20CF31C0F5F1F4FD9CF2FEF3FEF7C
:1017F0003A832983D4CF26960FB6F894DEBF0FBE66
:10180000CDBFDF91CF911F910F91FF90EF90DF90AF
:10181000CF90BF90AF909F908F907F906F905F9090
:101820004F903F902F9008950F931F93CF93DF9386
:101830001F92CDB7DEB78C01698360E0FC01868D15
:101840000E94400341E050E0BE016F5F7F4FF8010E
:10185000838D948D0E946E040F90DF91CF911F9124
:101860000F910895CF938091490587FD13C061E0E2
:101870000E946E0360E0809149050E94400361E090
:1018800070E080E090E00E94E70461E0809149050B
:101890000E944003C0914C05C83008F0C7E0C093D7
:1018A0004C0561E28CE295E00E94140C6C2F6061A3
:1018B0008CE295E00E94140C60E28CE295E00E94BC
:1018C000140CC0914B05C7FDCFE7C0934B0561E2F7
:1018D0008CE295E00E94140C6C2F60688CE295E01D
:1018E0000E94140C60E28CE295E00E94140C60E20D
:1018F0008CE295E00E94140C6CE08CE295E0CF91B4
:101900000C94140CFF920F931F93CF93DF9390913D
:101910004D05992339F080914E058F5F8917E8F5C1
:1019200080934E05D0915105D695D695D69584E5F0
:10193000D89F8001112480915205869586958695C1
:101940008D1780F16D2F60648CE295E00E94140C7D
:10195000C0914F05F09050056C2F60688CE295E0C7
:101960000E94140C61E080914A050E9440034F2DB3
:1019700050E06C2F70E0461B570B4F5F5F4F600FBE
:10198000711F6F5F7E4F80914705909148050E94BF
:101990006E04DF5F0C5A1F4FCECF10924E050E948F
:1019A000320CC0CF60E48CE295E00E94140C83E519
:1019B00080934F05109250058FE28093510510924D
:1019C0005205DF91CF911F910F91FF9008951F93C2
:1019D000CF93DF93EC01162F60E20E94140C6CE0B1
:1019E00011116DE0CE01DF91CF911F910C94140C79
:1019F000FC0177FD55C080859185681779070CF04B
:101A00004FC057FD4DC082859385481759070CF08C
:101A100047C08689823009F444C0833009F44EC03F
:101A2000813031F48FE290E0861B970BBA01AC0154
:101A3000842FA62F93A1691708F4962F93A394A13E
:101A40009A1708F49A2F94A395A1891708F4982F50
:101A500095A396A1981708F4982F96A3CA0157FD4D
:101A60000796E3E095958795EA95E1F7A4E5A89FA9
:101A7000F001A99FF00D1124E60FF71FEF5FFE4F55
:101A8000CA0168E070E00E94281B41E050E001C0FC
:101A9000440F8A95EAF78081232BB9F0842B808349
:101AA000089583E590E0DC01A61BB70BBD018FE232
:101AB00090E0DC01A41BB50BAD01BACF83E590E04B
:101AC000841B950BAB01BC01B3CF40958423E7CFBA
:101AD000089590E080E008950E943F1DFB01019071
:101AE0000020E9F73197AF01461B570BDC01ED9160
:101AF000FC910280F381E02D09948F929F92AF9226
:101B0000BF92EF92FF920F931F93CF93DF93CDB7C6
:101B1000DEB7A1970FB6F894DEBF0FBECDBF7C0134
:101B2000FA01CB0119A2223008F42AE08E010F5DE0
:101B30001F4F822E912CB12CA12CBF01A501940125
:101B40000E94DD19F901CA016A300CF5605DD80107
:101B50006E938D01232B242B252B79F790E080E0C9
:101B6000109721F0BD01C7010E946E0DA1960FB61E
:101B7000F894DEBF0FBECDBFDF91CF911F910F91C3
:101B8000FF90EF90BF90AF909F908F900895695C09
:101B9000DECFCF92DF92EF92FF920F931F93CF93FE
:101BA000DF93EC016A017B01E881F9810190F0810A
:101BB000E02D6DE209958C0144275527BA014C1997
:101BC0005D096E097F092AE0CE010E947D0D800F1C
:101BD000911FDF91CF911F910F91FF90EF90DF90B8
:101BE000CF9008950F931F93CF93DF93EC01AB0138
:101BF000770F660B770B77FF0FC00E94C90D8C0122
:101C00006DE373E0CE010E946E0D800F911FDF9196
:101C1000CF911F910F9108952AE00E947D0DEFCF83
:101C2000AB01770F660B770B77FD0C94C90D2AE09B
:101C30000C947D0D0C946E0D1F93CF93DF9385ED67
:101C40008093BC008091A7039091A803A091A90361
:101C5000B091AA030796A11DB11D23E0B695A795E3
:101C6000979587952A95D1F72091BC0024FD03C054
:101C70001092EF0352C04091A7035091A8036091C6
:101C8000A9037091AA03452B462B472B69F30097B4
:101C9000A105B10541F02AE22A95F1F700C00197AC
:101CA000A109B109E1CF8091A603C1E0C093A503CA
:101CB000882399F1D091B8001091BA008091BC00AE
:101CC0008A7B8093BC0060E082E10E94400360E078
:101CD00083E10E9440031092EF03C093F10310923E
:101CE000F00361E082E10E94400361E083E10E9431
:101CF00040038091B9008E7F8093B9008091B90034
:101D00008D7F8093B90088E48093B80085E4809348
:101D1000BC001093BA00D093B800DF91CF911F910F
:101D200008951F920F920FB60F9211242F933F9395
:101D30008F939F93AF93BF938091C8049091C904F0
:101D4000A091CA04B091CB043091260423E0230F64
:101D50002D3758F50196A11DB11D209326048093BF
:101D6000C8049093C904A093CA04B093CB04809193
:101D7000270490912804A0912904B0912A04019687
:101D8000A11DB11D8093270490932804A0932904DA
:101D9000B0932A04BF91AF919F918F913F912F9162
:101DA0000F900FBE0F901F90189526E8230F0296F4
:101DB000A11DB11DD2CF1F920F920FB60F92112409
:101DC0002F933F934F935F936F937F938F939F9343
:101DD000AF93BF93EF93FF938BE294E00E94A00533
:101DE000FF91EF91BF91AF919F918F917F916F91F3
:101DF0005F914F913F912F910F900FBE0F901F90C9
:101E000018951F920F920FB60F9211242F938F9354
:101E10009F93EF93FF93E0913B04F0913C0480810A
:101E2000E0914104F091420482FD1BC090818091B9
:101E300044048F5F8F7320914504821741F0E09135
:101E40004404F0E0E55DFB4F958F80934404FF91DF
:101E5000EF919F918F912F910F900FBE0F901F9038
:101E600018958081F4CF1F920F920FB60F92112414
:101E70002F933F934F935F936F937F938F939F9392
:101E8000AF93BF93EF93FF938091B900887F803623
:101E900009F44AC0F0F5883209F4A5C018F580317C
:101EA00009F499C0B8F4882309F4F5C0883009F41E
:101EB00092C0FF91EF91BF91AF919F918F917F91D0
:101EC0006F915F914F913F912F910F900FBE0F90A7
:101ED0001F901895883109F486C0803251F780939D
:101EE000EE0314C0803409F49BC040F48033B9F38E
:101EF0008833F9F68093EE0385ECAEC0803509F4A3
:101F000083C0883509F494C0883499F60E941C0E69
:101F1000D0CF883909F48AC038F5883729F050F4D1
:101F2000883611F0803729F683E08093EF03109212
:101F3000ED0355C0883809F479C0803919F080382C
:101F400009F0B7CF8091ED03803208F06FC0E091C7
:101F5000ED0381E08E0F8093ED038091BB00F0E0F4
:101F6000E353FC4F80833BC0803B39F0D0F4803A90
:101F700009F477C0883A09F09CCF84E08093EF039E
:101F80001092CC031092CB03F0E0E0E00995809131
:101F9000CB0381110FC081E08093CB031092AB0380
:101FA00009C0803C09F4A8CF883C09F4A5CF883B40
:101FB00009F07FCFE091CC0381E08E0F8093CC03BA
:101FC000F0E0E555FC4F80818093BB009091CC03FD
:101FD0008091CB0329C0809114048093BB0085ECD1
:101FE0008093BC0066CF90911304809112049817DF
:101FF00058F5E091130481E08E0F80931304F0E014
:10200000EE50FC4F8081E9CFE091130481E08E0F08
:10201000809313048091BB00F0E0EE50FC4F80836E
:1020200090911304809112049817C8F285E8D8CFD4
:10203000E091130481E08E0F809313048091BB0024
:10204000F0E0EE50FC4F80838091F10381115ECF70
:1020500081E08093F00384EA8093BC001092EF0348
:1020600028CF85EC8093BC001092EF038091ED03A4
:10207000803230F4E091ED03F0E0E353FC4F108246
:102080006091ED0370E08DEC93E0F0E0E0E0099505
:102090001092ED030ECF1092EE0338CFFC01808139
:1020A0009181009711F00C94F91B089584E195E05B
:1020B0000E944E108AE195E00E944E1080E295E069
:1020C0000E944E1086E295E00C944E10EF92FF9223
:1020D0000F931F93CF93DF93EC017B01198218823A
:1020E0001B821A821D821C82FB0101900020E9F7ED
:1020F00031978F01061B170BB8016F5F7F4F90E080
:1021000080E00E94821C0097B9F0998388831B832A
:102110000A832C813D81232B11F4FC0110821D8345
:102120000C83B70188819981DF91CF911F910F9125
:10213000FF90EF900C944D1D88819981009711F0CC
:102140000E94F91B198218821D821C821B821A822E
:10215000DF91CF911F910F91FF90EF900895CF9253
:10216000DF92FF920F931F93CF93DF93EBE2F4E0A4
:102170001382128288EE93E0A0E0B0E0848395831E
:10218000A683B78383E093E09183808385EC90E01E
:102190009587848784EC90E09787868780EC90E031
:1021A000918B808B81EC90E0938B828B82EC90E022
:1021B000958B848B86EC90E0978B868B118E128E9C
:1021C000138E148ECCE2D5E01B821A8224E530E017
:1021D0003D832C8380E390E09F838E83398728871B
:1021E0009B878A871E8A1D861C861F861E86FF2463
:1021F000F394FD8AFC8A8FEF9FEF9B8B8A8B998BE0
:10220000888BFF8A188E1A8E198E85E193E0998348
:1022100088838CE190E00E945D1B8C0185E0D801F1
:102220001B968C931B9782E01C968C931C978FEFC8
:102230001E968C931E9783E01D968C931D97E3EB5F
:10224000F5E0E491F0E0EE0FFF1FEC55FA4F8591B9
:102250009491F801968B858BE5E9F5E0E4915A9627
:10226000EC935A97E1EBF5E0E491F0E0EE0FFF1FFD
:10227000EC55FA4F85919491F801908B8787E3E9AB
:10228000F5E0E4915796EC935797E0EBF5E0E49195
:10229000F0E0EE0FFF1FEC55FA4F85919491F80195
:1022A000928B818BE2E9F5E0E4915996EC9380E022
:1022B00099E0ADE3B0E0F80184839583A683B7830A
:1022C000CC24C394D12CD186C0861286138E82E092
:1022D00090E00E945D1B20E5DC012C9311961C927E
:1022E000F80193838283118210821C8F0B8F84E00C
:1022F0008E8F86E08D8F60E473E086E295E00E9429
:10230000661068E473E080E295E00E94661060E584
:1023100073E08AE195E00E94661067E573E084E16E
:1023200095E00E946610E8EDF4E080ED94E0978F70
:10233000868F84ED94E0958F848F8CEC94E091A34C
:1023400080A312AE12AA13AA14AA15AA80E090E0E4
:10235000AFE7B3E486AB97ABA0AFB1AF84E690E054
:10236000A0E0B0E086A797A7A0ABB1AB118E108E0E
:10237000D38EC28EF3AE80E090E0A0E5B0E480831F
:102380009183A283B38314821582168217821086EA
:1023900011861286138684879587A687B787108A49
:1023A000118A128A138A148A158A168A178A2FB7F5
:1023B000F8948091C8049091C904A091CA04B09186
:1023C000CB042FBF46A557A560A971A9841B950B07
:1023D000A60BB70B82A393A3A4A3B5A3DF91CF91C0
:1023E0001F910F91FF90DF90CF900895CF93DF93CF
:1023F000CDB7DEB72E970FB6F894DEBF0FBECDBFB8
:10240000789484B5826084BD84B5816084BD85B5CF
:10241000826085BD85B5816085BD80916E008160DB
:1024200080936E0010928100809181008260809381
:102430008100809181008160809381008091800083
:102440008160809380008091B10084608093B100AE
:102450008091B00081608093B00080917A008460A8
:1024600080937A0080917A00826080937A008091D4
:102470007A00816080937A0080917A0080688093EE
:102480007A001092C100E0913B04F0913C0482E09C
:102490008083E0913704F09138041082E091390490
:1024A000F0913A048FEC808310924304E0913F0452
:1024B000F091400486E08083E0913D04F0913E0479
:1024C000808180618083E0913D04F0913E048081B1
:1024D00088608083E0913D04F0913E0480818068B3
:1024E0008083E0913D04F0913E0480818F7D808364
:1024F00061E08CE00E946E0361E08DE00E946E035B
:1025000060E089E00E946E03209147053091480504
:102510003A832983D9011B968C918F3F49F061E062
:102520000E946E0361E0E981FA8183850E94400385
:10253000A981BA818D919C91892B09F41CC11FB787
:10254000F89480911504811127C0E8EBF5E084919F
:10255000EAE9F5E09491E82FF0E0EE0FFF1FE8596B
:10256000FA4FA591B491EC91E92321F461E08AE05E
:102570000E94400361E08AE00E946E038CB5806196
:102580008CBD8CB580648CBD61E08DE00E946E03D3
:1025900061E08BE00E946E03809115048F5F809351
:1025A00015041FBF81E0E981FA81838F61E080918A
:1025B0004A050E946E038091490587FD03C061E0D2
:1025C0000E946E0384E080934C0588E280934B0563
:1025D00010924D0510924E050E94320C10924F053C
:1025E00080915005833508F483E58093500510925F
:1025F0005105809152058F3208F48FE28093520585
:102600000E94820C81E10E949F0324E630E0DC01FD
:102610000E943C1B2FEF33E040E050E00E94741911
:10262000CA01B9010E9457186093220470932304D1
:10263000809324049093250480E10E949F036C0101
:10264000990FEE08FF08C701B6010E945718609362
:102650001E0470931F048093200490932104A7010B
:1026600096012453310941095109A3E8BFEF0E94A3
:10267000A11923EC32E040E050E00E947419CA0135
:10268000B90163587F4F8F4F9F4F0E945718609337
:10269000D4047093D5048093D6049093D70482E138
:1026A0000E949F039A838983BC01990F880B990B21
:1026B0000E94571860931A0470931B0480931C04A3
:1026C00090931D042CE030E0A981BA810E943C1B4C
:1026D00024EF33E040E050E00E947419CA01B901D0
:1026E000625E7F4F8F4F9F4F0E9457186093CC04BC
:1026F0007093CD048093CE049093CF048091120503
:1027000081117AC0E091F604F091F704C080D18085
:10271000E280F380C092FE04D092FF04E0920005B4
:10272000F0920105E091F404F091F504808191812B
:10273000A281B3818093020590930305A0930405C1
:10274000B093050580900E0590900F05A0901005A0
:10275000B0901105A5019401C701B6010E94231B89
:102760001816D4F58092FE049092FF04A092000502
:10277000B092010541C061E0E981FA8184850E943F
:102780006E03A981BA811A968C911A978B7FF9F4FE
:1027900060E01C968C910E944003A981BA811D962D
:1027A0008C918F3F49F061E00E946E0361E0E98106
:1027B000FA8185850E944003A981BA811E968C9179
:1027C0008F3F09F4EFCE60E00E946E03EBCE61E034
:1027D000E981FA818485DFCF80900A0590900B050E
:1027E000A0900C05B0900D05A5019401C701B6019C
:1027F0000E94501887FDB6CF81E08093120520918A
:10280000F2043091F3042130310509F080E0809327
:102810001305812C912C90E5A92E90E4B92E80927D
:10282000D8049092D904A092DA04B092DB041092FA
:10283000DC041092DD041092DE041092DF0410928A
:10284000E0041092E1041092E2041092E30460911B
:1028500006057091070580910805909109050E9471
:10286000551820E030E04AE754E40E947B1A6B01DF
:102870007C018092E4049092E504A092E604B09278
:10288000E70420E030E0A9010E94B6184B015C018A
:102890008092E8049092E904A092EA04B092EB04DA
:1028A000A701960160E070E0CB010E947B1A6B01EA
:1028B0007C01C092EC04D092ED04E092EE04F09220
:1028C000EF048091F0049091F104019751F580E0BC
:1028D00090E0A0E5B0EC8093E4049093E504A0932D
:1028E000E604B093E704A501940160E070E0CB0139
:1028F0000E940E1A6093E8047093E9048093EA043E
:102900009093EB04A701960160E070E0CB010E9478
:102910000E1A6093EC047093ED048093EE04909390
:10292000EF0480910001882359F186E295E00E942E
:1029300046056FE573E08BE294E00E941A0E80E298
:1029400095E00E9446056FE573E08BE294E00E94FB
:102950001A0E8AE195E00E9446056FE573E08BE26E
:1029600094E00E941A0E84E195E00E9446056DE312
:1029700073E08BE294E00E946E0D10920001D1CFC3
:1029800081E10E949F0324E630E0DC010E943C1BB1
:102990002FEF33E040E050E00E947419CA01B90102
:1029A0000E94571860932204709323048093240498
:1029B0009093250480E10E949F036C01990FEE081B
:1029C000FF08C701B6010E94571860931E04709358
:1029D0001F048093200490932104A701960124539F
:1029E000310941095109AEECBFEF0E94A11923EC56
:1029F00032E040E050E00E947419CA01B9016E5CF7
:102A00007F4F8F4F9F4F0E9457186093D40470934D
:102A1000D5048093D6049093D70482E10E949F034B
:102A20009A838983BC01990F880B990B0E945718D0
:102A300060931A0470931B0480931C0490931D04EC
:102A40002CE030E0A981BA810E943C1B24EF33E0E6
:102A500040E050E00E947419CA01B901625E7F4FE4
:102A60008F4F9F4F0E9457186093CC047093CD04F2
:102A70008093CE049093CF0464E670E080E090E011
:102A80000E94E70480911205882309F42FC18FB7B3
:102A9000F8942091C8043091C9044091CA0450911F
:102AA000CB0429873A874B875C878FBF8091FA04D4
:102AB0009091FB04A091FC04B091FD0449855A85D6
:102AC0006B857C85481B590B6A0B7B0B8091060537
:102AD00090910705A0910805B0910905481759077D
:102AE0006A077B0708F402C1E091F404F091F50451
:102AF0004080518062807380E091F804F091F90485
:102B0000A301920160817181828193810E940E1ADA
:102B10006B017C0120910205309103054091040571
:102B200050910505C301B2010E940E1A69837A8390
:102B30008B839C832091E8043091E9044091EA045E
:102B40005091EB04C701B6010E94B6182091FE0413
:102B50003091FF0440910005509101050E940F1A29
:102B60004B015C018092FE049092FF04A09200054C
:102B7000B09201053090130531101CC02091E4047F
:102B80003091E5044091E6045091E70469817A812F
:102B90008B819C810E94B6189B01AC01C501B401D8
:102BA0000E940E1A6093FE047093FF048093000548
:102BB000909301058091FE049091FF04A09100057F
:102BC000B09101058D839E83AF83B88700910E0578
:102BD00010910F05909110059E87A0911105AD876A
:102BE0009801492F5A2F6D817E818F8198850E948F
:102BF000231B18160CF0E3C1C801AE85BD85809378
:102C0000FE049093FF04A0930005B09301053320C8
:102C100009F4F0C12091E4043091E5044091E60408
:102C20005091E704C701B6010E94B6186B017C0100
:102C30002091EC043091ED044091EE045091EF04AA
:102C400069817A818B819C810E94B6189B01AC01BD
:102C50006091FE047091FF04809100059091010540
:102C60000E940E1AA70196010E940F1A6B017C01A7
:102C70009B01AC01B8018E859D850E94501887FD8F
:102C800016C000910A0510910B05B0910C05BE8786
:102C9000E0910D05ED8798014B2F5E2FB601C7011E
:102CA0000E94501887FD03C08601EE86FD86E091E4
:102CB000F604F091F704C801AE85BD858083918349
:102CC000A283B383409202055092030560920405EB
:102CD0007092050529853A854B855C852093FA0419
:102CE0003093FB044093FC045093FD04C090D00447
:102CF000D090D104E090D204F090D304C701B60183
:102D00000E94ED1A9B01AC01A0E5B0E00E9493196E
:102D10002FEF30E040E050E00E947419CA01B90181
:102D20000E94571860931604709317048093180438
:102D300090931904C701B6010E94ED1A6B017A83C2
:102D4000698361E083E10E946E0349815A81452BCA
:102D500009F054C160E083E10E9440032091160411
:102D60003091170440911804509119046091D404D3
:102D70007091D5048091D6049091D7040E940F1AC7
:102D80006B017C0120E030E040EF51E40E945018DC
:102D900061E087FD7FC120E030E048E252E4C701F6
:102DA000B6010E94231B18160CF073C161E08DE080
:102DB0000E94400360E08CE00E944003A1E0B1E08B
:102DC000E8EFF1E01D923197E9F710924F058091FD
:102DD0005005833508F483E5809350051092510522
:102DE000809152058F3208F48FE280935205109241
:102DF00039051092380510923B0510923A0561E6AC
:102E000073E08CE295E00E941A0E6EE373E08CE2B0
:102E100095E00E941A0E6FE673E08CE295E00E9446
:102E20001A0E6EE373E08CE295E00E941A0E6EE7D4
:102E300073E08CE295E00E941A0E6091220470917A
:102E4000230480912404909125040E94ED1A8CE2C1
:102E500095E00E94F20D6AE873E08CE295E00E9432
:102E60001A0E6091160470911704809118049091C5
:102E700019040E94ED1A8CE295E00E94F20D63E9BC
:102E800073E08CE295E00E941A0E6091D404709178
:102E9000D5048091D6049091D7040E94ED1A8CE25B
:102EA00095E00E94F20D6BE973E08CE295E00E94E0
:102EB0001A0E6091CC047091CD048091CE04909153
:102EC000CF040E94ED1A8CE295E00E94F20D0E9460
:102ED000820CEBE7F5E08491E9E9F5E0F491FD83FC
:102EE000E7EBF5E0F491F983FF2309F45BC081116E
:102EF0000E9417032981E22FF0E0EE0FFF1FEA572F
:102F0000FA4FA591B4918C913D81382309F44AC0C0
:102F100060912204709123048091240490912504EF
:102F20000E94ED1A8BE294E00E94100E6FE573E0B0
:102F30008BE294E00E941A0E6091160470911704BF
:102F400080911804909119040E94ED1A8BE294E08C
:102F50000E94100E6FE573E08BE294E00E941A0E5F
:102F60006091D4047091D5048091D6049091D704D7
:102F70000E94ED1A8BE294E00E94100E6FE573E060
:102F80008BE294E00E941A0E6091CC047091CD0403
:102F90008091CE049091CF040E94ED1A8BE294E0D0
:102FA0000E94F20D40E050E0452B09F4BACC0E949B
:102FB0008C05882309F4B5CC0E940000B2CC809027
:102FC0000A0590900B05A0900C05B0900D05A50189
:102FD00094016D817E818F8198850E94501887FFB2
:102FE00016CE8092FE049092FF04A0920005B0924B
:102FF00001050DCEC12CD12C76011ACE89819A8182
:103000008F3F910511F461E0A6CEE5E8F5E08491EB
:10301000833029F150F48130C1F08230D9F0298118
:103020003A81203831057CF795CE873011F1883010
:1030300041F18430A1F7809180008062809380000C
:10304000D0928B00C0928A0089CE84B5806884BDFE
:10305000C7BC84CE84B5806284BDC8BC7FCE80915D
:103060008000806880938000D0928900C0928800A0
:1030700075CE8091B00080688093B000C092B3009C
:103080006DCE8091B00080628093B000C092B40099
:1030900065CE60E08CE00E94400360E08DE08CCE65
:1030A0000E94921808F481E00895E89409C097FB03
:1030B0003EF490958095709561957F4F8F4F9F4F0F
:1030C0009923A9F0F92F96E9BB279395F695879553
:1030D00077956795B795F111F8CFFAF4BB0F11F416
:1030E00060FF1BC06F5F7F4F8F4F9F4F16C08823BD
:1030F00011F096E911C0772321F09EE8872F762FF3
:1031000005C0662371F096E8862F70E060E02AF033
:103110009A95660F771F881FDAF7880F969587951F
:1031200097F90895990F0008550FAA0BE0E8FEEFF4
:1031300016161706E807F907C0F012161306E4077B
:10314000F50798F0621B730B840B950B39F40A2674
:1031500061F0232B242B252B21F408950A2609F452
:10316000A140A6958FEF811D811D08950E94C91869
:103170000C943A190E942C1938F00E94331920F04F
:10318000952311F00C9423190C94291911240C94F3
:103190006E190E944B1970F3959FC1F3950F50E083
:1031A000551F629FF001729FBB27F00DB11D639FF9
:1031B000AA27F00DB11DAA1F649F6627B00DA11D9F
:1031C000661F829F2227B00DA11D621F739FB00D45
:1031D000A11D621F839FA00D611D221F749F3327B5
:1031E000A00D611D231F849F600D211D822F762F4E
:1031F0006A2F11249F5750409AF0F1F088234AF02B
:10320000EE0FFF1FBB1F661F771F881F9150504096
:10321000A9F79E3F510580F00C9423190C946E1968
:103220005F3FE4F3983ED4F3869577956795B7951D
:10323000F795E7959F5FC1F7FE2B880F911D969537
:10324000879597F9089597F99F6780E870E060E0A7
:1032500008959FEF80EC089500240A94161617062F
:1032600018060906089500240A9412161306140677
:1032700005060895092E0394000C11F4882352F0DA
:10328000BB0F40F4BF2B11F460FF04C06F5F7F4F92
:103290008F4F9F4F089557FD9058440F551F59F079
:1032A0005F3F71F04795880F97FB991F61F09F3F33
:1032B00079F087950895121613061406551FF2CF5C
:1032C0004695F1DF08C0161617061806991FF1CFAC
:1032D00086957105610508940895E894BB276627D3
:1032E0007727CB0197F90895052E97FB1EF40094DC
:1032F0000E948B1957FD07D00E94DD1907FC03D0EF
:103300004EF40C948B1950954095309521953F4F74
:103310004F4F5F4F089590958095709561957F4FC1
:103320008F4F9F4F08950E94FF19A59F900DB49F46
:10333000900DA49F800D911D11240895B7FF0C944A
:1033400093190E949319821B930B08952F923F9219
:103350004F925F926F927F928F929F92AF92BF92A5
:10336000CF92DF92EF92FF920F931F93CF93DF9351
:10337000CDB7DEB7CA1BDB0B0FB6F894DEBF0FBEAE
:10338000CDBF09942A88398848885F846E847D84FB
:103390008C849B84AA84B984C884DF80EE80FD80FD
:1033A0000C811B81AA81B981CE0FD11D0FB6F89473
:1033B000DEBF0FBECDBFED010895A1E21A2EAA1BFC
:1033C000BB1BFD010DC0AA1FBB1FEE1FFF1FA217D5
:1033D000B307E407F50720F0A21BB30BE40BF50BD2
:1033E000661F771F881F991F1A9469F7609570955B
:1033F000809590959B01AC01BD01CF010895A29FDE
:10340000B001B39FC001A39F700D811D1124911DB8
:10341000B29F700D811D1124911D08955058BB2736
:10342000AA270E94261A0C943A190E942C1938F0E7
:103430000E94331920F039F49F3F19F426F40C94BC
:1034400029190EF4E095E7FB0C942319E92F0E944B
:103450004B1958F3BA17620773078407950720F0D2
:1034600079F4A6F50C946D190EF4E0950B2EBA2F95
:10347000A02D0B01B90190010C01CA01A00111247A
:10348000FF27591B99F0593F50F4503E68F11A1626
:10349000F040A22F232F342F4427585FF3CF4695B7
:1034A00037952795A795F0405395C9F77EF41F16D9
:1034B000BA0B620B730B840BBAF09150A1F0FF0FA3
:1034C000BB1F661F771F881FC2F70EC0BA0F621F8F
:1034D000731F841F48F4879577956795B795F7957F
:1034E0009E3F08F0B0CF9395880F08F09927EE0F14
:1034F0009795879508950E948F1A0C943A190E9407
:10350000331958F00E942C1940F029F45F3F29F03C
:103510000C94231951110C946E190C9429190E94C2
:103520004B1968F39923B1F3552391F3951B550B70
:10353000BB27AA2762177307840738F09F5F5F4F86
:10354000220F331F441FAA1FA9F335D00E2E3AF0C5
:10355000E0E832D091505040E695001CCAF72BD0DD
:10356000FE2F29D0660F771F881FBB1F261737072E
:103570004807AB07B0E809F0BB0B802DBF01FF2760
:1035800093585F4F3AF09E3F510578F00C94231901
:103590000C946E195F3FE4F3983ED4F386957795CB
:1035A0006795B795F7959F5FC9F7880F911D969519
:1035B000879597F90895E1E0660F771F881FBB1F75
:1035C000621773078407BA0720F0621B730B840B22
:1035D000BA0BEE1F88F7E09508950E94F41A6894DC
:1035E000B1110C946E1908950E94531988F09F57D9
:1035F00098F0B92F9927B751B0F0E1F0660F771F17
:10360000881F991F1AF0BA95C9F714C0B13091F00C
:103610000E946D19B1E008950C946D19672F782FF1
:103620008827B85F39F0B93FCCF3869577956795D1
:10363000B395D9F73EF490958095709561957F4F3D
:103640008F4F9F4F08950E94921808F48FEF0895AE
:1036500097FB072E16F4009407D077FD09D00E943F
:10366000431B07FC05D03EF4909581959F4F08952C
:10367000709561957F4F08950E94FF19B7FF0895D7
:10368000821B930B0895AA1BBB1B51E107C0AA1F05
:10369000BB1FA617B70710F0A61BB70B881F991FF3
:1036A0005A95A9F780959095BC01CD010895EE0F2C
:1036B000FF1F0590F491E02D09940F931F93CF9372
:1036C000DF938230910510F482E090E0E09155059F
:1036D000F091560530E020E0B0E0A0E0309799F49A
:1036E0002115310509F44AC0281B390B2430310556
:1036F000D8F58A819B816115710589F1FB0193835E
:103700008283FE0111C040815181028113814817DB
:103710005907E0F04817590799F4109761F012968D
:103720000C93129713961C933296CF01DF91CF9191
:103730001F910F9108950093550510935605F4CFEE
:103740002115310551F04217530738F0A901DB016B
:103750009A01BD01DF01F801C1CFEF01F9CF9093CC
:10376000560580935505CDCFFE01E20FF31F8193DF
:1037700091932250310939832883D7CF2091530563
:1037800030915405232B41F42091FB023091FC022F
:1037900030935405209353052091F9023091FA0299
:1037A0002115310541F42DB73EB74091FD025091EE
:1037B000FE02241B350BE0915305F0915405E217EE
:1037C000F307A0F42E1B3F0B2817390778F0AC0144
:1037D0004E5F5F4F2417350748F04E0F5F1F509321
:1037E000540540935305819391939FCFF0E0E0E01F
:1037F0009CCFCF93DF930097E9F0FC0132971382BF
:103800001282A0915505B0915605ED0130E020E0FF
:103810001097A1F420813181820F931F20915305CD
:10382000309154052817390709F061C0F093540509
:10383000E0935305DF91CF910895EA01CE17DF079A
:10384000E8F54A815B819E0141155105B1F7E90117
:10385000FB83EA8349915991C40FD51FEC17FD07EB
:1038600061F4808191810296840F951FE90199830B
:103870008883828193819B838A83F0E0E0E01296C3
:103880008D919C9113970097B9F52D913C911197CB
:10389000CD010296820F931F20915305309154055C
:1038A0002817390739F6309751F5109256051092BE
:1038B0005505B0935405A0935305BCCFD383C28361
:1038C00040815181840F951FC817D90761F44E5F5D
:1038D0005F4F88819981480F591F518340838A81A6
:1038E0009B81938382832115310509F0B0CFF0933A
:1038F0005605E09355059ECFFD01DC01C0CF138234
:103900001282D7CFB0E0A0E0E8E8FCE10C94A8195F
:103910008C01009751F4CB010E945D1B8C01C80102
:10392000CDB7DEB7E0E10C94C419FC01E60FF71F38
:103930009C0122503109E217F30708F49DC0D90118
:10394000CD91DC911197C617D70798F0C530D105F6
:1039500030F3CE0104978617970708F3C61BD70BE1
:103960002297C193D1936D937C93CF010E94F91B51
:10397000D6CF5B01AC1ABD0A4C018C0E9D1EA091E6
:103980005505B0915605512C412CF12CE12C109786
:1039900031F580915305909154058815990509F0EA
:1039A0005CC04616570608F058C08091F902909105
:1039B000FA02009741F48DB79EB74091FD025091F5
:1039C000FE02841B950BE817F90708F055C0F09329
:1039D0005405E0935305F90171836083A0CF8D9165
:1039E0009C91119712966C90129713967C90139756
:1039F000A815B90559F56C0142E0C40ED11CCA14D2
:103A0000DB0420F1AC014A195B09DA011296159723
:103A100080F06282738251834083D9016D937C93DD
:103A2000E114F10471F0D7011396FC93EE93129711
:103A300076CF22968C0F9D1FF90191838083F3012D
:103A4000EFCFF0935605E093550569CF4816590618
:103A500008F42C017D01D3019ACFCB010E945D1B9C
:103A60007C01009749F0AE01B8010E94441DC801D5
:103A70000E94F91B870153CF10E000E050CF81E096
:103A800090E0F8940C94541DFB01DC0102C00190FD
:103A90000D9241505040D8F70895FB01DC01019090
:103AA0000D920020E1F7089512E0C2EED2E004C0CA
:103AB000FE010E94571B2196C33ED107C9F7F89417
:103AC000FFCF010000000000000000000000000027
:103AD00000000000000000000000000000000000E6
:103AE000000000000000000000C0E0F0F8FCFCFE58
:103AF000FFFCE000000000000000000000000000EB
:103B000000000000000000000000000000000000B5
:103B100000000000000000000000000000000000A5
:103B20000000000000000000F8F8F8F8F8F8F8F8D5
:103B3000F8F8F8F8F0F0E0E0C080C0FCFFFFFFFF0D
:103B40007F3F7FFFFFFFFFFF00000000000000003D
:103B50000000000000000000000000000000000065
:103B60000000000000000000000000000000000055
:103B7000000000000000000000000000000F1F3FD8
:103B80007FFFFFFFFFFFFFFFFFE7C7C7878F9F9FF5
:103B9000FFFFFFC1C0E0FCFFFFFFFFFFFCFCFCFCE0
:103BA000FEFEFEFCFCF8F8F0E0C0C00000000000E3
:103BB0000000000000000000000000000000000005
:103BC00000000000000000000000000000000000F5
:103BD0000000000080C0E0F1FBFFFFFFFFFF7F1F40
:103BE0000F0F87E7FFFFFF1F1F3FF9F8F8F8F8F8FE
:103BF000F8FDFFFFFFFFFFFFFFFFFF7F3F0F070104
:103C000000000000000000000000000000000000B4
:103C100000000000000000000000000000000000A4
:103C2000000000000000F0FEFFFFFFFFFFFFFFFFAE
:103C3000FFFFFE7E3F3F0F1FFFFFFFFCF0E0F1FFA5
:103C4000FFFFFFFFFCF00101010101010101000084
:103C50000000000000000000000000000000000064
:103C60000000000000000000000000000000000054
:103C70000000000000000000000003030303030332
:103C800003030101010100000000000000030F1FF9
:103C90003F7F7FFFFFFFFF7F7F1F030000000000CB
:103CA0000000000000000000000000000000000014
:103CB0000000000000000000000000000057058028
:103CC0000000000000C20519054F050F0680055EC3
:103CD00005720500000000BB081905690D680DF8A4
:103CE0000C5606600B380B540B480B670B560681BD
:103CF00006E70CFF0AC60A810A640AEC098D090D61
:103D00000A0048756D6564616400436F6E74726F7C
:103D10006C0054656D705F730054656D705F6F70FB
:103D2000002C004461746F73206D656469646F7367
:103D3000002D2D2D2D2D2D2D2D2D2D2D2D2D2D000D
:103D400048756D656461642825293A00436F6E7477
:103D5000726F6C3A0054656D705F733A0054656D14
:063D6000705F6F703A0075
:107E0000112484B714BE81FFF0D085E080938100F7
:107E100082E08093C00088E18093C10086E0809377
:107E2000C20080E18093C4008EE0C9D0259A86E02C
:107E300020E33CEF91E0309385002093840096BBD3
:107E4000B09BFECF1D9AA8958150A9F7CC24DD24C4
:107E500088248394B5E0AB2EA1E19A2EF3E0BF2EE7
:107E6000A2D0813461F49FD0082FAFD0023811F036
:107E7000013811F484E001C083E08DD089C08234E0
:107E800011F484E103C0853419F485E0A6D080C0E4
:107E9000853579F488D0E82EFF2485D0082F10E0AE
:107EA000102F00270E291F29000F111F8ED06801E7
:107EB0006FC0863521F484E090D080E0DECF843638
:107EC00009F040C070D06FD0082F6DD080E0C81688
:107ED00080E7D80618F4F601B7BEE895C0E0D1E017
:107EE00062D089930C17E1F7F0E0CF16F0E7DF06D8
:107EF00018F0F601B7BEE89568D007B600FCFDCFD4
:107F0000A601A0E0B1E02C9130E011968C91119780
:107F100090E0982F8827822B932B1296FA010C0160
:107F200087BEE89511244E5F5F4FF1E0A038BF0790
:107F300051F7F601A7BEE89507B600FCFDCF97BE46
:107F4000E89526C08437B1F42ED02DD0F82E2BD052
:107F50003CD0F601EF2C8F010F5F1F4F84911BD097
:107F6000EA94F801C1F70894C11CD11CFA94CF0C13
:107F7000D11C0EC0853739F428D08EE10CD085E9AC
:107F80000AD08FE07ACF813511F488E018D01DD067
:107F900080E101D065CF982F8091C00085FFFCCF94
:107FA0009093C60008958091C00087FFFCCF809118
:107FB000C00084FD01C0A8958091C6000895E0E648
:107FC000F0E098E1908380830895EDDF803219F02E
:107FD00088E0F5DFFFCF84E1DECF1F93182FE3DFCA
:107FE0001150E9F7F2DF1F91089580E0E8DFEE27F6
:047FF000FF270994CA
:027FFE00040479
:00000001FF
