:100000000C94DD020C9405030C9405030C94050379
:100010000C9405030C9405030C9405030C94050340
:100020000C9405030C9405030C9405030C94050330
:100030000C9405030C9405030C9405030C94050320
:100040000C945C0E0C9405030C94CC0E0C94A60E30
:100050000C9405030C9405030C9405030C94050300
:100060000C94FE0E0C94050300000000003E5B4F54
:100070005B3E3E6B4F6B3E1C3E7C3E1C183C7E3C08
:10008000181C577D571C1C5E7F5E1C00183C180016
:10009000FFE7C3E7FF0018241800FFE7DBE7FF30A6
:1000A000483A060E2629792926407F050507407F14
:1000B00005253F5A3CE73C5A7F3E1C1C08081C1C87
:1000C0003E7F14227F22145F5F005F5F06097F017D
:1000D0007F006689956A606060606094A2FFA29468
:1000E00008047E040810207E201008082A1C080836
:1000F0001C2A08081E101010100C1E0C1E0C303884
:100100003E3830060E3E0E06000000000000005F84
:1001100000000007000700147F147F14242A7F2AA0
:100120001223130864623649562050000807030062
:10013000001C2241000041221C002A1C7F1C2A08AE
:10014000083E080800807030000808080808000011
:1001500060600020100804023E5149453E00427F85
:10016000400072494949462141494D331814127FD4
:100170001027454545393C4A494931412111090774
:100180003649494936464949291E000014000000F5
:1001900040340000000814224114141414140041C7
:1001A00022140802015909063E415D594E7C121184
:1001B000127C7F494949363E414141227F414141BC
:1001C0003E7F494949417F090909013E4141517337
:1001D0007F0808087F00417F41002040413F017FA8
:1001E000081422417F404040407F021C027F7F0470
:1001F00008107F3E4141413E7F090909063E4151B9
:10020000215E7F09192946264949493203017F01A8
:10021000033F4040403F1F2040201F3F4038403FA9
:10022000631408146303047804036159494D4300BF
:100230007F4141410204081020004141417F0402F6
:10024000010204404040404000030708002054548D
:1002500078407F284444383844444428384444286B
:100260007F385454541800087E090218A4A49C78BE
:100270007F0804047800447D40002040403D007F1A
:100280001028440000417F40007C047804787C08FA
:100290000404783844444438FC18242418182424CE
:1002A00018FC7C08040408485454542404043F44B3
:1002B000243C4040207C1C2040201C3C4030403CE2
:1002C00044281028444C9090907C4464544C440042
:1002D00008364100000077000000413608000201A6
:1002E0000204023C2623263C1EA1A161123A404092
:1002F000207A38545455592155557941225454780F
:1003000042215554784020545579400C1E527212A7
:100310003955555559395454545939555454580030
:1003200000457C410002457D420001457C407D1234
:1003300011127DF0282528F07C5455450020545496
:100340007C547C0A097F4932494949323A44444441
:100350003A324A4848303A4141217A3A424020787C
:10036000009DA0A07D3D4242423D3D4040403D3C7D
:1003700024FF2424487E4943662B2FFC2F2BFF09A2
:1003800029F620C0887E0903205454794100004496
:100390007D413048484A32384040227A007A0A0A81
:1003A000727D0D19317D2629292F282629292926F4
:1003B00030484D4020380808080808080808382F39
:1003C00010C8ACBA2F102834FA00007B00000814C3
:1003D0002A142222142A14085500550055AA55AA99
:1003E00055AAFF55FF55FF000000FF00101010FF39
:1003F00000141414FF001010FF00FF1010F010F094
:10040000141414FC001414F700FF0000FF00FF1484
:1004100014F404FC141417101F10101F101F1414D0
:10042000141F00101010F0000000001F101010101A
:100430001F10101010F010000000FF10101010100E
:1004400010101010FF10000000FF140000FF00FF4C
:1004500000001F10170000FC04F4141417101714E8
:1004600014F404F40000FF00F7141414141414140A
:10047000F700F7141414171410101F101F1414147D
:10048000F4141010F010F000001F101F0000001FE7
:1004900014000000FC140000F010F01010FF10FF1A
:1004A000141414FF141010101F00000000F010FFAF
:1004B000FFFFFFFFF0F0F0F0F0FFFFFF0000000093
:1004C00000FFFF0F0F0F0F0F3844443844FC4A4A17
:1004D0004A347E02020606027E027E0263554941CC
:1004E000633844443C04407E201E2006027E020203
:1004F00099A5E7A5991C2A492A1C4C7201724C3017
:100500004A4D4D303048784830BC625A463D3E49ED
:100510004949007E0101017E2A2A2A2A2A44445F91
:10052000444440514A444040444A51400000FF0185
:1005300003E080FF000008086B6B08361236243693
:10054000060F090F060000181800000010100030F8
:1005500040FF0101001F01011E00191D1712003C80
:100560003C3C3C000000000000000000240027008C
:100570002A00000000080002010000030407000038
:100580000000000000000102040810204080010269
:1005900004081020010204081020000000002500BB
:1005A00028002B00040404040404040402020202D0
:1005B0000202030303030303191011241FBECFEF2C
:1005C000D8E0DEBFCDBF13E0A0E0B1E0E6ECF4E39D
:1005D00002C005900D92AE38B107D9F725E0AEE81C
:1005E000B3E001C01D92A532B207E1F712E0CDEDF4
:1005F000D2E004C02197FE010E943119CC3DD10701
:10060000C9F70E9448110C94611A0C940000FC0177
:1006100020812EBD0DB407FEFDCF2EB5FC01208339
:10062000089590E0FC01EE58FA4F2491FC01EA573E
:10063000FA4F3491FC01EC55FA4FE491EE23C9F0E6
:10064000222339F0233001F1A8F4213019F12230AE
:1006500029F1F0E0EE0FFF1FE656FA4FA591B49195
:100660008FB7F894EC91611126C030953E233C93EE
:100670008FBF08952730A9F02830C9F0243049F7FA
:10068000809180008F7D03C0809180008F77809360
:100690008000DFCF84B58F7784BDDBCF84B58F7DBD
:1006A000FBCF8091B0008F778093B000D2CF809144
:1006B000B0008F7DF9CF3E2BDACFCF93DF9390E060
:1006C000FC01EA57FA4F24918C559A4FFC01849112
:1006D0008823D1F090E0880F991FFC01E859FA4F68
:1006E000A591B491FC01E656FA4FC591D4916111E0
:1006F0000EC09FB7F8948C91E22FE0958E238C93D7
:100700002881E223E8839FBFDF91CF9108958FB7BF
:10071000F894EC91E22BEC938FBFF6CF8E5080646F
:1007200080937C0080917A00806480937A0080912D
:100730007A0086FDFCCF8091780090917900089531
:100740008230910538F0880F991F880F991F0597FF
:100750000197F1F708959F92AF92BF92CF92DF92E7
:10076000EF92FF920F931F93CF93DF93EC016B01F6
:100770008885998511E0892B09F010E8F601A080A1
:100780008A2D8123992493948111912C2C813D8170
:100790004E815F8160E271EA87E090E00E9400177D
:1007A000022FB12CE22EF12C002319F0C7010E9478
:1007B000A0038A85877F09F04FC08D858F3F89F020
:1007C0009A2D912381E009F480E0891551F0EF859D
:1007D000F8898F899923D1F19081892B808399247D
:1007E0009394E989FA898081998D892B80830023EC
:1007F00019F0C7010E94A0038E858F3F39F0EB8965
:10080000FC898081988D892309F0B12AE989FA89C8
:100810009081898D8095892380838E858F3F11F00B
:10082000F601B08288859985892B09F044C0110FA3
:100830001111BACFDF91CF911F910F91FF90EF90DF
:10084000DF90CF90BF90AF909F900895908180955A
:1008500089238083912CC5CFE989FA898081998D7C
:10086000892B8083002319F0C7010E94A0038D8586
:100870008F3F49F0EF85F8898F899A2D9123B9F040
:100880009081892B8083E989FA899081898D80956F
:10089000892380838E858F3F09F4BFCFEB89FC8944
:1008A0008081988D892309F4B8CFB12AB6CF908181
:1008B00080958923E7CF1695BBCFAF92BF92CF9299
:1008C000DF92EF92FF920F931F93CF93DF931F92CC
:1008D000CDB7DEB78C015B016A01DC018D919C9183
:1008E0001197892B39F01296ED91FC9190818181BD
:1008F0009CBD8DBDF80183858F3F19F060E00E949B
:1009000011037501CA0CDB1CCE14DF04A9F0D7015A
:100910008D917D018983F80180819181892B29F056
:10092000CE0101960E940703EFCFBE016F5F7F4F9C
:10093000C8010E94AB03E8CFD8011B968C918F3F72
:1009400019F061E00E94110381E00F90DF91CF91D7
:100950001F910F91FF90EF90DF90CF90BF90AF90DD
:1009600008953FB7F89480910D0490910E04A091E2
:100970000F04B091100426B5A89B05C02F3F19F0B5
:100980000196A11DB11D3FBFBA2FA92F982F88270F
:10099000BC01CD01620F711D811D911D42E0660FEA
:1009A000771F881F991F4A95D1F708958F929F92BC
:1009B000AF92BF92CF92DF92EF92FF924B015C0118
:1009C0000E94B1046B017C010E94B1046C197D0985
:1009D0008E099F09683E734081059105A8F321E0C7
:1009E000821A9108A108B10888EEC80E83E0D81ECB
:1009F000E11CF11C81149104A104B10429F7FF90BA
:100A0000EF90DF90CF90BF90AF909F908F90089520
:100A1000AF92BF92CF92DF92EF92FF920F931F930C
:100A2000CF93DF936C017B018B01040F151FEB014A
:100A30005E01AE18BF08C017D10759F06991D60101
:100A4000ED91FC910190F081E02DC6010995892B73
:100A500079F7C501DF91CF911F910F91FF90EF9032
:100A6000DF90CF90BF90AF900895FC01538D448DDF
:100A7000252F30E0842F90E0821B930B541710F049
:100A8000CF96089501970895FC01918D828D981756
:100A900061F0A28DAE0FBF2FB11D5D968C91928D2E
:100AA0009F5F9F73928F90E008958FEF9FEF08955F
:100AB000FC01918D828D981731F0828DE80FF11D28
:100AC000858D90E008958FEF9FEF0895FC01918D43
:100AD000228D892F90E0805C9F4F821B91098F733C
:100AE0009927089581E194E00E94660521E0892B11
:100AF00009F420E0822F089580E090E0892B29F00E
:100B00000E94720581110C9400000895FC01A48DCF
:100B1000A80FB92FB11DA35ABF4F2C91848D90E01F
:100B200001968F739927848FA689B7892C93A08902
:100B3000B1898C91837080648C93938D848D98138C
:100B400006C00288F389E02D80818F7D808308951F
:100B5000EF92FF920F931F93CF93DF93EC0181E00D
:100B6000888F9B8D8C8D98131AC0E889F9898081B4
:100B700085FF15C09FB7F894EE89FF896083E889E7
:100B8000F98980818370806480839FBF81E090E0D9
:100B9000DF91CF911F910F91FF90EF900895F62E66
:100BA0000B8D10E00F5F1F4F0F731127E02E8C8D00
:100BB0008E110CC00FB607FCFACFE889F989808145
:100BC00085FFF5CFCE010E948605F1CFEB8DEC0FAE
:100BD000FD2FF11DE35AFF4FF0829FB7F8940B8F62
:100BE000EA89FB8980818062CFCFCF93DF93EC01CC
:100BF000888D8823B9F0AA89BB89E889F9898C9105
:100C000085FD03C0808186FD0DC00FB607FCF7CFC0
:100C10008C9185FFF2CF808185FFEDCFCE010E94C0
:100C20008605E9CFDF91CF9108952091B503260F76
:100C30003327331F21323105ECF42091D903FC0115
:100C400090E080E0243069F082E00895A091B5033F
:100C50002191AC014B565C4FA40FB52FB11D2C93C5
:100C60000196861798F38091B503680F6093B503DA
:100C700080E0089581E0089508958FEF9FEF089533
:100C80008FEF9FEF089580918E0390E0919581956D
:100C900091090895CF93DF93CB01EA01642F0E945D
:100CA0001506CE01DF91CF910895CF93DF931F9268
:100CB000CDB7DEB7698361E0CE0101960E941506CB
:100CC00081E090E00F90DF91CF9108950895FC01AD
:100CD0006370668B8481958126813781613039F01C
:100CE000633029F091878087338722870895318781
:100CF00020879387828708952F923F924F925F9229
:100D00006F927F928F929F92AF92BF92CF92DF921B
:100D1000EF92FF920F931F93CF93DF93CDB7DEB780
:100D20006A970FB6F894DEBF0FBECDBF9A8F898F3A
:100D30007A8369834A01D22E18870F833701BC2C2E
:100D4000DC0159962D913C915A972115310509F0F6
:100D500015C118968D919C911997681779070CF019
:100D6000D7C11A968D919C91481759070CF0D0C1A4
:100D70004C2C512CB6E0CB9E600D711D11247C874C
:100D80006B87161617060CF0C3C1EA2DF0E0FA8740
:100D9000E98793E0EE0FFF1F9A95E1F7F88BEF8755
:100DA000CF01840F951F181619060CF0B1C1A98D3B
:100DB000BA8D58968C91811104C0BFEABD1508F414
:100DC000D394A98DBA8DED91FC9111970284F3858E
:100DD000E02DCD010995B5E0DB9EC0011124E9812C
:100DE000FA81FC83EB83312C212C9C0128593F4F45
:100DF000388F2F8B4A2D50E05E8B4D8BEF89F88D0D
:100E0000E20DF31D44919E828D82D12CC12C69810B
:100E10007A81620D731D7A8B698B842F90E09C8B95
:100E20008B8BE98DFA8DA081B18140FF82C0F1E00A
:100E3000BF126FC0AF126DC01C96ED91FC912F8157
:100E40003885A4014C0D5D1D69897A89898D9A8D3B
:100E50000995EB89FC89F595E7954E2F5FEFC51A4B
:100E6000D50A6D817E818D899E89680F791F7E8369
:100E70006D8398E0C916D10481F6AFEF2A1A3A0AB9
:100E8000EB81FC81E40DF51DFC83EB83F5E02F166F
:100E9000310409F0B3CF2F81388526153705B9F015
:100EA000A98DBA8DED91FC91B1E0BB1257C0AB1288
:100EB00055C069817A816B5F7F4F0088F189E02D91
:100EC000830128E030E0A401898D9A8D0995A98DD0
:100ED000BA8DED91FC9111970688F789E02DCD012F
:100EE0006A960FB6F894DEBF0FBECDBFDF91CF91EB
:100EF0001F910F91FF90EF90DF90CF90BF90AF9038
:100F00009F908F907F906F905F904F903F902F9029
:100F100009941E96ED91FC91EF80F88409851A855D
:100F200092014D815E816B817C81898D9A8D0995BD
:100F300090CF2F8138852615370509F48ACF31E007
:100F4000B31207C0A31205C01C96ED91FC9193014A
:100F500078CF1E96ED91FC917301E0CF6B857C8577
:100F6000641975090684F785E02D73010F851889CA
:100F70009201A401898D9A8D0995A9CFF901349622
:100F80009491329745915491D91AB7E0DB9E400D68
:100F9000511D1124F901259134913C8B2B8BFA01C1
:100FA00025903490FA013296749031963491398BB1
:100FB000329664903196449041E04C1518F04A15F1
:100FC00008F07FC0662D062C000C770B7C836B83AA
:100FD000842D042C000C990B9E838D83A98DBA8DD2
:100FE000ED91FC9111970284F385E02DCD010995D7
:100FF000512CD12CC12CEA2DF0E0FA87E9872B2D5A
:1010000030E03C872B87A401440D511D47FC5A95C5
:10101000588F4F8B69817A81660D711D67FC7A95B7
:101020007E876D877989C71608F051CF2C2D30E067
:101030004D815E81420F531FA985BA854A9FC00129
:101040004B9F900D5A9F900D1124FC01E80DF91D46
:10105000F88BEF87852D612C4F89588D420F531FD8
:101060005E8B4D8B671408F050C044244394480EA7
:10107000877041F4C1010196EB89FC89E20DF31DF3
:10108000D4901C01D7FE19C0A98DBA8DED91FC91A9
:10109000662D70E0B1E0BB1219C0AB1217C02D85F0
:1010A0003E85620F731F0484F585E02D2F813885FE
:1010B0004D895E89898D9A8D0995DD0C6394842D07
:1010C000D1CF1E821D821C821B8288CF4B815C8106
:1010D000640F751FAB85BC856A9FC0016B9F900D27
:1010E0007A9F900D112469817A81680F791F068497
:1010F000F785E02DEF80F88409851A859D014F85DD
:101100005889898D9A8D0995D8CF570CC3948ACF69
:101110006A960FB6F894DEBF0FBECDBFDF91CF91B8
:101120001F910F91FF90EF90DF90CF90BF90AF9005
:101130009F908F907F906F905F904F903F902F90F7
:1011400008958F929F92AF92CF92EF92FF920F935A
:101150001F93CF93DF93EC01262F898D9A8D0097F3
:1011600009F051C06A30D1F41D861C868D8948E093
:10117000849F900111248E859F85820F931F9F87E6
:101180008E8781E090E0DF91CF911F910F91FF90CA
:10119000EF90CF90AF909F908F9008956D3089F32E
:1011A000CC88AD888F898823C1F08C859D8536E0F9
:1011B000C39E800D911D11244885598548175907F4
:1011C00064F44E855F851D861C8638E0A39EC001B1
:1011D0001124840F951F9F878E87EA88FB880889D2
:1011E00019894E855F856C857D85CE010E947C06C0
:1011F0002C898C859D8546E0249F800D911D1124AE
:101200009D878C87BECF6A3069F41D861C86FC01E1
:101210003896E4912D898E859F85E29F800D911DE2
:101220001124ADCF6D3009F4ACCFFC01349634916C
:10123000631708F4A6CF3296E491E61708F4A1CF1D
:10124000FC01329685909490462F431B342F47E043
:10125000349F800C911C1124F40132963491319604
:10126000E4913323A9F1EE2399F1CC88F40135966A
:10127000E491AD884F89442301F10E2E000CFF0B41
:10128000E30FF11DCE9EA001CF9E500D11246C8561
:101290007D85460F571F68857985641775076CF43F
:1012A0004E855F851D861C86FC013896E491AE9EB6
:1012B000400D511D11245F874E87EA88FB880889FD
:1012C00019894E855F856C857D85CE010E947C06DF
:1012D000F4013496E4912C898C859D85E29F800DE4
:1012E000911D11248DCF6F927F928F929F92AF921A
:1012F000BF92CF92DF92EF92FF920F931F93CF9303
:10130000DF93EC016B015A0139014801E881F98151
:101310000284F385E02D0995E881F9810288F3893B
:10132000E02D87019301A501B601CE010995A50124
:10133000480D591D41505109E881F9810288F3890E
:10134000E02D9301B601CE010995E881F98100886D
:10135000F189E02D9401A501B601CE010995C60CD5
:10136000D71CB60161507109E881F9810088F189C3
:10137000E02D9401A501CE010995E881F981068847
:10138000F789E02DCE01DF91CF911F910F91FF9052
:10139000EF90DF90CF90BF90AF909F908F907F9015
:1013A0006F9009946F927F928F929F92AF92BF92AB
:1013B000CF92DF92EF92FF920F931F93CF93DF9321
:1013C0005C01EB016A01490138018701DC01ED9103
:1013D000FC916217730719F5641675062CF0962DAB
:1013E000872D3A01C92ED82E9601261937092F5F6D
:1013F0003F4F048CF58DE02DA301BE01C501099579
:10140000DF91CF911F910F91FF90EF90DF90CF90E0
:10141000BF90AF909F908F907F906F9008954615EA
:10142000570591F42617370724F0892D4B01C22F59
:10143000D82F9E01281939092F5F3F4F068CF78D51
:10144000E02DA601B401DACF0284F385E02D0995E1
:10145000D501ED91FC910488F589E02D830194017B
:10146000A601BE01C5010995D501ED91FC91068843
:10147000F789E02DC501DF91CF911F910F91FF906A
:10148000EF90DF90CF90BF90AF909F908F907F9024
:101490006F900994EF92FF920F931F93DC011A96BD
:1014A0000D911C911B9718962D913C911997ED91D8
:1014B000FC9100A0F1A1E02D7B0150E040E070E044
:1014C00060E009951F910F91FF90EF9008954F9262
:1014D0005F926F927F928F929F92AF92BF92CF92C4
:1014E000DF92EF92FF920F931F93CF93DF936C01E4
:1014F0002B015A0139014801DC01ED91FC91028474
:10150000F385E02D0995E201640C751CD601ED917F
:10151000FC91C615D7055CF40088F189E02D8701A0
:101520009401A501BE01C60109952196EFCF068859
:10153000F789E02DC601DF91CF911F910F91FF90A8
:10154000EF90DF90CF90BF90AF909F908F907F9063
:101550006F905F904F9009948F929F92AF92BF923D
:10156000CF92DF92EF92FF920F931F93CF93DF936F
:10157000EC015B014A016901E881F9810284F3858C
:10158000E02D099595012C0D3D1D21503109E88173
:10159000F9810488F589E02D78018401A401B50161
:1015A000CE010995E881F9810688F789E02DCE0101
:1015B000DF91CF911F910F91FF90EF90DF90CF902F
:1015C000BF90AF909F908F9009948F929F92AF920F
:1015D000BF92CF92DF92EF92FF920F931F93CF9320
:1015E000DF93EC015B014A0169017801E881F9812F
:1015F0000284F385E02D0995C80CD91C86010150A1
:101600001109E881F9810488F589E02D9501A4018B
:10161000B501CE010995E881F9810688F789E02DA9
:10162000CE01DF91CF911F910F91FF90EF90DF904E
:10163000CF90BF90AF909F908F900994EF92FF92C0
:101640000F931F93DC01ED91FC9100A0F1A1E02D1F
:1016500009951F910F91FF90EF9008950F931F939D
:10166000DC01ED91FC91068CF78DE02D09951F9121
:101670000F9108950F931F93DC01ED91FC91048C61
:10168000F58DE02D09951F910F910895DC01ED91E5
:10169000FC910084F185E02D09942F923F924F92A6
:1016A0005F926F927F928F929F92AF92BF92CF92F2
:1016B000DF92EF92FF920F931F93CF93DF9300D0AF
:1016C00000D000D0CDB7DEB73C016A013E832D8348
:1016D000FC82EB825801A41AB50AB7FE03C0B1948C
:1016E000A194B1088D809E80861A970A97FE03C048
:1016F0009194819491088A149B045CF0902F812F1F
:101700000D811E819D838E839C2D8D2D6B01692FF4
:10171000782F0C151D055CF09D818E817E836D8375
:10172000692F782F902F812F8601C92ED82E160170
:10173000201A310A2B012D813E81421A530A57FE8D
:1017400003C0519441945108710137FE03C03FEF2B
:10175000E31AF30AF594E7948D819E818617970723
:101760005CF5A1E0B0E0BA83A983C016D1064CF1C4
:10177000D301ED91FC910484F585E02D2B813C8112
:10178000A8016D817E818A149B041CF04D815E81CD
:10179000B801C3010995E418F508F7FE0AC02D81C8
:1017A0003E8189819A81280F391F3E832D83E20C67
:1017B000F31C0F5F1F4FD9CF2FEF3FEF3A832983E1
:1017C000D4CF26960FB6F894DEBF0FBECDBFDF9103
:1017D000CF911F910F91FF90EF90DF90CF90BF902E
:1017E000AF909F908F907F906F905F904F903F90C1
:1017F0002F9008950F931F93CF93DF931F92CDB730
:10180000DEB78C01698360E0FC01868D0E941103C4
:1018100041E050E0BE016F5F7F4FF801838D948DF2
:101820000E945D040F90DF91CF911F910F91089559
:10183000CF938091170587FD13C061E00E945D037F
:1018400060E0809117050E94110361E070E080E084
:1018500090E00E94D60461E0809117050E94110378
:10186000C0911A05C83008F0C7E0C0931A0561E2BC
:101870008AEF94E00E94FA0B6C2F60618AEF94E08B
:101880000E94FA0B60E28AEF94E00E94FA0BC0918A
:101890001905C7FDCFE7C093190561E28AEF94E00F
:1018A0000E94FA0B6C2F60688AEF94E00E94FA0B9A
:1018B00060E28AEF94E00E94FA0B60E28AEF94E023
:1018C0000E94FA0B6CE08AEF94E0CF910C94FA0B33
:1018D000FF920F931F93CF93DF9390911B05992352
:1018E00039F080911C058F5F8917E8F580931C05FE
:1018F000D0911F05D695D695D69584E5D89F8001C1
:101900001124809120058695869586958D1780F106
:101910006D2F60648AEF94E00E94FA0BC0911D0560
:10192000F0901E056C2F60688AEF94E00E94FA0B1D
:1019300061E0809118050E9411034F2D50E06C2F3B
:1019400070E0461B570B4F5F5F4F600F711F605079
:101950007F4F80911505909116050E945D04DF5F11
:101960000C5A1F4FCECF10921C050E94180CC0CFEE
:1019700060E48AEF94E00E94FA0B83E580931D05F2
:1019800010921E058FE280931F0510922005DF91B3
:10199000CF911F910F91FF9008951F93CF93DF93E5
:1019A000EC01162F60E20E94FA0B6CE011116DE061
:1019B000CE01DF91CF911F910C94FA0BFC0177FDC2
:1019C00055C080859185681779070CF04FC057FD89
:1019D0004DC082859385481759070CF047C086890A
:1019E000823009F444C0833009F44EC0813031F4B0
:1019F0008FE290E0861B970BBA01AC01842FA62FD3
:101A000093A1691708F4962F93A394A19A1708F449
:101A10009A2F94A395A1891708F4982F95A396A1BE
:101A2000981708F4982F96A3CA0157FD0796E3E08C
:101A300095958795EA95E1F7A4E5A89FF001A99F00
:101A4000F00D1124E60FF71FE050FF4FCA0168E0C8
:101A500070E00E94021941E050E001C0440F8A95F5
:101A6000EAF78081232BB9F0842B8083089583E5E6
:101A700090E0DC01A61BB70BBD018FE290E0DC011A
:101A8000A41BB50BAD01BACF83E590E0841B950B89
:101A9000AB01BC01B3CF40958423E7CF089590E01C
:101AA00080E008950E945C1AFB0101900020E9F794
:101AB0003197AF01461B570BDC01ED91FC91028081
:101AC000F381E02D09948F929F92AF92BF92EF9293
:101AD000FF920F931F93CF93DF93CDB7DEB7A197FC
:101AE0000FB6F894DEBF0FBECDBF7C01FA01CB016B
:101AF00019A2223008F42AE08E010F5D1F4F822EBA
:101B0000912CB12CA12CBF01A50194010E940017BA
:101B1000F901CA016A300CF5605DD8016E938D0140
:101B2000232B242B252B79F790E080E0109721F0D0
:101B3000BD01C7010E94540DA1960FB6F894DEBFF7
:101B40000FBECDBFDF91CF911F910F91FF90EF900E
:101B5000BF90AF909F908F900895695CDECFCF9239
:101B6000DF92EF92FF92CF93DF936C01990FEE0813
:101B7000FF08F7FE23C06DE28AEF94E00E94A108FF
:101B8000EC0144275527BA014C195D096E097F09FC
:101B90002AE08AEF94E00E94630DC80FD91F6CE31E
:101BA00073E08AEF94E00E94540D8C0F9D1FDF912B
:101BB000CF91FF90EF90DF90CF9008952AE0B7018A
:101BC000A6018AEF94E00E94630DEC01E8CF1F9319
:101BD000CF93DF9385ED8093BC008091910390912A
:101BE0009203A0919303B09194030796A11DB11D98
:101BF00023E0B695A795979587952A95D1F72091DB
:101C0000BC0024FD03C01092D90352C0409191033F
:101C1000509192036091930370919403452B462B4E
:101C2000472B69F30097A105B10541F02AE22A95F7
:101C3000F1F700C00197A109B109E1CF80919003AC
:101C4000C1E0C0938F03882399F1D091B80010911F
:101C5000BA008091BC008A7B8093BC0060E082E186
:101C60000E94110360E083E10E9411031092D903E6
:101C7000C093DB031092DA0361E082E10E9411035A
:101C800061E083E10E9411038091B9008E7F80930F
:101C9000B9008091B9008D7F8093B90088E480936A
:101CA000B80085E48093BC001093BA00D093B800CC
:101CB000DF91CF911F9108951F920F920FB60F924F
:101CC00011242F933F938F939F93AF93BF93809152
:101CD000AE049091AF04A091B004B091B1043091E2
:101CE0000C0423E0230F2D3758F50196A11DB11DDB
:101CF00020930C048093AE049093AF04A093B0049F
:101D0000B093B10480910D0490910E04A0910F0442
:101D1000B09110040196A11DB11D80930D04909304
:101D20000E04A0930F04B0931004BF91AF919F9144
:101D30008F913F912F910F900FBE0F901F9018958C
:101D400026E8230F0296A11DB11DD2CF1F920F923C
:101D50000FB60F9211242F933F934F935F936F937E
:101D60007F938F939F93AF93BF93EF93FF9381E103
:101D700094E00E948605FF91EF91BF91AF919F91F2
:101D80008F917F916F915F914F913F912F910F9024
:101D90000FBE0F901F9018951F920F920FB60F92C3
:101DA00011242F938F939F93EF93FF93E09121043E
:101DB000F09122048081E0912704F091280482FDB3
:101DC0001BC0908180912A048F5F8F7320912B0418
:101DD000821741F0E0912A04F0E0EF5EFB4F958F0F
:101DE00080932A04FF91EF919F918F912F910F90F3
:101DF0000FBE0F901F9018958081F4CF1F920F9205
:101E00000FB60F9211242F933F934F935F936F93CD
:101E10007F938F939F93AF93BF93EF93FF938091A3
:101E2000B900887F803609F44AC0F0F5883209F499
:101E3000A5C018F5803109F499C0B8F4882309F4D5
:101E4000F5C0883009F492C0FF91EF91BF91AF9136
:101E50009F918F917F916F915F914F913F912F91C2
:101E60000F900FBE0F901F901895883109F486C00F
:101E7000803251F78093D80314C0803409F49BC09A
:101E800040F48033B9F38833F9F68093D80385ECB6
:101E9000AEC0803509F483C0883509F494C0883415
:101EA00099F60E94E70DD0CF883909F48AC038F539
:101EB000883729F050F4883611F0803729F683E00E
:101EC0008093D9031092D70355C0883809F479C09C
:101ED000803919F0803809F0B7CF8091D70380326C
:101EE00008F06FC0E091D70381E08E0F8093D70395
:101EF0008091BB00F0E0E954FC4F80833BC0803B05
:101F000039F0D0F4803A09F477C0883A09F09CCFD0
:101F100084E08093D9031092B6031092B503F0E0E9
:101F2000E0E009958091B50381110FC081E08093B5
:101F3000B5031092950309C0803C09F4A8CF883CF2
:101F400009F4A5CF883B09F07FCFE091B60381E08B
:101F50008E0F8093B603F0E0EB56FC4F80818093A8
:101F6000BB009091B6038091B50329C08091FE0318
:101F70008093BB0085EC8093BC0066CF9091FD03FD
:101F80008091FC03981758F5E091FD0381E08E0FD6
:101F90008093FD03F0E0E452FC4F8081E9CFE091B3
:101FA000FD0381E08E0F8093FD038091BB00F0E084
:101FB000E452FC4F80839091FD038091FC039817BD
:101FC000C8F285E8D8CFE091FD0381E08E0F8093C1
:101FD000FD038091BB00F0E0E452FC4F80838091D0
:101FE000DB0381115ECF81E08093DA0384EA809382
:101FF000BC001092D90328CF85EC8093BC001092CE
:10200000D9038091D703803230F4E091D703F0E018
:10201000E954FC4F10826091D70370E087EB93E0A6
:10202000F0E0E0E009951092D7030ECF1092D803AC
:1020300038CFCF92DF92FF920F931F93CF93DF930E
:10204000E1E1F4E01382128288EE93E0A0E0B0E0D8
:1020500084839583A683B78382E093E09183808312
:1020600085EC90E09587848784EC90E0978786875D
:1020700080EC90E0918B808B81EC90E0938B828B55
:1020800082EC90E0958B848B86EC90E0978B868B2E
:10209000118E128E138E148ECAEFD4E01B821A8218
:1020A00024E530E03D832C8380E390E09F838E83A2
:1020B000398728879B878A871E8A1D861C861F86EC
:1020C0001E86FF24F394FD8AFC8A8FEF9FEF9B8B83
:1020D0008A8B998B888BFF8A188E1A8E198E84E1D1
:1020E00093E0998388838CE190E00E9437198C01FA
:1020F00085E0D8011B968C931B9782E01C968C93ED
:102100001C978FEF1E968C931E9783E01D968C93E1
:102110001D97E9EAF5E0E491F0E0EE0FFF1FE656C7
:10212000FA4F85919491F801968B858BEBE8F5E059
:10213000E4915A96EC935A97E7EAF5E0E491F0E0DF
:10214000EE0FFF1FE656FA4F85919491F801908BA0
:102150008787E9E8F5E0E4915796EC935797E6EA2C
:10216000F5E0E491F0E0EE0FFF1FE656FA4F85919F
:102170009491F801928B818BE8E8F5E0E49159960F
:10218000EC9380E099E0ADE3B0E0F80184839583BF
:10219000A683B783CC24C394D12CD186C086128663
:1021A000138E82E090E00E94371920E5DC012C9329
:1021B00011961C92F80193838283118210821C8FE6
:1021C0000B8F84E08E8F86E08D8FEEEBF4E086EB54
:1021D00094E0978F868F8AEB94E0958F848F82EBC3
:1021E00094E091A380A312AE12AA13AA14AA15AA6E
:1021F00080E090E0AFE7B3E486AB97ABA0AFB1AFC0
:1022000084E690E0A0E0B0E086A797A7A0ABB1ABD2
:10221000118E108ED38EC28EF3AE80E090E0A0E0DF
:10222000B0E480839183A283B383148215821682E3
:102230001782108611861286138684879587A68753
:10224000B787108A118A128A138A148A158A168A05
:10225000178A2FB7F8948091AE049091AF04A091A3
:10226000B004B091B1042FBF46A557A560A971A9CC
:10227000841B950BA60BB70B82A393A3A4A3B5A3B2
:10228000DF91CF911F910F91FF90DF90CF90089534
:10229000CF93DF93CDB7DEB72E970FB6F894DEBF9E
:1022A0000FBECDBF789484B5826084BD84B5816053
:1022B00084BD85B5826085BD85B5816085BD809111
:1022C0006E00816080936E00109281008091810089
:1022D0008260809381008091810081608093810081
:1022E000809180008160809380008091B100846043
:1022F0008093B1008091B00081608093B0008091A4
:102300007A00846080937A0080917A008260809362
:102310007A0080917A00816080937A0080917A00BF
:10232000806880937A001092C100E0912104F091BE
:10233000220482E08083E0911D04F0911E0410824B
:10234000E0911F04F09120048FEC80831092290407
:10235000E0912504F091260486E08083E091230437
:10236000F0912404808180618083E0912304F091C6
:102370002404808188608083E0912304F091240408
:10238000808180688083E0912304F091240480811F
:102390008F7D808361E08CE00E945D0361E08DE0D1
:1023A0000E945D0320911505309116053A8329831B
:1023B000D9011B968C918F3F49F061E00E945D032B
:1023C00061E0E981FA8183850E941103A981BA81C4
:1023D0008D919C91892B09F40BC11FB7F8948091C2
:1023E000FF03811127C0EEEAF5E08491E0E9F5E012
:1023F0009491E82FF0E0EE0FFF1FE859FA4FA591F6
:10240000B491EC91E92321F461E08AE00E94110388
:1024100061E08AE00E945D038CB580618CBD8CB563
:1024200080648CBD61E08DE00E945D0361E08BE023
:102430000E945D038091FF038F5F8093FF031FBFA6
:1024400081E0E981FA81838F61E0809118050E9423
:102450005D038091170587FD03C061E00E945D0365
:1024600084E080931A0588E28093190510921B0579
:1024700010921C050E94180C10921D0580911E05DB
:10248000833508F483E580931E0510921F05809123
:1024900020058F3208F48FE2809320050E94680C9B
:1024A00081E10E948E0324E630E0DC010E941619CF
:1024B0002FEF33E040E050E00E94CE16CA01B90190
:1024C0000E94DB17609308047093090480930A0448
:1024D00090930B0480E10E948E039C01990F440BA2
:1024E000550B2453310941095109A3E8BFEF0E945C
:1024F000FB1623EC32E040E050E00E94CE16CA0109
:10250000B90163587F4F8F4F9F4F0E94DB176B01BC
:102510007C01C0920404D0920504E0920604F0927B
:10252000070482E10E948E032CE030E0DC010E946F
:10253000161924EF33E040E050E00E94CE16CA01A5
:10254000B901625E7F4F8F4F9F4F0E94DB176093F0
:10255000B2047093B3048093B4049093B504A701BC
:1025600096010E9431176093BA047093BB04809364
:10257000BC049093BD048091F80481117AC0E0916D
:10258000DC04F091DD04C080D180E280F380C09251
:10259000E404D092E504E092E604F092E704E091CE
:1025A000DA04F091DB0480819181A281B381809370
:1025B000E8049093E904A093EA04B093EB048090BC
:1025C000F4049090F504A090F604B090F704A501EF
:1025D0009401C701B6010E948B181816D4F5809299
:1025E000E4049092E504A092E604B092E70441C0AE
:1025F00061E0E981FA8184850E945D03A981BA8145
:102600001A968C911A978B7FF9F460E01C968C9146
:102610000E941103A981BA811D968C918F3F49F0C8
:1026200061E00E945D0361E0E981FA8185850E9495
:102630001103A981BA811E968C918F3F09F400CFB6
:1026400060E00E945D03FCCE61E0E981FA8184854F
:10265000DFCF8090F0049090F104A090F204B0904D
:10266000F304A5019401C701B6010E949E1787FDDE
:10267000B6CF81E08093F80481E10E948E0324E6C6
:1026800030E0DC010E9416192FEF33E040E050E00B
:102690000E94CE16CA01B9010E94DB17609308049C
:1026A0007093090480930A0490930B0480E10E94C4
:1026B0008E039C01990F440B550B2453310941099A
:1026C0005109A3E8BFEF0E94FB1623EC32E040E083
:1026D00050E00E94CE16CA01B90163587F4F8F4F58
:1026E0009F4F0E94DB176B017C01C0920404D092C3
:1026F0000504E0920604F092070482E10E948E0332
:102700002CE030E0DC010E94161924EF33E040E0B9
:1027100050E00E94CE16CA01B901625E7F4F8F4F12
:102720009F4F0E94DB176093B2047093B3048093B1
:10273000B4049093B504A70196010E9431176093E9
:10274000BA047093BB048093BC049093BD0464E608
:1027500070E080E090E00E94D6048091F804882325
:1027600009F42FC18FB7F8942091AE043091AF04D3
:102770004091B0045091B10429873A874B875C8718
:102780008FBF8091E0049091E104A091E204B091A8
:10279000E30449855A856B857C85481B590B6A0B78
:1027A0007B0B8091EC049091ED04A091EE04B0912C
:1027B000EF04481759076A077B0708F402C1E09144
:1027C000DA04F091DB044080518062807380E091F4
:1027D000DE04F091DF04A3019201608171818281A6
:1027E00093810E9431176B017C012091E8043091A4
:1027F000E9044091EA045091EB04C301B2010E9444
:10280000311769837A838B839C832091CE04309126
:10281000CF044091D0045091D104C701B6010E9469
:1028200090182091E4043091E5044091E604509121
:10283000E7040E9432174B015C018092E4049092FD
:10284000E504A092E604B092E7043090F904311058
:102850001CC02091CA043091CB044091CC0450910B
:10286000CD0469817A818B819C810E9490189B01A3
:10287000AC01C501B4010E9431176093E404709368
:10288000E5048093E6049093E7048091E40490913A
:10289000E504A091E604B091E7048D839E83AF83A5
:1028A000B8870091F4041091F5049091F6049E8786
:1028B000A091F704AD879801492F5A2F6D817E8131
:1028C0008F8198850E948B1818160CF07FC1C80163
:1028D000AE85BD858093E4049093E504A093E6045F
:1028E000B093E704332009F48CC12091CA043091DD
:1028F000CB044091CC045091CD04C701B6010E9495
:1029000090186B017C012091D2043091D304409146
:10291000D4045091D50469817A818B819C810E9475
:1029200090189B01AC016091E4047091E5048091E2
:10293000E6049091E7040E943117A70196010E94D6
:1029400032176B017C019B01AC01B8018E859D851E
:102950000E949E1787FD16C00091F0041091F104AB
:10296000B091F204BE87E091F304ED8798014B2FFC
:102970005E2FB601C7010E949E1787FD03C0860126
:10298000EE86FD86E091DC04F091DD04C801AE85A1
:10299000BD8580839183A283B3834092E8045092E3
:1029A000E9046092EA047092EB0429853A854B852C
:1029B0005C852093E0043093E1044093E20450935B
:1029C000E304C090B604D090B704E090B804F0904F
:1029D000B904C701B6010E94A3179B01AC01A0E591
:1029E000B0E00E94ED162FEF30E040E050E00E9492
:1029F000CE16CA01B9010E94DB17609300047093E0
:102A000001048093020490930304C701B6010E945D
:102A1000A3176B017A83698361E083E10E945D0300
:102A200049815A81452B09F0F0C060E083E10E94A2
:102A30001103C090BA04D090BB04E090BC04F090A5
:102A4000BD04A7019601C701B6010E94FD186FE3FE
:102A500073E081111BC046015701E894B7F82FEFCE
:102A60003FEF4FE75FE7C501B4010E94FD188111F8
:102A700017C12FEF3FEF4FE75FE7C501B4010E9499
:102A80009E1718160CF00CC163E473E081E194E02A
:102A90000E94540D61E08CE00E94110361E08DE022
:102AA0000E941103A0E0B1E0E8EFF1E01D92319740
:102AB000E9F710921D0580911E05833508F483E522
:102AC00080931E0510921F05809120058F3208F417
:102AD0008FE2809320051092070510920605109250
:102AE0000905109208056BE473E08AEF94E00E94F8
:102AF000540D6DE373E08AEF94E00E94540D69E594
:102B000073E08AEF94E00E94540D6DE373E08AEF66
:102B100094E00E94540D68E673E08AEF94E00E940E
:102B2000540D609108047091090480910A049091F9
:102B30000B040E94A317CB010E94AF0D64E773E062
:102B40008AEF94E00E94540D60910004709101049A
:102B500080910204909103040E94A317CB010E946C
:102B6000AF0D6DE773E08AEF94E00E94540D609121
:102B700004047091050480910604909107040E945A
:102B8000A317CB010E94AF0D65E873E08AEF94E0D4
:102B90000E94540D6091B2047091B3048091B4040A
:102BA0009091B5040E94A317CB010E94AF0D0E9423
:102BB000680C20E030E0232B09F45ECD0E94720502
:102BC000882309F459CD0E94000056CD8090F0046E
:102BD0009090F104A090F204B090F304A501940148
:102BE0006D817E818F8198850E949E1787FF7ACEA6
:102BF0008092E4049092E504A092E604B092E70487
:102C000071CEC12CD12C76017ECE89819A818F3FE5
:102C1000910511F461E00ACFE5E8F5E08491833095
:102C200029F150F48130C1F08230D9F029813A8104
:102C3000203831057CF7F9CE873011F1883041F129
:102C40008430A1F780918000806280938000D092D0
:102C50008B00C0928A00EDCE84B5806884BDC7BC6D
:102C6000E8CE84B5806284BDC8BCE3CE809180008C
:102C7000806880938000D0928900C0928800D9CE6D
:102C80008091B00080688093B000C092B300D1CE34
:102C90008091B00080628093B000C092B400C9CE31
:102CA0002FEF3FEF4FE75FE4C701B6010E948B189B
:102CB00018161CF467E473E0E9CE2FEF3FEF4FE7FF
:102CC0005FECC701B6010E949E1787FDF3CF20E09D
:102CD00030E0A901C701B6010E949E1787FF09C015
:102CE0006DE281E194E00E94A805F7FAF094F7F80C
:102CF000F0942AE037ED43EA5BE3C701B6010E9496
:102D000032174B015C010E94AA176B017C010E94E3
:102D1000D9179B01AC01C501B4010E9431174B01C9
:102D20005C012AE0B701A60181E194E00E94630DF5
:102D30006EE281E194E00E94A80520E030E040E2EC
:102D400051E4C501B4010E9490184B015C010E943E
:102D5000AA176B01F12CE12C2AE0B701A60181E151
:102D600094E00E94630DC701B6010E94D9179B0130
:102D7000AC01C501B4010E94311720E030E040E20F
:102D800051E40E9490180E94AA17AB0170E060E025
:102D90002AE081E194E00E94630D7CCE052E97FB32
:102DA0001EF400940E94E51657FD07D00E940017FC
:102DB00007FC03D04EF40C94E516509540953095E1
:102DC00021953F4F4F4F5F4F089590958095709597
:102DD00061957F4F8F4F9F4F08950E942217A59FA7
:102DE000900DB49F900DA49F800D911D1124089506
:102DF000B7FF0C94ED160E94ED16821B930B0895FD
:102E0000A1E21A2EAA1BBB1BFD010DC0AA1FBB1FEE
:102E1000EE1FFF1FA217B307E407F50720F0A21B60
:102E2000B30BE40BF50B661F771F881F991F1A94CD
:102E300069F760957095809590959B01AC01BD01F7
:102E4000CF010895A29FB001B39FC001A39F700D51
:102E5000811D1124911DB29F700D811D1124911DA2
:102E600008955058BB27AA270E9449170C9451185F
:102E70000E94431838F00E944A1820F039F49F3F0E
:102E800019F426F40C9440180EF4E095E7FB0C942A
:102E90003A18E92F0E94621858F3BA1762077307AD
:102EA0008407950720F079F4A6F50C9484180EF4A5
:102EB000E0950B2EBA2FA02D0B01B90190010C014A
:102EC000CA01A0011124FF27591B99F0593F50F462
:102ED000503E68F11A16F040A22F232F342F4427BA
:102EE000585FF3CF469537952795A795F0405395B2
:102EF000C9F77EF41F16BA0B620B730B840BBAF082
:102F00009150A1F0FF0FBB1F661F771F881FC2F7EC
:102F10000EC0BA0F621F731F841F48F48795779500
:102F20006795B795F7959E3F08F0B0CF9395880FBA
:102F300008F09927EE0F9795879508950E94161827
:102F400008F481E008950E94AA176894B1110C94C6
:102F5000851808950E946A1888F09F5798F0B92F35
:102F60009927B751B0F0E1F0660F771F881F991FBE
:102F70001AF0BA95C9F714C0B13091F00E948418C4
:102F8000B1E008950C948418672F782F8827B85FD4
:102F900039F0B93FCCF3869577956795B395D9F716
:102FA0003EF490958095709561957F4F8F4F9F4F20
:102FB0000895E89409C097FB3EF49095809570952C
:102FC00061957F4F8F4F9F4F9923A9F0F92F96E975
:102FD000BB279395F695879577956795B795F111EA
:102FE000F8CFFAF4BB0F11F460FF1BC06F5F7F4F87
:102FF0008F4F9F4F16C0882311F096E911C0772399
:1030000021F09EE8872F762F05C0662371F096E8A1
:10301000862F70E060E02AF09A95660F771F881F70
:10302000DAF7880F9695879597F90895990F000814
:10303000550FAA0BE0E8FEEF16161706E807F9078A
:10304000C0F012161306E407F50798F0621B730B25
:10305000840B950B39F40A2661F0232B242B252BA6
:1030600021F408950A2609F4A140A6958FEF811D49
:10307000811D089597F99F6780E870E060E00895EA
:103080009FEF80EC089500240A9416161706180680
:103090000906089500240A9412161306140605065C
:1030A0000895092E0394000C11F4882352F0BB0FED
:1030B00040F4BF2B11F460FF04C06F5F7F4F8F4F50
:1030C0009F4F089557FD9058440F551F59F05F3F8B
:1030D00071F04795880F97FB991F61F09F3F79F03A
:1030E00087950895121613061406551FF2CF4695BC
:1030F000F1DF08C0161617061806991FF1CF86953E
:103100007105610508940895E894BB276627772721
:10311000CB0197F908950E94161808F48FEF0895CF
:103120000E94A3180C9451180E94431838F00E9472
:103130004A1820F0952311F00C943A180C9440187A
:1031400011240C9485180E94621870F3959FC1F3A6
:10315000950F50E0551F629FF001729FBB27F00D45
:10316000B11D639FAA27F00DB11DAA1F649F66279A
:10317000B00DA11D661F829F2227B00DA11D621FE9
:10318000739FB00DA11D621F839FA00D611D221FA3
:10319000749F3327A00D611D231F849F600D211D87
:1031A000822F762F6A2F11249F5750409AF0F1F00A
:1031B00088234AF0EE0FFF1FBB1F661F771F881F73
:1031C00091505040A9F79E3F510580F00C943A1859
:1031D0000C9485185F3FE4F3983ED4F38695779579
:1031E0006795B795F795E7959F5FC1F7FE2B880F19
:1031F000911D9695879597F908950E941618880B4A
:10320000990B089597FB072E16F4009407D077FDCD
:1032100009D00E941D1907FC05D03EF490958195B8
:103220009F4F0895709561957F4F08950E942217D2
:10323000B7FF0895821B930B0895AA1BBB1B51E196
:1032400007C0AA1FBB1FA617B70710F0A61BB70B16
:10325000881F991F5A95A9F780959095BC01CD01BB
:103260000895EE0FFF1F0590F491E02D09940F9340
:103270001F93CF93DF938230910510F482E090E0AA
:10328000E0912305F091240530E020E0B0E0A0E0DB
:10329000309799F42115310509F44AC0281B390BE0
:1032A00024303105D8F58A819B816115710589F13A
:1032B000FB0193838283FE0111C040815181028111
:1032C000138148175907E0F04817590799F41097E8
:1032D00061F012960C93129713961C933296CF01BD
:1032E000DF91CF911F910F910895009323051093C3
:1032F0002405F4CF2115310551F04217530738F05A
:10330000A901DB019A01BD01DF01F801C1CFEF0185
:10331000F9CF9093240580932305CDCFFE01E20FD2
:10332000F31F819391932250310939832883D7CF9A
:103330002091210530912205232B41F42091FA029E
:103340003091FB0230932205209321052091F80251
:103350003091F9022115310541F42DB73EB7409166
:10336000FC025091FD02241B350BE0912105F091E8
:103370002205E217F307A0F42E1B3F0B281739078D
:1033800078F0AC014E5F5F4F2417350748F04E0FC1
:103390005F1F5093220540932105819391939FCF06
:1033A000F0E0E0E09CCFCF93DF930097E9F0FC01E1
:1033B000329713821282A0912305B0912405ED016A
:1033C00030E020E01097A1F420813181820F931F1B
:1033D00020912105309122052817390709F061C095
:1033E000F0932205E0932105DF91CF910895EA0142
:1033F000CE17DF07E8F54A815B819E014115510533
:10340000B1F7E901FB83EA8349915991C40FD51FB4
:10341000EC17FD0761F4808191810296840F951F5E
:10342000E90199838883828193819B838A83F0E079
:10343000E0E012968D919C9113970097B9F52D912C
:103440003C911197CD010296820F931F2091210587
:10345000309122052817390739F6309751F5109227
:10346000240510922305B0932205A0932105BCCF1B
:10347000D383C28340815181840F951FC817D90718
:1034800061F44E5F5F4F88819981480F591F5183C6
:1034900040838A819B81938382832115310509F0C2
:1034A000B0CFF0932405E09323059ECFFD01DC010E
:1034B000C0CF13821282D7CF81E090E0F8940C94B1
:0634C000611AF894FFCF31
:1034C60000000000000000000000000000000000F6
:1034D60000000000000000000000000000000000E6
:1034E600000000000000C0E0F0F8FCFCFEFFFCE07D
:1034F60000000000000000000000000000000000C6
:1035060000000000000000000000000000000000B5
:1035160000000000000000000000000000000000A5
:103526000000000000F8F8F8F8F8F8F8F8F8F8F8ED
:10353600F8F0F0E0E0C080C0FCFFFFFFFF7F3F7FB8
:10354600FFFFFFFFFF00000000000000000000007A
:103556000000000000000000000000000000000065
:103566000000000000000000000000000000000055
:10357600000000000000000000000F1F3F7FFFFF5B
:10358600FFFFFFFFFFFFE7C7C7878F9F9FFFFFFF75
:10359600C1C0E0FCFFFFFFFFFFFCFCFCFCFEFEFEE3
:1035A600FCFCF8F8F0E0C0C00000000000000000DD
:1035B6000000000000000000000000000000000005
:1035C60000000000000000000000000000000000F5
:1035D6000080C0E0F1FBFFFFFFFFFF7F1F0F0F879B
:1035E600E7FFFFFF1F1F3FF9F8F8F8F8F8F8FDFFAF
:1035F600FFFFFFFFFFFFFFFF7F3F0F0701000000F8
:1036060000000000000000000000000000000000B4
:1036160000000000000000000000000000000000A4
:10362600000000F0FEFFFFFFFFFFFFFFFFFFFFFEB2
:103636007E3F3F0F1FFFFFFFFCF0E0F1FFFFFFFFA4
:10364600FFFCF00101010101010101000000000081
:103656000000000000000000000000000000000064
:103666000000000000000000000000000000000054
:10367600000000000000000303030303030303012B
:1036860001010100000000000000030F1F3F7F7FC3
:10369600FFFFFFFF7F7F1F03000000000000000008
:1036A6000000000000000000000000000000000014
:1036B600000000000000000000002505800000005A
:1036C6000000A80508053505F505660544055805F5
:1036D60000000000A10808054F0D4E0DDE0C3C064B
:1036E600460B1E0B3A0B2E0B4D0B3C066706CD0CFC
:1036F600E50AAC0A670A4A0AD20973090D0A006E7E
:10370600616E00696E66006F7666004461746F7361
:10371600206D656469646F73002D2D2D2D2D2D2D63
:103726002D2D2D2D2D2D2D0048756D656461642878
:1037360025293A00436F6E74726F6C3A0054656DBA
:0E374600705F733A0054656D705F6F703A00EB
:00000001FF
