:100000000C9424030C944C030C944C030C944C035C
:100010000C944C030C944C030C944C030C944C0324
:100020000C944C030C944C030C944C030C944C0314
:100030000C944C030C944C030C944C030C944C0304
:100040000C94D20E0C944C030C94420F0C941C0F85
:100050000C944C030C944C030C944C030C944C03E4
:100060000C94740F0C944C0308000000BE922449B9
:10007000123EABAAAA2ABECDCCCC4C3E00000080DA
:10008000BEABAAAAAA3E00000000BF000000803F4D
:100090000000000000084178D3BB4387D1133D190D
:1000A0000E3CC3BD4282AD2B3E68EC8276BED98F3A
:1000B000E1A93E4C80EFFFBE01C4FF7F3F0000007E
:1000C000000007634236B79BD8A71A39685618AEA6
:1000D000BAAB558C1D3CB7CC5763BD6DEDFD753E7D
:1000E000F6177231BF000000803F00000000003EA4
:1000F0005B4F5B3E3E6B4F6B3E1C3E7C3E1C183C98
:100100007E3C181C577D571C1C5E7F5E1C00183CF3
:100110001800FFE7C3E7FF0018241800FFE7DBE73C
:10012000FF30483A060E2629792926407F05050723
:10013000407F05253F5A3CE73C5A7F3E1C1C08087F
:100140001C1C3E7F14227F22145F5F005F5F060944
:100150007F017F006689956A606060606094A2FF9D
:10016000A29408047E040810207E201008082A1C8F
:1001700008081C2A08081E101010100C1E0C1E0C5B
:1001800030383E3830060E3E0E06000000000000FB
:10019000005F00000007000700147F147F14242A6A
:1001A0007F2A12231308646236495620500008073C
:1001B0000300001C2241000041221C002A1C7F1C5D
:1001C0002A08083E0808008070300008080808085F
:1001D000000060600020100804023E5149453E00C6
:1001E000427F400072494949462141494D33181424
:1001F000127F1027454545393C4A49493141211173
:1002000009073649494936464949291E0000140064
:100210000000403400000008142241141414141487
:10022000004122140802015909063E415D594E7CE5
:100230001211127C7F494949363E414141227F419A
:1002400041413E7F494949417F090909013E4141F8
:1002500051737F0808087F00417F41002040413FE3
:10026000017F081422417F404040407F021C027FF2
:100270007F0408107F3E4141413E7F090909063E47
:100280004151215E7F091929462649494932030116
:100290007F01033F4040403F1F2040201F3F403828
:1002A000403F631408146303047804036159494D03
:1002B00043007F4141410204081020004141417F39
:1002C00004020102044040404040000307080020AF
:1002D000545478407F2844443838444444283844AF
:1002E00044287F385454541800087E090218A4A4E6
:1002F0009C787F0804047800447D40002040403D05
:10030000007F1028440000417F40007C047804787E
:100310007C080404783844444438FC182424181811
:10032000242418FC7C08040408485454542404046D
:100330003F44243C4040207C1C2040201C3C40305A
:10034000403C44281028444C9090907C4464544C89
:1003500044000836410000007700000041360800E4
:1003600002010204023C2623263C1EA1A161123A8E
:100370004040207A385454555921555579412254DA
:10038000547842215554784020545579400C1E52DF
:100390007212395555555939545454593955545484
:1003A000580000457C410002457D420001457C40EB
:1003B0007D1211127DF0282528F07C54554500202F
:1003C00054547C547C0A097F4932494949323A44A1
:1003D00044443A324A4848303A4141217A3A42400C
:1003E0002078009DA0A07D3D4242423D3D404040DE
:1003F0003D3C24FF2424487E4943662B2FFC2F2BB1
:10040000FF0929F620C0887E090320545479410051
:1004100000447D413048484A32384040227A007AD0
:100420000A0A727D0D19317D2629292F28262929AE
:10043000292630484D4020380808080808080808D0
:10044000382F10C8ACBA2F102834FA00007B0000F7
:1004500008142A142222142A14085500550055AAFB
:1004600055AA55AAFF55FF55FF000000FF001010C8
:1004700010FF00141414FF001010FF00FF1010F004
:1004800010F0141414FC001414F700FF0000FF0017
:10049000FF1414F404FC141417101F10101F101F65
:1004A0001414141F00101010F0000000001F101092
:1004B00010101F10101010F010000000FF1010108E
:1004C000101010101010FF10000000FF140000FFAB
:1004D00000FF00001F10170000FC04F41414171094
:1004E000171414F404F40000FF00F7141414141487
:1004F0001414F700F7141414171410101F101F14FD
:100500001414F4141010F010F000001F101F00005D
:10051000001F14000000FC140000F010F01010FF89
:1005200010FF141414FF141010101F00000000F02E
:1005300010FFFFFFFFFFF0F0F0F0F0FFFFFF000003
:10054000000000FFFF0F0F0F0F0F3844443844FC2A
:100550004A4A4A347E02020606027E027E02635541
:100560004941633844443C04407E201E2006027EFC
:10057000020299A5E7A5991C2A492A1C4C7201720E
:100580004C304A4D4D303048784830BC625A463D78
:100590003E494949007E0101017E2A2A2A2A2A442D
:1005A000445F444440514A444040444A5140000062
:1005B000FF0103E080FF000008086B6B083612366D
:1005C0002436060F090F060000181800000010104E
:1005D000003040FF0101001F01011E00191D17120C
:1005E000003C3C3C3C0000000000000000002400F7
:1005F00027002A0000000008000201000003040791
:1006000000000000000000000000000023002600A1
:100610002900010204081020408001020408102073
:1006200001020408102000000000250028002B0013
:100630000404040404040404020202020202030388
:1006400003030303F010971011241FBECFEFD8E06F
:10065000DEBFCDBF13E0A0E0B1E0E4EFFEE302C0F7
:1006600005900D92A43AB107D9F725E0A4EAB3E0CA
:1006700001C01D92A335B207E1F713E0C3E2D3E056
:1006800004C02197FE010E94701DC232D107C9F734
:100690000E9434120C946D1F0C940000FC01208108
:1006A0002EBD0DB407FEFDCF2EB5FC0120830895AD
:1006B000833081F028F4813099F08230A9F00895D8
:1006C0008730A9F08830C9F08430B1F4809180007F
:1006D0008F7D03C0809180008F7780938000089584
:1006E00084B58F7784BD089584B58F7DFBCF8091CD
:1006F000B0008F778093B00008958091B0008F7D17
:10070000F9CF1F93CF93DF93282F30E0F901EC50FE
:10071000FA4F8491F901EE5EF94FD491F901E05D51
:10072000F94FC491CC23A9F0162F81110E945803D0
:10073000EC2FF0E0EE0FFF1FEA5DF94FA591B491A9
:100740008FB7F894EC91111108C0D095DE23DC939B
:100750008FBFDF91CF911F910895DE2BF8CFCF93FC
:10076000DF9390E0FC01EE5EF94F2491805D994F9C
:10077000FC0184918823D1F090E0880F991FFC013F
:10078000E651FA4FA591B491FC01EA5DF94FC5918C
:10079000D49161110EC09FB7F8948C91E22FE0952F
:1007A0008E238C932881E223E8839FBFDF91CF9132
:1007B00008958FB7F894EC91E22BEC938FBFF6CFAE
:1007C0008E50806480937C0080917A008064809356
:1007D0007A0080917A0086FDFCCF8091780090911C
:1007E000790008958230910538F0880F991F880F9D
:1007F000991F05970197F1F708959F92AF92BF92C5
:10080000CF92DF92EF92FF920F931F93CF93DF93DC
:10081000EC016B018885998511E0892B09F010E8BE
:10082000F601A0808A2D8123992493948111912C23
:100830002C813D814E815F8160E271EA87E090E02A
:100840000E94711A022FB12CE22EF12C002319F014
:10085000C7010E94F2038A85877F09F04FC08D850A
:100860008F3F89F09A2D912381E009F480E089156A
:1008700051F0EF85F8898F899923D1F19081892BE7
:10088000808399249394E989FA898081998D892BB1
:100890008083002319F0C7010E94F2038E858F3FE9
:1008A00039F0EB89FC898081988D892309F0B12A80
:1008B000E989FA899081898D8095892380838E8545
:1008C0008F3F11F0F601B08288859985892B09F058
:1008D00044C0110F1111BACFDF91CF911F910F9129
:1008E000FF90EF90DF90CF90BF90AF909F900895D2
:1008F0009081809589238083912CC5CFE989FA89DD
:100900008081998D892B8083002319F0C7010E9473
:10091000F2038D858F3F49F0EF85F8898F899A2DF5
:100920009123B9F09081892B8083E989FA8990819C
:10093000898D8095892380838E858F3F09F4BFCF71
:10094000EB89FC898081988D892309F4B8CFB12A7D
:10095000B6CF908180958923E7CF1695BBCFAF9214
:10096000BF92CF92DF92EF92FF920F931F93CF939C
:10097000DF931F92CDB7DEB78C015B016A01DC010A
:100980008D919C911197892B39F01296ED91FC91E4
:10099000908181819CBD8DBDF80183858F3F19F0C9
:1009A00060E00E9481037501CA0CDB1CCE14DF04D9
:1009B000A9F0D7018D917D018983F8018081918112
:1009C000892B29F0CE0101960E944E03EFCFBE0184
:1009D0006F5F7F4FC8010E94FD03E8CFD8011B96CF
:1009E0008C918F3F19F061E00E94810381E00F90AC
:1009F000DF91CF911F910F91FF90EF90DF90CF90FB
:100A0000BF90AF9008953FB7F894809123049091E0
:100A10002404A0912504B091260426B5A89B05C006
:100A20002F3F19F00196A11DB11D3FBFBA2FA92F6D
:100A3000982F8827BC01CD01620F711D811D911D6A
:100A400042E0660F771F881F991F4A95D1F70895D6
:100A50008F929F92AF92BF92CF92DF92EF92FF92CE
:100A60004B015C010E9403056B017C010E940305A0
:100A70006C197D098E099F09683E734081059105B7
:100A8000A8F321E0821A9108A108B10888EEC80EE7
:100A900083E0D81EE11CF11C81149104A104B1046F
:100AA00029F7FF90EF90DF90CF90BF90AF909F908D
:100AB0008F900895AF92BF92CF92DF92EF92FF9204
:100AC0000F931F93CF93DF936C017B018B01040F76
:100AD000151FEB015E01AE18BF08C017D10759F012
:100AE0006991D601ED91FC910190F081E02DC60154
:100AF0000995892B79F7C501DF91CF911F910F914E
:100B0000FF90EF90DF90CF90BF90AF900895FC01E1
:100B1000448155816081718187E294E00C945A058B
:100B2000FC01538D448D252F30E0842F90E0821BF3
:100B3000930B541710F0CF96089501970895FC0178
:100B4000918D828D981761F0A28DAE0FBF2FB11DD0
:100B50005D968C91928D9F5F9F73928F90E0089528
:100B60008FEF9FEF0895FC01918D828D981731F0E2
:100B7000828DE80FF11D858D90E008958FEF9FEF36
:100B80000895FC01918D228D892F90E0805C9F4F0C
:100B9000821B91098F739927089587E294E00E9440
:100BA000C10521E0892B09F420E0822F089580E01F
:100BB00090E0892B29F00E94CD0581110C94000052
:100BC0000895FC01A48DA80FB92FB11DA35ABF4FE2
:100BD0002C91848D90E001968F739927848FA6893C
:100BE000B7892C93A089B1898C91837080648C9390
:100BF000938D848D981306C00288F389E02D80813F
:100C00008F7D80830895EF92FF920F931F93CF9370
:100C1000DF93EC0181E0888F9B8D8C8D98131AC037
:100C2000E889F989808185FF15C09FB7F894EE891E
:100C3000FF896083E889F98980818370806480837B
:100C40009FBF81E090E0DF91CF911F910F91FF90C6
:100C5000EF900895F62E0B8D10E00F5F1F4F0F736E
:100C60001127E02E8C8D8E110CC00FB607FCFACF29
:100C7000E889F989808185FFF5CFCE010E94E105E1
:100C8000F1CFEB8DEC0FFD2FF11DE35AFF4FF082FA
:100C90009FB7F8940B8FEA89FB8980818062CFCF60
:100CA000CF93DF93EC01888D8823B9F0AA89BB89A3
:100CB000E889F9898C9185FD03C0808186FD0DC08E
:100CC0000FB607FCF7CF8C9185FFF2CF808185FFAF
:100CD000EDCFCE010E94E105E9CFDF91CF910895DC
:100CE0002091CB03260F3327331F21323105ECF43B
:100CF0002091EF03FC0190E080E0243069F082E075
:100D00000895A091CB032191AC0145555C4FA40FF0
:100D1000B52FB11D2C930196861798F38091CB03C4
:100D2000680F6093CB0380E0089581E008950895F3
:100D30008FEF9FEF08958FEF9FEF08958091A403A9
:100D400090E09195819591090895CF93DF93CB0120
:100D5000EA01642F0E947006CE01DF91CF910895C1
:100D6000CF93DF931F92CDB7DEB7698361E0CE01E9
:100D700001960E94700681E090E00F90DF91CF9184
:100D800008950895FC016370668B848195812681A6
:100D90003781613039F0633029F09187808733875C
:100DA00022870895318720879387828708952F921D
:100DB0003F924F925F926F927F928F929F92AF92EB
:100DC000BF92CF92DF92EF92FF920F931F93CF9338
:100DD000DF93CDB7DEB76A970FB6F894DEBF0FBECC
:100DE000CDBF9A8F898F7A8369834A01D22E188763
:100DF0000F833701BC2CDC0159962D913C915A97F9
:100E00002115310509F015C118968D919C911997FE
:100E1000681779070CF0D7C11A968D919C914817E5
:100E200059070CF0D0C14C2C512CB6E0CB9E600D74
:100E3000711D11247C876B87161617060CF0C3C131
:100E4000EA2DF0E0FA87E98793E0EE0FFF1F9A950D
:100E5000E1F7F88BEF87CF01840F951F181619065D
:100E60000CF0B1C1A98DBA8D58968C91811104C036
:100E7000BFEABD1508F4D394A98DBA8DED91FC910C
:100E800011970284F385E02DCD010995B5E0DB9E35
:100E9000C0011124E981FA81FC83EB83312C212CE0
:100EA0009C0126513F4F388F2F8B4A2D50E05E8B8F
:100EB0004D8BEF89F88DE20DF31D44919E828D825A
:100EC000D12CC12C69817A81620D731D7A8B698B5B
:100ED000842F90E09C8B8B8BE98DFA8DA081B18162
:100EE00040FF82C0F1E0BF126FC0AF126DC01C9610
:100EF000ED91FC912F813885A4014C0D5D1D698910
:100F00007A89898D9A8D0995EB89FC89F595E79504
:100F10004E2F5FEFC51AD50A6D817E818D899E891E
:100F2000680F791F7E836D8398E0C916D10481F61E
:100F3000AFEF2A1A3A0AEB81FC81E40DF51DFC8320
:100F4000EB83F5E02F16310409F0B3CF2F813885FC
:100F500026153705B9F0A98DBA8DED91FC91B1E058
:100F6000BB1257C0AB1255C069817A816B5F7F4F4E
:100F70000088F189E02D830128E030E0A401898D0B
:100F80009A8D0995A98DBA8DED91FC9111970688DE
:100F9000F789E02DCD016A960FB6F894DEBF0FBE3B
:100FA000CDBFDF91CF911F910F91FF90EF90DF9018
:100FB000CF90BF90AF909F908F907F906F905F90F9
:100FC0004F903F902F9009941E96ED91FC91EF80E9
:100FD000F88409851A8592014D815E816B817C813F
:100FE000898D9A8D099590CF2F81388526153705E3
:100FF00009F48ACF31E0B31207C0A31205C01C96D2
:10100000ED91FC91930178CF1E96ED91FC917301C7
:10101000E0CF6B857C85641975090684F785E02D22
:1010200073010F8518899201A401898D9A8D099504
:10103000A9CFF90134969491329745915491D91AD8
:10104000B7E0DB9E400D511D1124F901259134912B
:101050003C8B2B8BFA0125903490FA0132967490D8
:1010600031963491398B329664903196449041E0B8
:101070004C1518F04A1508F07FC0662D062C000CA0
:10108000770B7C836B83842D042C000C990B9E833F
:101090008D83A98DBA8DED91FC9111970284F38512
:1010A000E02DCD010995512CD12CC12CEA2DF0E079
:1010B000FA87E9872B2D30E03C872B87A401440D6C
:1010C000511D47FC5A95588F4F8B69817A81660D67
:1010D000711D67FC7A957E876D877989C71608F040
:1010E00051CF2C2D30E04D815E81420F531FA985D9
:1010F000BA854A9FC0014B9F900D5A9F900D1124B5
:10110000FC01E80DF91DF88BEF87852D612C4F89C7
:10111000588D420F531F5E8B4D8B671408F050C0E3
:1011200044244394480E877041F4C1010196EB8931
:10113000FC89E20DF31DD4901C01D7FE19C0A98DC6
:10114000BA8DED91FC91662D70E0B1E0BB1219C033
:10115000AB1217C02D853E85620F731F0484F58581
:10116000E02D2F8138854D895E89898D9A8D09956D
:10117000DD0C6394842DD1CF1E821D821C821B82C4
:1011800088CF4B815C81640F751FAB85BC856A9FDE
:10119000C0016B9F900D7A9F900D112469817A8117
:1011A000680F791F0684F785E02DEF80F8840985A4
:1011B0001A859D014F855889898D9A8D0995D8CFBB
:1011C000570CC3948ACF6A960FB6F894DEBF0FBE51
:1011D000CDBFDF91CF911F910F91FF90EF90DF90E6
:1011E000CF90BF90AF909F908F907F906F905F90C7
:1011F0004F903F902F9008958F929F92AF92CF92F1
:10120000EF92FF920F931F93CF93DF93EC01262F62
:10121000898D9A8D009709F051C06A30D1F41D86EE
:101220001C868D8948E0849F900111248E859F85BE
:10123000820F931F9F878E8781E090E0DF91CF918F
:101240001F910F91FF90EF90CF90AF909F908F9054
:1012500008956D3089F3CC88AD888F898823C1F0DB
:101260008C859D8536E0C39E800D911D1124488597
:1012700059854817590764F44E855F851D861C867D
:1012800038E0A39EC0011124840F951F9F878E878D
:10129000EA88FB88088919894E855F856C857D857C
:1012A000CE010E94D7062C898C859D8546E0249F1F
:1012B000800D911D11249D878C87BECF6A3069F403
:1012C0001D861C86FC013896E4912D898E859F85AC
:1012D000E29F800D911D1124ADCF6D3009F4ACCF8C
:1012E000FC0134963491631708F4A6CF3296E4914A
:1012F000E61708F4A1CFFC01329685909490462F12
:10130000431B342F47E0349F800C911C1124F401BF
:10131000329634913196E4913323A9F1EE2399F179
:10132000CC88F4013596E491AD884F89442301F1CE
:101330000E2E000CFF0BE30FF11DCE9EA001CF9EE1
:10134000500D11246C857D85460F571F6885798562
:10135000641775076CF44E855F851D861C86FC013D
:101360003896E491AE9E400D511D11245F874E8743
:10137000EA88FB88088919894E855F856C857D859B
:10138000CE010E94D706F4013496E4912C898C8515
:101390009D85E29F800D911D11248DCF6F927F92CC
:1013A0008F929F92AF92BF92CF92DF92EF92FF9275
:1013B0000F931F93CF93DF93EC016B015A01390117
:1013C0004801E881F9810284F385E02D0995E881DF
:1013D000F9810288F389E02D87019301A501B60107
:1013E000CE010995A501480D591D41505109E881CB
:1013F000F9810288F389E02D9301B601CE010995A8
:10140000E881F9810088F189E02D9401A501B601F8
:10141000CE010995C60CD71CB60161507109E8814F
:10142000F9810088F189E02D9401A501CE0109958B
:10143000E881F9810688F789E02DCE01DF91CF910F
:101440001F910F91FF90EF90DF90CF90BF90AF90E2
:101450009F908F907F906F9009946F927F928F9260
:101460009F92AF92BF92CF92DF92EF92FF920F9333
:101470001F93CF93DF935C01EB016A0149013801AF
:101480008701DC01ED91FC916217730719F5641671
:1014900075062CF0962D872D3A01C92ED82E96016F
:1014A000261937092F5F3F4F048CF58DE02DA301DE
:1014B000BE01C5010995DF91CF911F910F91FF905A
:1014C000EF90DF90CF90BF90AF909F908F907F90E4
:1014D0006F9008954615570591F42617370724F0A5
:1014E000892D4B01C22FD82F9E01281939092F5F52
:1014F0003F4F068CF78DE02DA601B401DACF0284B0
:10150000F385E02D0995D501ED91FC910488F589CD
:10151000E02D83019401A601BE01C5010995D50105
:10152000ED91FC910688F789E02DC501DF91CF91FF
:101530001F910F91FF90EF90DF90CF90BF90AF90F1
:101540009F908F907F906F900994EF92FF920F93EE
:101550001F93DC011A960D911C911B9718962D91E3
:101560003C911997ED91FC9100A0F1A1E02D7B0138
:1015700050E040E070E060E009951F910F91FF900E
:10158000EF9008954F925F926F927F928F929F9209
:10159000AF92BF92CF92DF92EF92FF920F931F9381
:1015A000CF93DF936C012B015A0139014801DC0113
:1015B000ED91FC910284F385E02D0995E201640C24
:1015C000751CD601ED91FC91C615D7055CF4008819
:1015D000F189E02D87019401A501BE01C60109959D
:1015E0002196EFCF0688F789E02DC601DF91CF91D4
:1015F0001F910F91FF90EF90DF90CF90BF90AF9031
:101600009F908F907F906F905F904F9009948F92F2
:101610009F92AF92BF92CF92DF92EF92FF920F9381
:101620001F93CF93DF93EC015B014A016901E881CD
:10163000F9810284F385E02D099595012C0D3D1D5E
:1016400021503109E881F9810488F589E02D78017C
:101650008401A401B501CE010995E881F9810688CC
:10166000F789E02DCE01DF91CF911F910F91FF906F
:10167000EF90DF90CF90BF90AF909F908F900994A4
:101680008F929F92AF92BF92CF92DF92EF92FF9292
:101690000F931F93CF93DF93EC015B014A01690124
:1016A0007801E881F9810284F385E02D0995C80C61
:1016B000D91C860101501109E881F9810488F58956
:1016C000E02D9501A401B501CE010995E881F981CC
:1016D0000688F789E02DCE01DF91CF911F910F9100
:1016E000FF90EF90DF90CF90BF90AF909F908F9042
:1016F0000994EF92FF920F931F93DC01ED91FC91FF
:1017000000A0F1A1E02D09951F910F91FF90EF909E
:1017100008950F931F93DC01ED91FC91068CF78DDA
:10172000E02D09951F910F9108950F931F93DC01F0
:10173000ED91FC91048CF58DE02D09951F910F9191
:101740000895DC01ED91FC910084F185E02D099470
:101750002F923F924F925F926F927F928F929F92C1
:10176000AF92BF92CF92DF92EF92FF920F931F93AF
:10177000CF93DF9300D000D000D0CDB7DEB73C01CF
:101780006A013E832D83FC82EB825801A41AB50ABC
:10179000B7FE03C0B194A194B1088D809E80861AD3
:1017A000970A97FE03C09194819491088A149B0430
:1017B0005CF0902F812F0D811E819D838E839C2D47
:1017C0008D2D6B01692F782F0C151D055CF09D8107
:1017D0008E817E836D83692F782F902F812F8601D4
:1017E000C92ED82E1601201A310A2B012D813E81D7
:1017F000421A530A57FE03C0519441945108710193
:1018000037FE03C03FEFE31AF30AF594E7948D81A6
:101810009E81861797075CF5A1E0B0E0BA83A983A3
:10182000C016D1064CF1D301ED91FC910484F585ED
:10183000E02D2B813C81A8016D817E818A149B045F
:101840001CF04D815E81B801C3010995E418F508CB
:10185000F7FE0AC02D813E8189819A81280F391FA8
:101860003E832D83E20CF31C0F5F1F4FD9CF2FEF68
:101870003FEF3A832983D4CF26960FB6F894DEBF84
:101880000FBECDBFDF91CF911F910F91FF90EF90D1
:10189000DF90CF90BF90AF909F908F907F906F9090
:1018A0005F904F903F902F9008950F931F93CF9389
:1018B000DF931F92CDB7DEB78C01698360E0FC0136
:1018C000868D0E94810341E050E0BE016F5F7F4F33
:1018D000F801838D948D0E94AF040F90DF91CF911A
:1018E0001F910F910895CF938091E50487FD13C058
:1018F00061E00E94AF0360E08091E5040E948103F3
:1019000061E070E080E090E00E94280561E0809155
:10191000E5040E948103C091E804C83008F0C7E0E4
:10192000C093E80461E288EC94E00E94550C6C2FAF
:10193000606188EC94E00E94550C60E288EC94E0D1
:101940000E94550CC091E704C7FDCFE7C093E704A0
:1019500061E288EC94E00E94550C6C2F606888EC82
:1019600094E00E94550C60E288EC94E00E94550CD3
:1019700060E288EC94E00E94550C6CE088EC94E006
:10198000CF910C94550CFF920F931F93CF93DF933D
:101990009091E904992339F08091EA048F5F8917C7
:1019A000E8F58093EA04D091ED04D695D695D695C6
:1019B00084E5D89F800111248091EE048695869558
:1019C00086958D1780F16D2F606488EC94E00E94FD
:1019D000550CC091EB04F090EC046C2F606888EC1F
:1019E00094E00E94550C61E08091E6040E9481031E
:1019F0004F2D50E06C2F70E0461B570B4F5F5F4F31
:101A0000600F711F6F5F7E4F8091E3049091E4043B
:101A10000E94AF04DF5F0C5A1F4FCECF1092EA0432
:101A20000E94730CC0CF60E488EC94E00E94550CD7
:101A300083E58093EB041092EC048FE28093ED0435
:101A40001092EE04DF91CF911F910F91FF900895B6
:101A50001F93CF93DF93EC01162F60E20E94550C89
:101A60006CE011116DE0CE01DF91CF911F910C94CC
:101A7000550CFC0177FD55C0808591856817790765
:101A80000CF04FC057FD4DC082859385481759070C
:101A90000CF047C08689823009F444C0833009F4D1
:101AA0004EC0813031F48FE290E0861B970BBA0173
:101AB000AC01842FA62F93A1691708F4962F93A346
:101AC00094A19A1708F49A2F94A395A1891708F462
:101AD000982F95A396A1981708F4982F96A3CA015A
:101AE00057FD0796E3E095958795EA95E1F7A4E51C
:101AF000A89FF001A99FF00D1124E60FF71FEF5FDB
:101B0000FE4FCA0168E070E00E94411D41E050E0D4
:101B100001C0440F8A95EAF78081232BB9F0842B0A
:101B20008083089583E590E0DC01A61BB70BBD011F
:101B30008FE290E0DC01A41BB50BAD01BACF83E5C9
:101B400090E0841B950BAB01BC01B3CF409584237F
:101B5000E7CF089590E080E008950E94581FFB01B0
:101B600001900020E9F73197AF01461B570BDC01CC
:101B7000ED91FC910280F381E02D09948F929F9268
:101B8000AF92BF92EF92FF920F931F93CF93DF9389
:101B9000CDB7DEB7A1970FB6F894DEBF0FBECDBFAD
:101BA0007C01FA01CB0119A2223008F42AE08E014F
:101BB0000F5D1F4F822E912CB12CA12CBF01A501CE
:101BC00094010E94711AF901CA016A300CF5605D36
:101BD000D8016E938D01232B242B252B79F790E0D0
:101BE00080E0109721F0BD01C7010E94AF0DA196C2
:101BF0000FB6F894DEBF0FBECDBFDF91CF911F911E
:101C00000F91FF90EF90BF90AF909F908F900895AD
:101C1000695CDECFCF92DF92EF92FF920F931F931A
:101C2000CF93DF93EC016A017B01E881F981019098
:101C3000F081E02D6DE209958C0144275527BA010A
:101C40004C195D096E097F092AE0CE010E94BE0D84
:101C5000800F911FDF91CF911F910F91FF90EF9017
:101C6000DF90CF9008950F931F93CF93DF93EC01F4
:101C7000AB01770F660B770B77FF0FC00E940A0E40
:101C80008C016DE373E0CE010E94AF0D800F911FB8
:101C9000DF91CF911F910F9108952AE00E94BE0D10
:101CA000EFCFAB01770F660B770B77FD0C940A0E25
:101CB0002AE00C94BE0D0C94AF0D1F93CF93DF93CD
:101CC00085ED8093BC008091A7039091A803A0911B
:101CD000A903B091AA030796A11DB11D23E0B695F3
:101CE000A795979587952A95D1F72091BC0024FD5B
:101CF00003C01092EF0352C04091A7035091A80374
:101D00006091A9037091AA03452B462B472B69F3D9
:101D10000097A105B10541F02AE22A95F1F700C02C
:101D20000197A109B109E1CF8091A603C1E0C09359
:101D3000A503882399F1D091B8001091BA00809141
:101D4000BC008A7B8093BC0060E082E10E9481033A
:101D500060E083E10E9481031092EF03C093F103DE
:101D60001092F00361E082E10E94810361E083E16F
:101D70000E9481038091B9008E7F8093B900809189
:101D8000B9008D7F8093B90088E48093B80085E422
:101D90008093BC001093BA00D093B800DF91CF912C
:101DA0001F9108951F920F920FB60F9211242F9337
:101DB0003F938F939F93AF93BF938091C40490916F
:101DC000C504A091C604B091C7043091220423E059
:101DD000230F2D3758F50196A11DB11D2093220424
:101DE0008093C4049093C504A093C604B093C70421
:101DF0008091230490912404A0912504B09126049D
:101E00000196A11DB11D8093230490932404A093F7
:101E10002504B0932604BF91AF919F918F913F917C
:101E20002F910F900FBE0F901F90189526E8230F4B
:101E30000296A11DB11DD2CF1F920F920FB60F9225
:101E400011242F933F934F935F936F937F938F93BF
:101E50009F93AF93BF93EF93FF9387E294E00E9429
:101E6000E105FF91EF91BF91AF919F918F917F918C
:101E70006F915F914F913F912F910F900FBE0F90F7
:101E80001F9018951F920F920FB60F9211242F9347
:101E90008F939F93EF93FF93E0913704F091380471
:101EA0008081E0913D04F0913E0482FD1BC0908151
:101EB000809140048F5F8F7320914104821741F01D
:101EC000E0914004F0E0E95DFB4F958F8093400482
:101ED000FF91EF919F918F912F910F900FBE0F90D7
:101EE0001F9018958081F4CF1F920F920FB60F921A
:101EF00011242F933F934F935F936F937F938F930F
:101F00009F93AF93BF93EF93FF938091B900887F26
:101F1000803609F44AC0F0F5883209F4A5C018F5F6
:101F2000803109F499C0B8F4882309F4F5C08830E9
:101F300009F492C0FF91EF91BF91AF919F918F9162
:101F40007F916F915F914F913F912F910F900FBEB5
:101F50000F901F901895883109F486C0803251F790
:101F60008093EE0314C0803409F49BC040F48033A6
:101F7000B9F38833F9F68093EE0385ECAEC0803573
:101F800009F483C0883509F494C0883499F60E9416
:101F90005D0ED0CF883909F48AC038F5883729F02A
:101FA00050F4883611F0803729F683E08093EF03F0
:101FB0001092ED0355C0883809F479C0803919F0C2
:101FC000803809F0B7CF8091ED03803208F06FC000
:101FD000E091ED0381E08E0F8093ED038091BB00D3
:101FE000F0E0E353FC4F80833BC0803B39F0D0F4FA
:101FF000803A09F477C0883A09F09CCF84E0809356
:10200000EF031092CC031092CB03F0E0E0E00995CF
:102010008091CB0381110FC081E08093CB0310929C
:10202000AB0309C0803C09F4A8CF883C09F4A5CFD4
:10203000883B09F07FCFE091CC0381E08E0F809345
:10204000CC03F0E0E555FC4F80818093BB0090917C
:10205000CC038091CB0329C0809114048093BB00F2
:1020600085EC8093BC0066CF90911304809112049C
:10207000981758F5E091130481E08E0F80931304B4
:10208000F0E0EE50FC4F8081E9CFE091130481E055
:102090008E0F809313048091BB00F0E0EE50FC4F54
:1020A000808390911304809112049817C8F285E8F8
:1020B000D8CFE091130481E08E0F809313048091B8
:1020C000BB00F0E0EE50FC4F80838091F103811162
:1020D0005ECF81E08093F00384EA8093BC0010928D
:1020E000EF0328CF85EC8093BC001092EF03809122
:1020F000ED03803230F4E091ED03F0E0E353FC4F68
:1021000010826091ED0370E08DEC93E0F0E0E0E090
:1021100009951092ED030ECF1092EE0338CFFC011B
:1021200080819181009711F00C94121E089587E32D
:1021300095E00E948F108DE395E00E948F1083E45C
:1021400095E00E948F1089E495E00C948F10EF9237
:10215000FF920F931F93CF93DF93EC017B011982C2
:1021600018821B821A821D821C82FB0101900020B2
:10217000E9F731978F01061B170BB8016F5F7F4F8F
:1021800090E080E00E949B1E0097B9F099838883BD
:102190001B830A832C813D81232B11F4FC011082C7
:1021A0001D830C83B70188819981DF91CF911F91A5
:1021B0000F91FF90EF900C94661F88819981009792
:1021C00011F00E94121E198218821D821C821B822D
:1021D0001A82DF91CF911F910F91FF90EF90089598
:1021E000EF92FF920F931F93CF93DF93E7E2F4E018
:1021F0001382128288EE93E0A0E0B0E0848395839E
:10220000A683B78383E093E09183808385EC90E09D
:102210009587848784EC90E09787868780EC90E0B0
:10222000918B808B81EC90E0938B828B82EC90E0A1
:10223000958B848B86EC90E0978B868B118E128E1B
:10224000138E148E60E473E089E495E00E94A71079
:1022500068E473E083E495E00E94A71060E573E012
:102260008DE395E00E94A71067E573E087E395E0B2
:102270000E94A710EBEFF4E083EF94E0978F868F36
:1022800087EF94E0958F848F8FEE94E091A380A3E5
:1022900012AE12AA13AA14AA15AA80E090E0AFE722
:1022A000B3E486AB97ABA0AFB1AF84E690E0A0E01B
:1022B000B0E086A797A7A0ABB1AB118E108EEE242D
:1022C000E394F12CF38EE28E81E083AF40E050E0A6
:1022D00060E570E4408351836283738314821582C6
:1022E00016821782108611861286138644875587B8
:1022F00066877787108A118A128A138A148A158A48
:10230000168A178A9FB7F8944091C4045091C50467
:102310006091C6047091C7049FBF06A517A520A9A8
:1023200031A9401B510B620B730B42A353A364A34F
:1023300075A3C8ECD4E01B821A8244E550E05D83AB
:102340004C8320E330E03F832E83598748873B87C7
:102350002A871E8A1D861C861F861E868D8B8C8B67
:102360002FEF3FEF3B8B2A8B398B288B8F8B188E6F
:102370001A8E198E85E193E0998388838CE190E031
:102380000E94761D8C0185E0D8011B968C931B97CB
:1023900082E01C968C931C978FEF1E968C931E9751
:1023A00083E01D968C931D97E5E3F6E0E491F0E061
:1023B000EE0FFF1FEA5DF94F85919491F801968B1E
:1023C000858BE7E1F6E0E4915A96EC935A97E3E3C4
:1023D000F6E0E491F0E0EE0FFF1FEA5DF94F859122
:1023E0009491F801908B8787E5E1F6E0E4915796A8
:1023F000EC935797E2E3F6E0E491F0E0EE0FFF1F75
:10240000EA5DF94F85919491F801928B818BE4E11B
:10241000F6E0E4915996EC9380E099E0ADE3B0E00A
:10242000F80184839583A683B783F186E0861286BC
:10243000138E82E090E00E94761D20E5DC012C9353
:1024400011961C92F80193838283118210821C8F53
:102450000B8F84E08E8F86E08D8FDF91CF911F915F
:102460000F91FF90EF900895CF93DF93CDB7DEB734
:102470002E970FB6F894DEBF0FBECDBF789484B50B
:10248000826084BD84B5816084BD85B5826085BD70
:1024900085B5816085BD80916E00816080936E00FE
:1024A00010928100809181008260809381008091F0
:1024B00081008160809381008091800081608093A1
:1024C00080008091B10084608093B1008091B00061
:1024D00081608093B00080917A00846080937A005C
:1024E00080917A00826080937A0080917A00816086
:1024F00080937A0080917A00806880937A001092AD
:10250000C100E0913704F091380482E08083E091CB
:102510003304F09134041082E0913504F0913604D4
:102520008FEC808310923F04E0913B04F0913C04D7
:1025300086E08083E0913904F0913A0480818061E3
:102540008083E0913904F0913A048081886080832F
:10255000E0913904F0913A04808180688083E091B1
:102560003904F0913A0480818F7D808361E08CE0B2
:102570000E94AF0361E08DE00E94AF0360E089E05C
:102580000E94AF032091E3043091E4043A8329834D
:10259000D9011B968C918F3F49F061E00E94AF03F7
:1025A00061E0E981FA8183850E948103A981BA8172
:1025B0008D919C91892B09F454C11FB7F894809197
:1025C0001504811127C0EAE3F6E08491ECE1F6E01E
:1025D0009491E82FF0E0EE0FFF1FE651FA4FA5911E
:1025E000B491EC91E92321F461E08AE00E94810337
:1025F00061E08AE00E94AF038CB580618CBD8CB530
:1026000080648CBD61E08DE00E94AF0361E08BE0EF
:102610000E94AF03809115048F5F809315041FBF44
:1026200081E0E981FA81838F61E08091E6040E9474
:10263000AF038091E50487FD03C061E00E94AF0312
:1026400084E08093E80488E28093E7041092E90430
:102650001092EA040E94730C1092EB048091EC0437
:10266000833508F483E58093EC041092ED048091A7
:10267000EE048F3208F48FE28093EE040E94C30CC4
:1026800081E10E94E00324E630E0DC010E94551D58
:102690002FEF33E040E050E00E94101ACA01B90168
:1026A0000E94F31860931E0470931F04809320040B
:1026B0009093210480E10E94E003BC01990F880BF4
:1026C000990B0E94F31820E030E040EA50E40E94A9
:1026D000521920E030EC4FE754E40E940F1B6B01CD
:1026E0007C01AC019B0160E070E080EA90E40E9414
:1026F000A21A20E030E44CE156E40E940F1B9B013B
:10270000AC01C701B6010E940F1B0E94C41B6B01E4
:102710007C0120E030E040E450E40E940C1C4B01BE
:102720005C0126E039EB4BE859E3C701B6010E9492
:1027300052192FEB3AE348E55AE30E94A31A6B01C2
:102740007C0121EF37E646EC53E3C501B4010E945A
:1027500052199B01AC01C701B6010E94A31A9B014B
:10276000AC0160E070E080E89FE30E940F1B23E370
:1027700033E948E853E40E94A21A6093F704709387
:10278000F8048093F9049093FA0482E10E94E00334
:102790009A838983BC01990F880B990B0E94F318C7
:1027A00060931A0470931B0480931C0490931D047F
:1027B0002CE030E0A981BA810E94551D24EF33E05E
:1027C00040E050E00E94101ACA01B901625E7F4FDA
:1027D0008F4F9F4F0E94F3186093EF047093F004A3
:1027E0008093F1049093F2048091350581117AC0B1
:1027F000E0911905F0911A05C080D180E280F38044
:10280000C0922105D0922205E0922305F092240582
:10281000E0911705F091180580819181A281B38123
:102820008093250590932605A0932705B09328054E
:102830008090310590903205A0903305B09034051A
:10284000A5019401C701B6010E94B71B1816D4F563
:102850008092210590922205A0922305B092240532
:1028600041C061E0E981FA8184850E94AF03A981BA
:10287000BA811A968C911A978B7FF9F460E01C96B6
:102880008C910E948103A981BA811D968C918F3F02
:1028900049F061E00E94AF0361E0E981FA8185853A
:1028A0000E948103A981BA811E968C918F3F09F401
:1028B000B7CE60E00E94AF03B3CE61E0E981FA8158
:1028C0008485DFCF80902D0590902E05A0902F0558
:1028D000B0903005A5019401C701B6010E94EC1823
:1028E00087FDB6CF81E080933505209115053091A5
:1028F00016052130310509F080E080933605812CE2
:10290000912C90E5A92E90E4B92E8092FB04909230
:10291000FC04A092FD04B092FE041092FF041092F9
:102920000005109201051092020510920305109205
:102930000405109205051092060560912905709115
:102940002A0580912B0590912C050E94F11820E01A
:1029500030E04AE754E40E940F1B6B017C01809237
:10296000070590920805A0920905B0920A0520E09B
:1029700030E0A9010E9452194B015C0180920B05C5
:1029800090920C05A0920D05B0920E05A70196013C
:1029900060E070E0CB010E940F1B6B017C01C092D4
:1029A0000F05D0921005E0921105F092120580916A
:1029B000130590911405019751F580E090E0A0E592
:1029C000B0EC8093070590930805A0930905B09398
:1029D0000A05A501940160E070E0CB010E94A21AF3
:1029E00060930B0570930C0580930D0590930E0575
:1029F000A701960160E070E0CB010E94A21A6093EB
:102A00000F05709310058093110590931205809126
:102A10000001882359F189E495E00E9487056FE55C
:102A200073E087E294E00E945B0E83E495E00E94ED
:102A300087056FE573E087E294E00E945B0E8DE30B
:102A400095E00E9487056FE573E087E294E00E94BD
:102A50005B0E87E395E00E9487056DE373E087E2F4
:102A600094E00E94AF0D10920001D1CF81E10E944D
:102A7000E00324E630E0DC010E94551D2FEF33E037
:102A800040E050E00E94101ACA01B9010E94F318F8
:102A900060931E0470931F0480932004909321047C
:102AA00080E10E94E003BC01990F880B990B0E9402
:102AB000F31820E030E040EA50E40E94521920E090
:102AC00030EC4FE754E40E940F1B6B017C01AC011A
:102AD0009B0160E070E080EA90E40E94A21A20E08E
:102AE00030E44CE156E40E940F1B9B01AC01C7018E
:102AF000B6010E940F1B0E94C41B6B017C0120E0E9
:102B000030E040E450E40E940C1C4B015C0126E0E4
:102B100039EB4BE859E3C701B6010E9452192FEB7C
:102B20003AE348E55AE30E94A31A6B017C0121EFC6
:102B300037E646EC53E3C501B4010E9452199B01EC
:102B4000AC01C701B6010E94A31A9B01AC0160E071
:102B500070E080E89FE30E940F1B23E333E948E81D
:102B600053E40E94A21A6093F7047093F8048093D0
:102B7000F9049093FA0482E10E94E0039A83898326
:102B8000BC01990F880B990B0E94F31860931A04EB
:102B900070931B0480931C0490931D042CE030E080
:102BA000A981BA810E94551D24EF33E040E050E036
:102BB0000E94101ACA01B901625E7F4F8F4F9F4F6A
:102BC0000E94F3186093EF047093F0048093F10473
:102BD0009093F20464E670E080E090E00E942805A3
:102BE00080913505882309F42FC18FB7F89420917F
:102BF000C4043091C5044091C6045091C70429878C
:102C00003A874B875C878FBF80911D0590911E0589
:102C1000A0911F05B091200549855A856B857C855B
:102C2000481B590B6A0B7B0B8091290590912A0553
:102C3000A0912B05B0912C05481759076A077B070F
:102C400008F402C1E0911705F09118054080518009
:102C500062807380E0911B05F0911C05A301920135
:102C600060817181828193810E94A21A6B017C0133
:102C70002091250530912605409127055091280582
:102C8000C301B2010E94A21A69837A838B839C8359
:102C900020910B0530910C0540910D0550910E05CA
:102CA000C701B6010E9452192091210530912205D9
:102CB00040912305509124050E94A31A4B015C0109
:102CC0008092210590922205A0922305B0922405BE
:102CD0003090360531101CC0209107053091080551
:102CE0004091090550910A0569817A818B819C8107
:102CF0000E9452199B01AC01C501B4010E94A21AA5
:102D000060932105709322058093230590932405F9
:102D10008091210590912205A0912305B091240571
:102D20008D839E83AF83B887009131051091320562
:102D3000909133059E87A0913405AD879801492F66
:102D40005A2F6D817E818F8198850E94B71B18163E
:102D50000CF0D1C1C801AE85BD858093210590934B
:102D60002205A0932305B0932405332009F4DEC186
:102D700020910705309108054091090550910A05F9
:102D8000C701B6010E9452196B017C0120910F0509
:102D900030911005409111055091120569817A8199
:102DA0008B819C810E9452199B01AC01609121058D
:102DB0007091220580912305909124050E94A21A0A
:102DC000A70196010E94A31A6B017C019B01AC0133
:102DD000B8018E859D850E94EC1887FD16C0009174
:102DE0002D0510912E05B0912F05BE87E09130057D
:102DF000ED8798014B2F5E2FB601C7010E94EC189A
:102E000087FD03C08601EE86FD86E0911905F091ED
:102E10001A05C801AE85BD8580839183A283B383E3
:102E2000409225055092260560922705709228054C
:102E300029853A854B855C8520931D0530931E05B9
:102E400040931F0550932005C090F304D090F404E4
:102E5000E090F504F090F604C701B6010E94811BD2
:102E60009B01AC01A0E5B0E00E942F1A2FEF30E0EB
:102E700040E050E00E94101ACA01B9010E94F31804
:102E800060931604709317048093180490931904A8
:102E9000C701B6010E94811B6B017A83698361E0DF
:102EA00083E10E94AF0349815A81452B09F042C159
:102EB00060E083E10E948103C090F704D090F804A1
:102EC000E090F904F090FA0420E030E040EF51E4A3
:102ED000C701B6010E94EC1861E087FD77C120E0D0
:102EE00030E048E252E4C701B6010E94B71B181651
:102EF0000CF06BC161E08DE00E94810360E08CE02A
:102F00000E948103A1E0B1E0E8EFF1E01D9231976A
:102F1000E9F71092EB048091EC04833508F483E523
:102F20008093EC041092ED048091EE048F3208F44B
:102F30008FE28093EE041092D5041092D404109284
:102F4000D7041092D60461E673E088EC94E00E9406
:102F50005B0E6EE373E088EC94E00E945B0E6FE61C
:102F600073E088EC94E00E945B0E6EE373E088EC03
:102F700094E00E945B0E6EE773E088EC94E00E94A0
:102F80005B0E60911E0470911F048091200490914B
:102F900021040E94811B88EC94E00E94330E6AE8B1
:102FA00073E088EC94E00E945B0E609116047091CF
:102FB000170480911804909119040E94811B88ECD9
:102FC00094E00E94330E63E973E088EC94E00E9481
:102FD0005B0E6091F7047091F8048091F904909170
:102FE000FA040E94811B88EC94E00E94330E6BE986
:102FF00073E088EC94E00E945B0E6091EF047091A6
:10300000F0048091F1049091F2040E94811B88ECFD
:1030100094E00E94330E0E94C30CEDEFF5E0849122
:10302000EBE1F6E0F491F983E9E3F6E0F491FD8356
:10303000FF2309F453C081110E9458032D81E22F10
:10304000F0E0EE0FFF1FE85FF94FA591B4918C916E
:103050003981382309F442C060911E0470911F0425
:1030600080912004909121040E94811B87E294E0CA
:103070000E94510E6FE573E087E294E00E945B0EC0
:1030800060911604709117048091180490911904AE
:103090000E94811B87E294E00E94510E6FE573E06D
:1030A00087E294E00E945B0E70E060E087E294E0CB
:1030B0000E94510E6FE573E087E294E00E945B0E80
:1030C0006091EF047091F0048091F1049091F2040A
:1030D0000E94811B87E294E00E94330E40E050E0A2
:1030E000452B09F494CC0E94CD05882309F48FCC9C
:1030F0000E9400008CCC80902D0590902E05A09011
:103100002F05B0903005A50194016D817E818F81DE
:1031100098850E94EC1887FF28CE80922105909216
:103120002205A0922305B09224051FCEC12CD12CDC
:1031300076012CCE89819A818F3F910511F461E04F
:10314000B8CEE7E0F6E08491833029F150F4813085
:10315000C1F08230D9F029813A81203831057CF7DD
:10316000A7CE873011F1883041F18430A1F78091EA
:103170008000806280938000D0928B00C0928A0091
:103180009BCE84B5806884BDC7BC96CE84B5806272
:1031900084BDC8BC91CE80918000806880938000FF
:1031A000D0928900C092880087CE8091B00080685C
:1031B0008093B000C092B3007FCE8091B000806257
:1031C0008093B000C092B40077CE60E08CE00E94A3
:1031D000810360E08DE094CE0E942E1908F481E016
:1031E0000895E89409C097FB3EF4909580957095FA
:1031F00061957F4F8F4F9F4F9923A9F0F92F96E943
:10320000BB279395F695879577956795B795F111B7
:10321000F8CFFAF4BB0F11F460FF1BC06F5F7F4F54
:103220008F4F9F4F16C0882311F096E911C0772366
:1032300021F09EE8872F762F05C0662371F096E86F
:10324000862F70E060E02AF09A95660F771F881F3E
:10325000DAF7880F9695879597F90895990F0008E2
:10326000550FAA0BE0E8FEEF16161706E807F90758
:10327000C0F012161306E407F50798F0621B730BF3
:10328000840B950B39F40A2661F0232B242B252B74
:1032900021F408950A2609F4A140A6958FEF811D17
:1032A000811D08950E9465190C94D6190E94C819B1
:1032B00038F00E94CF1920F0952311F00C94BF191B
:1032C0000C94C51911240C940A1A0E94E71970F382
:1032D000959FC1F3950F50E0551F629FF001729FBB
:1032E000BB27F00DB11D639FAA27F00DB11DAA1FCA
:1032F000649F6627B00DA11D661F829F2227B00D17
:10330000A11D621F739FB00DA11D621F839FA00DA1
:10331000611D221F749F3327A00D611D231F849FF1
:10332000600D211D822F762F6A2F11249F57504048
:103330009AF0F1F088234AF0EE0FFF1FBB1F661FC3
:10334000771F881F91505040A9F79E3F510580F08C
:103350000C94BF190C940A1A5F3FE4F3983ED4F31F
:10336000869577956795B795F795E7959F5FC1F730
:10337000FE2B880F911D9695879597F9089597F9DB
:103380009F6780E870E060E008959FEF80EC08950B
:1033900000240A9416161706180609060895002434
:1033A0000A9412161306140605060895092E0394AE
:1033B000000C11F4882352F0BB0F40F4BF2B11F422
:1033C00060FF04C06F5F7F4F8F4F9F4F089557FD81
:1033D0009058440F551F59F05F3F71F04795880F83
:1033E00097FB991F61F09F3F79F08795089512161A
:1033F00013061406551FF2CF4695F1DF08C01616C6
:1034000017061806991FF1CF869571056105089476
:103410000895E894BB2766277727CB0197F908958D
:10342000052E97FB1EF400940E94271A57FD07D023
:103430000E94711A07FC03D04EF40C94271A509581
:103440004095309521953F4F4F4F5F4F0895909590
:103450008095709561957F4F8F4F9F4F08950E9483
:10346000931AA59F900DB49F900DA49F800D911D60
:10347000112408952F923F924F925F926F927F9204
:103480008F929F92AF92BF92CF92DF92EF92FF9274
:103490000F931F93CF93DF93CDB7DEB7CA1BDB0B20
:1034A0000FB6F894DEBF0FBECDBF09942A883988C5
:1034B00048885F846E847D848C849B84AA84B984CC
:1034C000C884DF80EE80FD800C811B81AA81B981D8
:1034D000CE0FD11D0FB6F894DEBF0FBECDBFED01EC
:1034E0000895A1E21A2EAA1BBB1BFD010DC0AA1F45
:1034F000BB1FEE1FFF1FA217B307E407F50720F05D
:10350000A21BB30BE40BF50B661F771F881F991FD7
:103510001A9469F760957095809590959B01AC0120
:10352000BD01CF010895A29FB001B39FC001A39F29
:10353000700D811D1124911DB29F700D811D1124EC
:10354000911D08955058BB27AA270E94BA1A0C94BF
:10355000D6190E94C81938F00E94CF1920F039F40A
:103560009F3F19F426F40C94C5190EF4E095E7FB7F
:103570000C94BF19E92F0E94E71958F3BA17620794
:1035800073078407950720F079F4A6F50C94091ABF
:103590000EF4E0950B2EBA2FA02D0B01B90190016E
:1035A0000C01CA01A0011124FF27591B99F0593FB2
:1035B00050F4503E68F11A16F040A22F232F342FFA
:1035C0004427585FF3CF469537952795A795F04048
:1035D0005395C9F77EF41F16BA0B620B730B840B5D
:1035E000BAF09150A1F0FF0FBB1F661F771F881F15
:1035F000C2F70EC0BA0F621F731F841F48F487956D
:1036000077956795B795F7959E3F08F0B0CF93955E
:10361000880F08F09927EE0F9795879508950E94D7
:10362000231B0C94D6190E94CF1958F00E94C81978
:1036300040F029F45F3F29F00C94BF1951110C940C
:103640000A1A0C94C5190E94E71968F39923B1F37B
:10365000552391F3951B550BBB27AA2762177307B8
:10366000840738F09F5F5F4F220F331F441FAA1F4C
:10367000A9F335D00E2E3AF0E0E832D09150504008
:10368000E695001CCAF72BD0FE2F29D0660F771FB6
:10369000881FBB1F261737074807AB07B0E809F09C
:1036A000BB0B802DBF01FF2793585F4F3AF09E3F21
:1036B000510578F00C94BF190C940A1A5F3FE4F39B
:1036C000983ED4F3869577956795B795F7959F5F64
:1036D000C9F7880F911D9695879597F90895E1E0B0
:1036E000660F771F881FBB1F621773078407BA070F
:1036F00020F0621B730B840BBA0BEE1F88F7E0956A
:1037000008950E94881B6894B1110C940A1A0895B8
:103710000E94EF1988F09F5798F0B92F9927B75159
:10372000B0F0E1F0660F771F881F991F1AF0BA9565
:10373000C9F714C0B13091F00E94091AB1E00895A0
:103740000C94091A672F782F8827B85F39F0B93F92
:10375000CCF3869577956795B395D9F73EF4909518
:103760008095709561957F4F8F4F9F4F08950E9470
:103770002E1908F48FEF089516F00C94961C0C94F3
:10378000C51968940C94BF190E94EF19A8F39923E6
:10379000C1F3AEF3DF93CF931F930F93FF92C92F23
:1037A000DD2788232AF02197660F771F881FDAF715
:1037B00020E030E040E85FEB9FE3883920F0803E76
:1037C00038F021968F770E94A31AE8E6F0E004C053
:1037D0000E94A31AE5E9F0E00E94A41C8B01BE013F
:1037E000EC01FB2E6F5771097595771F880B990BAC
:1037F0000E94F31828E132E741E35FE30E94651974
:10380000AF2D9801AE01FF900F911F91CF91DF91E5
:103810000E94BA1A0C94D619FA01EE0FFF1F3096C7
:1038200021053105A1F16115710561F48038BFE30F
:103830009B0749F168949038810561F08038BFEFAB
:103840009B0741F099234AF5FF3FE105310521052A
:1038500019F1E8940894E795D901AA2329F4AB2F2C
:10386000BE2FF85FD0F310C0FF5F70F4A695E0F7AD
:10387000F73950F019F0FF3A38F49F779F930DD045
:103880000F9007FC9058089546F00C94C51960E01D
:1038900070E080E89FE308954FE79F775F934F9331
:1038A0003F932F930E94C41B2F913F914F915F91A3
:1038B0000E9452190C94641C29F416F00C94BF1940
:1038C0000C94091A0C94C5190E94EF19A8F39638A4
:1038D000A0F707F80F92E8942BE33AEA48EB5FE78A
:1038E0000E9468190F920F920F924DB75EB70F9218
:1038F0000E940D1DE2ECF0E00E94A41C4F915F912C
:10390000EF91FF91E595EE1FFF1F49F0FE57E0682C
:103910004427EE0F441FFA95E1F74195550B0E949D
:10392000D71C0F9007FE0C94CB1C08959F3F31F0DD
:10393000915020F4879577956795B795880F911DDD
:103940009695879597F90895DF93CF931F930F93DB
:10395000FF92EF92DF927B018C01689406C0DA2E11
:10396000EF010E946519FE01E894A591259135911A
:1039700045915591A6F3EF010E94BA1AFE019701F5
:10398000A801DA9469F7DF90EF90FF900F911F91F3
:10399000CF91DF9108959B01AC0160E070E080E879
:1039A0009FE30C940F1B0C94BF190C94961C0E945F
:1039B000EF19D8F39923C9F3940F511DA3F3915034
:1039C000504094F059F0882332F0660F771F881F1B
:1039D00091505040C1F79E3F51052CF7880F911D23
:1039E0009695879597F908955F3FACF0983E9CF0C7
:1039F000BB27869577956795B79508F4B160939541
:103A0000C1F7BB0F58F711F460FFE8CF6F5F7F4F2E
:103A10008F4F9F4FE3CF0C940A1AFA01DC01AA0FD3
:103A2000BB1F9B01AC01BF5728F422273327442733
:103A3000507820C0B75190F4AB2F002446953795AD
:103A40002795011CA395D2F3002071F0220F331F9C
:103A5000441FB395DAF30ED00C94A21A61307105AD
:103A6000A0E88A07B94630F49B01AC0166277727A6
:103A700088279078309621F02083318342835383C6
:103A8000089597FB072E16F4009407D077FD09D010
:103A90000E945C1D07FC05D03EF4909581959F4FD8
:103AA0000895709561957F4F08950E94931AB7FF0E
:103AB0000895821B930B0895AA1BBB1B51E107C0FD
:103AC000AA1FBB1FA617B70710F0A61BB70B881FAE
:103AD000991F5A95A9F780959095BC01CD0108953D
:103AE000EE0FFF1F0590F491E02D09940F931F93A3
:103AF000CF93DF938230910510F482E090E0E09163
:103B00005105F091520530E020E0B0E0A0E03097A0
:103B100099F42115310509F44AC0281B390B2430CA
:103B20003105D8F58A819B816115710589F1FB0109
:103B300093838283FE0111C04081518102811381F0
:103B400048175907E0F04817590799F4109761F0A2
:103B500012960C93129713961C933296CF01DF9115
:103B6000CF911F910F910895009351051093520525
:103B7000F4CF2115310551F04217530738F0A90150
:103B8000DB019A01BD01DF01F801C1CFEF01F9CFDF
:103B90009093520580935105CDCFFE01E20FF31FA4
:103BA000819391932250310939832883D7CF209173
:103BB0004F0530915005232B41F42091FB023091A9
:103BC000FC023093500520934F052091F90230916B
:103BD000FA022115310541F42DB73EB74091FD029F
:103BE0005091FE02241B350BE0914F05F0915005DA
:103BF000E217F307A0F42E1B3F0B2817390778F0C4
:103C0000AC014E5F5F4F2417350748F04E0F5F1F22
:103C10005093500540934F05819391939FCFF0E0CF
:103C2000E0E09CCFCF93DF930097E9F0FC0132975F
:103C300013821282A0915105B0915205ED0130E03E
:103C400020E01097A1F420813181820F931F2091F1
:103C50004F05309150052817390709F061C0F093DE
:103C60005005E0934F05DF91CF910895EA01CE17FB
:103C7000DF07E8F54A815B819E0141155105B1F7E7
:103C8000E901FB83EA8349915991C40FD51FEC17D1
:103C9000FD0761F4808191810296840F951FE901EF
:103CA00099838883828193819B838A83F0E0E0E01B
:103CB00012968D919C9113970097B9F52D913C9197
:103CC0001197CD010296820F931F20914F053091DD
:103CD00050052817390739F6309751F510925205DB
:103CE00010925105B0935005A0934F05BCCFD383DC
:103CF000C28340815181840F951FC817D90761F491
:103D00004E5F5F4F88819981480F591F51834083CF
:103D10008A819B81938382832115310509F0B0CF7D
:103D2000F0935205E09351059ECFFD01DC01C0CF19
:103D300013821282D7CFB0E0A0E0E1EAFEE10C945A
:103D40003C1A8C01009751F4CB010E94761D8C0126
:103D5000C801CDB7DEB7E0E10C94581AFC01E60FBC
:103D6000F71F9C0122503109E217F30708F49DC0A8
:103D7000D901CD91DC911197C617D70798F0C530BE
:103D8000D10530F3CE0104978617970708F3C61BB9
:103D9000D70B2297C193D1936D937C93CF010E944F
:103DA000121ED6CF5B01AC1ABD0A4C018C0E9D1EB3
:103DB000A0915105B0915205512C412CF12CE12CD0
:103DC000109731F580914F05909150058815990510
:103DD00009F05CC04616570608F058C08091F902F9
:103DE0009091FA02009741F48DB79EB74091FD0281
:103DF0005091FE02841B950BE817F90708F055C097
:103E0000F0935005E0934F05F90171836083A0CFD3
:103E10008D919C91119712966C90129713967C90AD
:103E20001397A815B90559F56C0142E0C40ED11CD1
:103E3000CA14DB0420F1AC014A195B09DA011296BD
:103E4000159780F06282738251834083D9016D930C
:103E50007C93E114F10471F0D7011396FC93EE9377
:103E6000129776CF22968C0F9D1FF9019183808344
:103E7000F301EFCFF0935205E093510569CF481657
:103E8000590608F42C017D01D3019ACFCB010E9481
:103E9000761D7C01009749F0AE01B8010E945D1FBC
:103EA000C8010E94121E870153CF10E000E050CFDE
:103EB00081E090E0F8940C946D1FFB01DC0102C0DE
:103EC00001900D9241505040D8F70895FB01DC015C
:103ED00001900D920020E1F7089513E0C3E2D3E0D2
:103EE00004C0FE010E94701D2196C432D107C9F79B
:043EF000F894FFCF74
:103EF40001000000000000000000000000000000BD
:103F040000000000000000000000000000000000AD
:103F140000000000000000C0E0F0F8FCFCFEFFFC24
:103F2400E0000000000000000000000000000000AD
:103F3400000000000000000000000000000000007D
:103F4400000000000000000000000000000000006D
:103F5400000000000000F8F8F8F8F8F8F8F8F8F8AD
:103F6400F8F8F0F0E0E0C080C0FCFFFFFFFF7F3F07
:103F74007FFFFFFFFFFF00000000000000000000C3
:103F8400000000000000000000000000000000002D
:103F9400000000000000000000000000000000001D
:103FA40000000000000000000000000F1F3F7FFF22
:103FB400FFFFFFFFFFFFFFE7C7C7878F9F9FFFFF3D
:103FC400FFC1C0E0FCFFFFFFFFFFFCFCFCFCFEFEAA
:103FD400FEFCFCF8F8F0E0C0C000000000000000A7
:103FE40000000000000000000000000000000000CD
:103FF40000000000000000000000000000000000BD
:10400400000080C0E0F1FBFFFFFFFFFF7F1F0F0FE9
:1040140087E7FFFFFF1F1F3FF9F8F8F8F8F8F8FDEE
:10402400FFFFFFFFFFFFFFFFFF7F3F0F07010000C0
:10403400000000000000000000000000000000007C
:10404400000000000000000000000000000000006C
:1040540000000000F0FEFFFFFFFFFFFFFFFFFFFF78
:10406400FE7E3F3F0F1FFFFFFFFCF0E0F1FFFFFF6D
:10407400FFFFFCF00101010101010101000000004A
:10408400000000000000000000000000000000002C
:10409400000000000000000000000000000000001C
:1040A40000000000000000000303030303030303F4
:1040B4000101010100000000000000030F1F3F7F09
:1040C4007FFFFFFFFF7F7F1F030000000000000051
:1040D40000000000000000000000000000000000DC
:1040E40000000000000000000000005305800000F4
:1040F40000000003065A0590055006C1059F05B34C
:104104000500000000FC085A05AA0DA90D390D97F9
:1041140006A10B790B950B890BA80B9706C20628F1
:104124000D400B070BC20AA50A2D0ACE090D0A0081
:1041340048756D6564616400436F6E74726F6C00E2
:1041440054656D705F730054656D705F6F70002C03
:10415400004461746F73206D656469646F73002D2E
:104164002D2D2D2D2D2D2D2D2D2D2D2D2D00487545
:104174006D656461642825293A00436F6E74726F1B
:104184006C3A0054656D705F733A0054656D705FEE
:044194006F703A000E
:00000001FF
