:1000000014C05CC045C021C020C01FC01FC01DC09F
:100010001CC01BC01AC019C018C017C016C015C01C
:1000200014C013C012C011C010C011241FBECFE5F0
:10003000D1E0DEBFCDBF20E0A0E6B0E001C01D9260
:10004000AA36B207E1F704D135C1DACF1F920F9279
:100050000FB60F9211248F939F938091600090911F
:1000600061008D3B910541F481E080936300109223
:1000700061001092600005C001969093610080932A
:1000800060009F918F910F900FBE0F901F90189559
:100090001F920F920FB60F9211248F939F9380910E
:1000A00068009091690090936700809366009F912B
:1000B0008F910F900FBE0F901F9018951F920F9267
:1000C0000FB60F9211242F933F934F935F936F932B
:1000D0007F938F939F93AF93BF93EF93FF93D8DF5B
:1000E000FF91EF91BF91AF919F918F917F916F9110
:1000F0005F914F913F912F910F900FBE0F901F90E6
:100100001895009729F062E271E1C3D0AC0102C0FA
:1001100041E958E098B7926098BF20E030E042177C
:10012000530748F008B601FEFDCF98B7926098BF1C
:100130002F5F3F4FF4CF18BE08951F93CF93DF93E7
:10014000D82FC62F142F88BB80E090E0DADFC8BB21
:1001500080E090E0D6DFD8BB80E090E0D2DFC8BB83
:1001600080E090E0CEDFD8BB80E090E0CADFC8BB83
:1001700080E090E0C6DF18BBDF91CF911F9108951A
:1001800080916600909167008130910591F01CF498
:10019000892B39F008958230910531F1039791F15F
:1001A0000895109265001092640018BA82E090E001
:1001B00024C089E290E0909365008093640088BB3E
:1001C0008AE090E09EDF41E550E069E270E081E086
:1001D00090E0B3DF81E090E094DF10926200109233
:1001E000630082E090E02BC084E590E0909365008E
:1001F0008093640088BB83E090E0909369008093D3
:100200006800089542E550E064E570E080E590E024
:1002100094DF82E590E0909365008093640088BB52
:1002200082E090E06EDF81E590E09093650080933E
:10023000640088BB81E090E064DF81E090E090930F
:10024000690080936800909367008093660008952A
:100250001092690010926800109267001092660078
:100260008FE787BB83EF81BB10BA12BA18BA10BEF2
:1002700013BE83B7856083BF12BE8BB780648BBF0C
:100280008BB780688BBF85B7836085BF789478DF34
:10029000FECF0024552704C0080E591F880F991F50
:1002A000009729F076956795B8F37105B9F7802D19
:0802B000952F0895F894FFCF8B
:00000001FF
