:1000000014C055C022C021C020C01FC01EC01DC0CA
:100010001CC01BC01AC019C018C017C016C015C01C
:1000200014C013C012C011C010C011241FBECFE5F0
:10003000D1E0DEBFCDBF20E0A0E6B0E001C01D9260
:10004000A636B207E1F75DD07BC0DACF80916200BF
:1000500090916300009719F0019791F0089518BAF4
:100060002FE784E89EE1215080409040E1F700C0F6
:10007000000082E090E09093650080936400089512
:1000800088E788BB2FE784E89EE1215080409040BC
:10009000E1F700C00000089581E290E008B601FE9B
:1000A000FDCF28B7226028BF0197C1F708951F929E
:1000B0000F920FB60F9211242F933F934F935F939C
:1000C0006F937F938F939F93AF93BF93EF93FF9320
:1000D000C29AE2DFC298E0DFC29ADEDFC298DCDFBC
:1000E000FF91EF91BF91AF919F918F917F916F9110
:1000F0005F914F913F912F910F900FBE0F901F90E6
:10010000189510926500109264008FE787BB83EF0B
:1001100081BB10BA12BA18BA10BE13BE83B785607D
:1001200083BF12BE78948BB780648BBF80916400CC
:1001300090916500909363008093620087DFF6CF13
:04014000F894FFCF61
:00000001FF
