:1000000014C023C022C021C020C01FC01EC01DC0FC
:100010001CC01BC01AC019C018C017C016C015C01C
:1000200014C013C012C011C010C011241FBECFE5F0
:10003000D1E0DEBFCDBF20E0A0E6B0E001C01D9260
:10004000A436B207E1F721D033C0DACF8091600047
:1000500090916100009719F0019769F0089588E781
:1000600088BB80B38C7081F081E090E09093630056
:1000700080936200089587E088BB80B3882321F0D5
:100080001092630010926200089510926300109223
:1000900062008FE787BB83EF81BB12BA8091620059
:1000A000909163009093610080936000CFDFF6CF62
:0400B000F894FFCFF2
:00000001FF
