:1000000014C01BC01AC019C018C017C016C015C034
:1000100014C013C012C011C010C00FC00EC00DC05C
:100020000CC00BC00AC009C008C011241FBECFE518
:10003000D1E0DEBFCDBF02D043C0E2CF87E087BBB7
:1000400021E092E084E018BA3FE342E45FE03150FF
:1000500040405040E1F700C0000028BB3FE342E4CD
:100060005FE0315040405040E1F700C0000018BA56
:100070003FE342E45FE0315040405040E1F700C0D0
:10008000000098BB3FE342E45FE031504040504005
:10009000E1F700C0000018BA3FE342E45FE03150EE
:1000A00040405040E1F700C0000088BB3FE342E41D
:1000B0005FE0315040405040E1F700C00000C3CF46
:0400C000F894FFCFE2
:00000001FF
