:1000000014C03AC023C021C020C01FC01EC01DC0E4
:100010001CC01BC01AC019C018C017C016C015C01C
:1000200014C013C012C011C010C011241FBECFE5F0
:10003000D1E0DEBFCDBF20E0A0E6B0E001C01D9260
:10004000A936B207E1F712D143C1DACF1F920F925E
:100050000FB60F9211248F939F9380916700909118
:10006000680090936600809365009F918F910F9038
:100070000FBE0F901F9018951F920F920FB60F9200
:1000800011242F933F934F935F936F937F938F939D
:100090009F93AF93BF93EF93FF93D8DFFF91EF91BF
:1000A000BF91AF919F918F917F916F915F914F9190
:1000B0003F912F910F900FBE0F901F901895CF93E7
:1000C000DF9300D000D0CDB7DEB79C011C821B822D
:1000D00061E978E0ECD09A838983232B21F489E4C9
:1000E00094E09A83898388B7826088BF2B813C81A2
:1000F00089819A818217930760F008B601FEFDCFCF
:1001000088B7826088BF8B819C8101969C838B839A
:10011000EDCF0F900F900F900F90DF91CF9108953A
:100120001F93CF93DF93D82FC62F142F88BB80E067
:1001300090E0C5DFC8BB80E090E0C1DFD8BB80E0C5
:1001400090E0BDDFC8BB80E090E0B9DFD8BB80E0C5
:1001500090E0B5DFC8BB80E090E0B1DF18BBDF9175
:10016000CF911F9108958091650090916600813034
:100170009105B9F01CF4892B41F008958230910566
:1001800049F1039709F44CC008951092640010924D
:10019000630018BA82E090E0909368008093670053
:1001A000089589E290E0909364008093630088BB97
:1001B0008AE090E084DF41E550E069E270E081E0B0
:1001C00090E0AEDF81E090E07ADF1092620082E0A2
:1001D00090E043C080916200882371F083E090E05A
:1001E000909368008093670084E590E090936400AA
:1001F0008093630088BB089583E090E0909368004B
:100200008093670084E590E090936400809363009E
:1002100088BB8AE090E053DF81E08093620008951C
:1002200042E550E064E570E080E590E079DF82E54A
:1002300090E0909364008093630088BB82E090E03C
:100240003EDF81E590E0909364008093630088BB7B
:1002500081E090E034DF81E090E09093680080934B
:10026000670090936600809365000895109268007F
:100270001092670010926600109265008FE787BBAE
:1002800083EF81BB10BA12BA18BA10BE13BE83B77F
:10029000856083BF12BE8BB780648BBF8BB78068CD
:1002A0008BBF85B7836085BF78945DDFFECF002468
:1002B000552704C0080E591F880F991F009729F071
:1002C00076956795B8F37105B9F7802D952F089548
:0402D000F894FFCFD0
:00000001FF
