:1000000014C03AC023C021C020C01FC01EC01DC0E4
:100010001CC01BC01AC019C018C017C016C015C01C
:1000200014C013C012C011C010C011241FBECFE5F0
:10003000D1E0DEBFCDBF20E0A0E6B0E001C01D9260
:10004000A736B207E1F7D0D001C1DACF1F920F92E5
:100050000FB60F9211248F939F938091650090911A
:10006000660090936400809363009F918F910F903E
:100070000FBE0F901F9018951F920F920FB60F9200
:1000800011242F933F934F935F936F937F938F939D
:100090009F93AF93BF93EF93FF93D8DFFF91EF91BF
:1000A000BF91AF919F918F917F916F915F914F9190
:1000B0003F912F910F900FBE0F901F9018950097B2
:1000C00029F062E271E1B1D0AC0102C041E958E02F
:1000D00020E030E04217530748F008B601FEFDCF9C
:1000E00098B7926098BF2F5F3F4FF4CF18BE089526
:1000F0001F93CF93DF93D82FC62F142F88BB80E098
:1001000090E0DDDFC8BB80E090E0D9DFD8BB80E0C5
:1001100090E0D5DFC8BB80E090E0D1DFD8BB80E0C5
:1001200090E0CDDFC8BB80E090E0C9DF18BBDF9175
:10013000CF911F9108958091630090916400813068
:10014000910591F01CF4892B39F0089582309105C6
:1001500011F1039771F108951092620010926100FD
:1001600018BA82E090E020C089E290E090936200AB
:100170008093610088BB8AE090E0A1DF41E550E018
:1001800069E270E081E090E0B3DF81E090E097DF2A
:1001900082E090E020C084E590E09093620080933C
:1001A000610088BB83E090E09093660080936500D7
:1001B000089582E590E0909362008093610041E5AC
:1001C00050E062E570E080E590E092DF81E090E051
:1001D00076DF81E090E090936600809365009093D5
:1001E0006400809363000895109266001092650089
:1001F00010926400109263008FE787BB83EF81BB8E
:1002000010BA12BA18BA10BE13BE83B7856083BF86
:1002100012BE78948BB780648BBF8BB780688BBF1E
:1002200085B7836085BF87DFFECF0024552704C0D4
:10023000080E591F880F991F009729F0769567952A
:10024000B8F37105B9F7802D952F0895F894FFCF75
:00000001FF
