:1000000014C03AC023C021C020C01FC01EC01DC0E4
:100010001CC01BC01AC019C018C017C016C015C01C
:1000200014C013C012C011C010C011241FBECFE5F0
:10003000D1E0DEBFCDBF20E0A0E6B0E001C01D9260
:10004000A736B207E1F7AFD0C8C0DACF1F920F9240
:100050000FB60F9211248F939F938091650090911A
:10006000660090936400809363009F918F910F903E
:100070000FBE0F901F9018951F920F920FB60F9200
:1000800011242F933F934F935F936F937F938F939D
:100090009F93AF93BF93EF93FF93D8DFFF91EF91BF
:1000A000BF91AF919F918F917F916F915F914F9190
:1000B0003F912F910F900FBE0F901F901895AC019C
:1000C00020E030E04217530748F008B601FEFDCFAC
:1000D00098B7926098BF2F5F3F4FF4CF08958091FB
:1000E0006300909164008130910591F01CF4892B9C
:1000F00039F0089582309105C1F0039721F10895F8
:10010000109262001092610018BA82E090E016C06E
:1001100089E290E0909362008093610088BB80E167
:1001200097E2CDDF82E090E01AC084E590E0909302
:1001300062008093610088BB83E090E0909366004A
:1001400080936500089582E590E09093620080932B
:10015000610088BB80E797E1B2DF81E090E0909397
:100160006600809365009093640080936300089517
:10017000CF93C82F18BA88EE93E0A1DFC8BB88EEF2
:1001800093E09DDF18BA88EE93E099DFC8BB88EE54
:1001900093E095DF18BA88EE93E091DFC8BB88EE54
:1001A00093E0CF918CCF10926600109265008FE79C
:1001B00087BB83EF81BB10BA12BA18BA10BE13BE48
:1001C00083B7856083BF12BE78948BB780648BBF82
:0E01D0008BB780688BBF83DFFECFF894FFCF24
:00000001FF
