:1000000014C01BC01AC019C018C017C016C015C034
:1000100014C013C012C011C010C00FC00EC00DC05C
:100020000CC00BC00AC009C008C011241FBECFE518
:10003000D1E0DEBFCDBF02D040C0E2CF8FE787BBAB
:1000400018BA2FE332E49FE0215030409040E1F7AE
:1000500000C0000088BB2FE332E49FE02150304015
:100060009040E1F700C0000018BA2FE332E49FE0AF
:10007000215030409040E1F700C0000088BB2FE3E2
:1000800032E49FE0215030409040E1F700C0000092
:1000900018BA2FE332E49FE0215030409040E1F75E
:1000A00000C0000088BB2FE332E49FE021503040C5
:0E00B0009040E1F700C00000C3CFF894FFCFEE
:00000001FF
