:1000000014C03AC023C021C020C01FC01EC01DC0E4
:100010001CC01BC01AC019C018C017C016C015C01C
:1000200014C013C012C011C010C011241FBECFE5F0
:10003000D1E0DEBFCDBF20E0A0E6B0E001C01D9260
:10004000A636B207E1F794D0ADC0DACF1F920F9277
:100050000FB60F9211248F939F938091640090911B
:10006000650090936300809362009F918F910F9041
:100070000FBE0F901F9018951F920F920FB60F9200
:1000800011242F933F934F935F936F937F938F939D
:100090009F93AF93BF93EF93FF93D8DFFF91EF91BF
:1000A000BF91AF919F918F917F916F915F914F9190
:1000B0003F912F910F900FBE0F901F901895AC019C
:1000C00020E030E04217530748F008B601FEFDCFAC
:1000D00098B7926098BF2F5F3F4FF4CF08958091FB
:1000E0006200909163008130910591F01CF4892B9E
:1000F00039F0089582309105C1F0039721F10895F8
:10010000109261001092600018BA82E090E016C070
:1001100089E290E0909361008093600088BB80E169
:1001200097E2CDDF82E090E01AC084E590E0909302
:1001300061008093600088BB83E090E0909365004D
:1001400080936400089582E590E09093610080932D
:10015000600088BB80E797E1B2DF81E090E0909398
:10016000650080936400909363008093620008951B
:1001700010926500109264008FE787BB83EF81BB0C
:1001800010BA12BA18BA10BE13BE83B7856083BF07
:1001900012BE78948BB780648BBF8BB780688BBF9F
:0801A0009EDFFECFF894FFCFB3
:00000001FF
