:1000000014C023C022C021C020C01FC01EC01DC0FC
:100010001CC01BC01AC019C018C017C016C015C01C
:1000200014C013C012C011C010C011241FBECFE5F0
:10003000D1E0DEBFCDBF20E0A0E6B0E001C01D9260
:10004000A436B207E1F72AD03FC0DACF8091600032
:10005000909161008130910539F08230910591F0E5
:10006000892BD9F418BA02C088E788BB2FE784E847
:100070009EE1215080409040E1F700C0000082E006
:1000800090E007C087E088BB80B38C7031F081E0DE
:1000900090E0909363008093620008951092630053
:1000A000109262008FE787BB83EF81BB10BA12BA50
:1000B00018BA7894809162009091630090936100E7
:0C00C00080936000C3DFF6CFF894FFCF00
:00000001FF
