:020000040000FA
:100000000000EB28B8002F08B7002E08BA002D0812
:10001000B9003A04031D772838083704031D132854
:1000200083128501EA283708013A031D1F28380882
:10003000003A031D1F28013083128500EA28370883
:10004000023A031D2B283808003A031D2B280230E2
:1000500083128500EA283708033A031D3728380839
:10006000003A031D3728033083128500EA28370839
:10007000043A031D43283808003A031D432804307E
:1000800083128500EA283708053A031D4F283808EF
:10009000003A031D4F28053083128500EA283708EF
:1000A000063A031D5B283808003A031D5B2806301A
:1000B00083128500EA283708073A031D67283808A5
:1000C000003A031D6728073083128500EA283708A5
:1000D000083A031D73283808003A031D73281030AE
:1000E00083128500EA28113083128500EA28390836
:1000F000013A031DEA283A08003A031DEA283808A5
:100100003704031D8728203083128500EA2837082A
:10011000013A031D93283808003A031D9328213023
:1001200083128500EA283708023A031D9F28380801
:10013000003A031D9F28223083128500EA283708E1
:10014000033A031DAB283808003A031DAB282330BF
:1001500083128500EA283708043A031DB7283808B7
:10016000003A031DB728243083128500EA28370897
:10017000053A031DC3283808003A031DC32825305B
:1001800083128500EA283708063A031DCF2838086D
:10019000003A031DCF28263083128500EA2837084D
:1001A000073A031DDB283808003A031DDB282730F7
:1001B00083128500EA283708083A031DE728380823
:1001C000003A031DE728303083128500EA283130D9
:1001D000831285000800FE30AE000230AF00803090
:1001E00000000000B6220000000083120000CA00D8
:1001F0002F08C9000030CB000330CC008312000070
:100200004908CD004A08CE00FF30C907031CCA03C5
:100210004E084D040319832904304B07CD00CE014D
:10022000CE0D4C08CE074D08AE004E08AF00803012
:1002300000000000B6220000000083120000D00081
:100240002F08CF004B08AE004C08AF0080300000F4
:100250000000B6220000000083120000D200CE0091
:100260002F08CD00D10002304B07CD00CE01CE0DBE
:100270004C08CE074D08AE004E08AF00803000009D
:100280000000B6220000000083120000CE00D4005F
:100290002F08D300CD00831200004F08D300500870
:1002A000D400FF30CF07031CD003540853040319B4
:1002B0007C295108AE005208AF00803000000000D9
:1002C000A3220000000083120000D3004D08831217
:1002D000031384008313831200004E1883175308FE
:1002E00083120313800083120000D10A0319D20A7B
:1002F000CD0A0319CE0A4B29063083120000CB0722
:100300000318CC0AFE2800000000872908000830E6
:100310008316850083128501B001B1010930AD005B
:100320000030AE000030AF0000306222B3002F0872
:10033000B2000930AD000030AE000030AF00003038
:100340006222B5002F08B400B60183128519B60ADF
:100350003608013A031DAF29B00A0319B10A300863
:10036000113A031DDA293108003A031DDA29B001D8
:10037000B101B60183128519B60A3608013A031D88
:10038000CA290030AD000030AE000930AF000030A7
:100390000220B9290530AF000030D7220130AD006E
:1003A0000030AE000930AF00003002200530AF0051
:1003B0000030D722B60183128519B60A3608013AF1
:1003C000031DFB290030AD000030AE003208AF0045
:1003D000330802200530AF000030D7220130AD00D5
:1003E0000030AE003408AF00350802200530AF0001
:1003F0000030D722DA290030AD000030AE003208DC
:10040000AF00330802200530AF000030D7220130A2
:10041000AD000030AE003408AF00350802200530D2
:10042000AF000030D7228E29080083120000D600CA
:100430002F08D5002E08D8002D08D700D901DA01E1
:100440008312000058088039031D0130DB005B086F
:10045000031D412A0310D70DD80D58085602031D5D
:10046000332A5708550203183B2A03108312000051
:10047000D80CD70C412A83120000DA0A5A08D90096
:10048000202A8312000058085602031D492A5708E3
:100490005502031C532A831200005708D50258083E
:1004A000031C580FD602031083120000D80CD70C7F
:1004B0005908DA00D9035A08031D412A5508AF002C
:1004C00056080800BC002F08BB002E08BE002D08EF
:1004D000BD003B06031D742A3E083C06031D742A1A
:1004E0003B08AF003C08A22AAD30DC0703300318FC
:1004F0000430DD073D08AD003E08AE005C08AF00EB
:100500005D081522DD002F08DC003C085D02031D9C
:100510008B2A3B085C0203189F2A3D085C07BF003A
:100520005D08C0003E0803183E0FC0073B083F02AD
:10053000DC003C08031C3C0A4002DD00852A5C0804
:10054000AF005D080800003A0319AA2A803A03198F
:10055000B12A00342E08840083132F188317000853
:1005600008002F088A002E0882000800003A0319AC
:10057000BE2A803A0319C82AAF0100342E0884002D
:1005800083132F1883170008AF00840A000808009F
:1005900000000000B122AD00AE0FAF03AF0A0000B3
:1005A0000000B122AC002D08AF002C080800C200EA
:1005B0002F08C100C301C40142084402031DE22AFE
:1005C000410843020318FD2AFB30C5000430C60071
:1005D000FF304507C700FF30C80046080318460F24
:1005E000C8074708C5004808C60048084704031D57
:1005F000E82AC30A0319C40ADC2A080002340034BA
:100600000C3403345C340034023400340E340334CC
:0E0610005E34003401340034E134AC34003484
:02400E00D73F9A
:00000001FF
